{
  "contractName": "DieselPrice",
  "abi": [
    {
      "constant": true,
      "inputs": [],
      "name": "dieselPriceUSD",
      "outputs": [
        {
          "name": "",
          "type": "uint256"
        }
      ],
      "payable": false,
      "stateMutability": "view",
      "type": "function"
    },
    {
      "inputs": [],
      "payable": false,
      "stateMutability": "nonpayable",
      "type": "constructor"
    },
    {
      "anonymous": false,
      "inputs": [
        {
          "indexed": false,
          "name": "price",
          "type": "string"
        }
      ],
      "name": "LogNewDieselPrice",
      "type": "event"
    },
    {
      "anonymous": false,
      "inputs": [
        {
          "indexed": false,
          "name": "description",
          "type": "string"
        }
      ],
      "name": "LogNewProvableQuery",
      "type": "event"
    },
    {
      "constant": false,
      "inputs": [
        {
          "name": "myid",
          "type": "bytes32"
        },
        {
          "name": "result",
          "type": "string"
        }
      ],
      "name": "__callback",
      "outputs": [],
      "payable": false,
      "stateMutability": "nonpayable",
      "type": "function"
    },
    {
      "constant": false,
      "inputs": [
        {
          "name": "_myid",
          "type": "bytes32"
        },
        {
          "name": "_result",
          "type": "string"
        },
        {
          "name": "_proof",
          "type": "bytes"
        }
      ],
      "name": "__callback",
      "outputs": [],
      "payable": false,
      "stateMutability": "nonpayable",
      "type": "function"
    },
    {
      "constant": false,
      "inputs": [],
      "name": "update",
      "outputs": [],
      "payable": true,
      "stateMutability": "payable",
      "type": "function"
    }
  ],
  "bytecode": "0x60806040523480156200001157600080fd5b50620000256401000000006200002b810204565b62000afa565b6040805160208082526036908201527f50726f7661626c65207175657279207761732073656e742c207374616e64696e818301527f6720627920666f722074686520616e737765722e2e2e00000000000000000000606082015290517fc4dc360d0a9c0677a3379ae0a3d81e887f761e65fdf3d7e00859d1bcd3c473899181900360800190a1620001836040805190810160405280600381526020017f55524c0000000000000000000000000000000000000000000000000000000000815250608060405190810160405280604581526020017f786d6c2868747470733a2f2f7777772e6675656c65636f6e6f6d792e676f762f81526020017f77732f726573742f6675656c707269636573292e6675656c5072696365732e6481526020017f696573656c00000000000000000000000000000000000000000000000000000081525062000186640100000000026401000000009004565b50565b600154600090600160a060020a03161580620001bf5750600154620001bd90600160a060020a0316640100000000620005e0810204565b155b15620001dc57620001da6000640100000000620005e4810204565b505b600160009054906101000a9004600160a060020a0316600160a060020a03166338cc48316040518163ffffffff167c0100000000000000000000000000000000000000000000000000000000028152600401602060405180830381600087803b1580156200024957600080fd5b505af11580156200025e573d6000803e3d6000fd5b505050506040513d60208110156200027557600080fd5b5051600054600160a060020a039081169116146200034857600160009054906101000a9004600160a060020a0316600160a060020a03166338cc48316040518163ffffffff167c0100000000000000000000000000000000000000000000000000000000028152600401602060405180830381600087803b158015620002fa57600080fd5b505af11580156200030f573d6000803e3d6000fd5b505050506040513d60208110156200032657600080fd5b505160008054600160a060020a031916600160a060020a039092169190911790555b600080546040517f524f3889000000000000000000000000000000000000000000000000000000008152602060048201818152875160248401528751600160a060020a039094169363524f38899389938392604490920191908501908083838b5b83811015620003c3578181015183820152602001620003a9565b50505050905090810190601f168015620003f15780820380516001836020036101000a031916815260200191505b5092505050602060405180830381600087803b1580156200041157600080fd5b505af115801562000426573d6000803e3d6000fd5b505050506040513d60208110156200043d57600080fd5b50519050670de0b6b3a764000062030d403a020181111562000464575060009050620005da565b600080546040517fadf59f9900000000000000000000000000000000000000000000000000000000815260048101838152606060248301908152885160648401528851600160a060020a039094169463adf59f9994879491938b938b9391929091604481019160849091019060208701908083838b5b83811015620004f4578181015183820152602001620004da565b50505050905090810190601f168015620005225780820380516001836020036101000a031916815260200191505b50838103825284518152845160209182019186019080838360005b83811015620005575781810151838201526020016200053d565b50505050905090810190601f168015620005855780820380516001836020036101000a031916815260200191505b50955050505050506020604051808303818588803b158015620005a757600080fd5b505af1158015620005bc573d6000803e3d6000fd5b50505050506040513d6020811015620005d457600080fd5b50519150505b92915050565b3b90565b6000620005da640100000000620005f9810204565b60008062000624731d3b2638a7cc9f2cb3d298a3da7a90b67e5506ed640100000000620005e0810204565b1115620006a25760018054600160a060020a031916731d3b2638a7cc9f2cb3d298a3da7a90b67e5506ed17905560408051808201909152600b81527f6574685f6d61696e6e65740000000000000000000000000000000000000000006020820152620006999064010000000062000a3f810204565b50600162000a3c565b6000620006cc73c03a2615d5efaf5f49f60b7bb6583eaec212fdf1640100000000620005e0810204565b1115620007415760018054600160a060020a03191673c03a2615d5efaf5f49f60b7bb6583eaec212fdf117905560408051808201909152600c81527f6574685f726f707374656e3300000000000000000000000000000000000000006020820152620006999064010000000062000a3f810204565b60006200076b73b7a07bcf2ba2f2703b24c0691b5278999c59ac7e640100000000620005e0810204565b1115620007e05760018054600160a060020a03191673b7a07bcf2ba2f2703b24c0691b5278999c59ac7e17905560408051808201909152600981527f6574685f6b6f76616e00000000000000000000000000000000000000000000006020820152620006999064010000000062000a3f810204565b60006200080a73146500cfd35b22e4a392fe0adc06de1a1368ed48640100000000620005e0810204565b11156200087f5760018054600160a060020a03191673146500cfd35b22e4a392fe0adc06de1a1368ed4817905560408051808201909152600b81527f6574685f72696e6b6562790000000000000000000000000000000000000000006020820152620006999064010000000062000a3f810204565b6000620008a973a2998efd205fb9d4b4963afb70778d6354ad3a41640100000000620005e0810204565b11156200091e5760018054600160a060020a03191673a2998efd205fb9d4b4963afb70778d6354ad3a4117905560408051808201909152600a81527f6574685f676f65726c69000000000000000000000000000000000000000000006020820152620006999064010000000062000a3f810204565b600062000948736f485c8bf6fc43ea212e93bbf8ce046c7f1cb475640100000000620005e0810204565b11156200097c575060018054600160a060020a031916736f485c8bf6fc43ea212e93bbf8ce046c7f1cb47517815562000a3c565b6000620009a67320e12a1f859b3feae5fb2a0a32c18f5a65555bbf640100000000620005e0810204565b1115620009da575060018054600160a060020a0319167320e12a1f859b3feae5fb2a0a32c18f5a65555bbf17815562000a3c565b600062000a047351efaf4c8b3c9afbd5ab9f4bbc82784ab6ef8faa640100000000620005e0810204565b111562000a38575060018054600160a060020a0319167351efaf4c8b3c9afbd5ab9f4bbc82784ab6ef8faa17815562000a3c565b5060005b90565b805162000a5490600290602084019062000a58565b5050565b828054600181600116156101000203166002900490600052602060002090601f016020900481019282601f1062000a9b57805160ff191683800117855562000acb565b8280016001018555821562000acb579182015b8281111562000acb57825182559160200191906001019062000aae565b5062000ad992915062000add565b5090565b62000a3c91905b8082111562000ad9576000815560010162000ae4565b6110688062000b0a6000396000f3fe6080604052600436106100485763ffffffff60e060020a60003504166327dc297e811461004d57806338bbfa50146101095780633e0ae5881461024a578063a2e6204514610271575b600080fd5b34801561005957600080fd5b506101076004803603604081101561007057600080fd5b8135919081019060408101602082013564010000000081111561009257600080fd5b8201836020820111156100a457600080fd5b803590602001918460018302840111640100000000831117156100c657600080fd5b91908080601f016020809104026020016040519081016040528093929190818152602001838380828437600092019190915250929550610279945050505050565b005b34801561011557600080fd5b506101076004803603606081101561012c57600080fd5b8135919081019060408101602082013564010000000081111561014e57600080fd5b82018360208201111561016057600080fd5b8035906020019184600183028401116401000000008311171561018257600080fd5b91908080601f01602080910402602001604051908101604052809392919081815260200183838082843760009201919091525092959493602081019350359150506401000000008111156101d557600080fd5b8201836020820111156101e757600080fd5b8035906020019184600183028401116401000000008311171561020957600080fd5b91908080601f016020809104026020016040519081016040528093929190818152602001838380828437600092019190915250929550610340945050505050565b34801561025657600080fd5b5061025f610371565b60408051918252519081900360200190f35b610107610377565b6102816104c1565b600160a060020a0316331461029557600080fd5b7fd6895258709992fce160291769b3d3b2abe843f1e1529bed11f0dbd1f8159bb0816040518080602001828103825283818151815260200191508051906020019080838360005b838110156102f45781810151838201526020016102dc565b50505050905090810190601f1680156103215780820380516001836020036101000a031916815260200191505b509250505060405180910390a16103398160026106b4565b6005555050565b5050600080805260036020527f3617319a054d772f909f7c479a2cebe5066e836a939412e32403c99029b92eff5550565b60055481565b6040805160208082526036908201527f50726f7661626c65207175657279207761732073656e742c207374616e64696e818301527f6720627920666f722074686520616e737765722e2e2e00000000000000000000606082015290517fc4dc360d0a9c0677a3379ae0a3d81e887f761e65fdf3d7e00859d1bcd3c473899181900360800190a16104be6040805190810160405280600381526020017f55524c0000000000000000000000000000000000000000000000000000000000815250608060405190810160405280604581526020017f786d6c2868747470733a2f2f7777772e6675656c65636f6e6f6d792e676f762f81526020017f77732f726573742f6675656c707269636573292e6675656c5072696365732e6481526020017f696573656c0000000000000000000000000000000000000000000000000000008152506107e4565b50565b600154600090600160a060020a031615806104ee57506001546104ec90600160a060020a0316610bda565b155b156104ff576104fd6000610bde565b505b600160009054906101000a9004600160a060020a0316600160a060020a03166338cc48316040518163ffffffff1660e060020a028152600401602060405180830381600087803b15801561055257600080fd5b505af1158015610566573d6000803e3d6000fd5b505050506040513d602081101561057c57600080fd5b5051600054600160a060020a0390811691161461063257600160009054906101000a9004600160a060020a0316600160a060020a03166338cc48316040518163ffffffff1660e060020a028152600401602060405180830381600087803b1580156105e657600080fd5b505af11580156105fa573d6000803e3d6000fd5b505050506040513d602081101561061057600080fd5b505160008054600160a060020a031916600160a060020a039092169190911790555b6000809054906101000a9004600160a060020a0316600160a060020a031663c281d19e6040518163ffffffff1660e060020a02815260040160206040518083038186803b15801561068257600080fd5b505afa158015610696573d6000803e3d6000fd5b505050506040513d60208110156106ac57600080fd5b505190505b90565b6000828180805b83518110156107c657603084828151811015156106d457fe5b90602001015160f860020a900460f860020a0260f860020a900460ff161015801561072a57506039848281518110151561070a57fe5b90602001015160f860020a900460f860020a0260f860020a900460ff1611155b1561078657811561074957851515610741576107c6565b600019909501945b600a830292506030848281518110151561075f57fe5b90602001015160f860020a900460f860020a0260f860020a900460ff1603830192506107be565b838181518110151561079457fe5b90602001015160f860020a900460f860020a0260f860020a900460ff16602e14156107be57600191505b6001016106bb565b5060008511156107d95784600a0a820291505b509150505b92915050565b600154600090600160a060020a03161580610811575060015461080f90600160a060020a0316610bda565b155b15610822576108206000610bde565b505b600160009054906101000a9004600160a060020a0316600160a060020a03166338cc48316040518163ffffffff1660e060020a028152600401602060405180830381600087803b15801561087557600080fd5b505af1158015610889573d6000803e3d6000fd5b505050506040513d602081101561089f57600080fd5b5051600054600160a060020a0390811691161461095557600160009054906101000a9004600160a060020a0316600160a060020a03166338cc48316040518163ffffffff1660e060020a028152600401602060405180830381600087803b15801561090957600080fd5b505af115801561091d573d6000803e3d6000fd5b505050506040513d602081101561093357600080fd5b505160008054600160a060020a031916600160a060020a039092169190911790555b600080546040517f524f3889000000000000000000000000000000000000000000000000000000008152602060048201818152875160248401528751600160a060020a039094169363524f38899389938392604490920191908501908083838b5b838110156109ce5781810151838201526020016109b6565b50505050905090810190601f1680156109fb5780820380516001836020036101000a031916815260200191505b5092505050602060405180830381600087803b158015610a1a57600080fd5b505af1158015610a2e573d6000803e3d6000fd5b505050506040513d6020811015610a4457600080fd5b50519050670de0b6b3a764000062030d403a0201811115610a695750600090506107de565b600080546040517fadf59f9900000000000000000000000000000000000000000000000000000000815260048101838152606060248301908152885160648401528851600160a060020a039094169463adf59f9994879491938b938b9391929091604481019160849091019060208701908083838b5b83811015610af7578181015183820152602001610adf565b50505050905090810190601f168015610b245780820380516001836020036101000a031916815260200191505b50838103825284518152845160209182019186019080838360005b83811015610b57578181015183820152602001610b3f565b50505050905090810190601f168015610b845780820380516001836020036101000a031916815260200191505b50955050505050506020604051808303818588803b158015610ba557600080fd5b505af1158015610bb9573d6000803e3d6000fd5b50505050506040513d6020811015610bd057600080fd5b5051949350505050565b3b90565b60006107de600080610c03731d3b2638a7cc9f2cb3d298a3da7a90b67e5506ed610bda565b1115610c745760018054600160a060020a031916731d3b2638a7cc9f2cb3d298a3da7a90b67e5506ed17905560408051808201909152600b81527f6574685f6d61696e6e65740000000000000000000000000000000000000000006020820152610c6c90610f8d565b5060016106b1565b6000610c9373c03a2615d5efaf5f49f60b7bb6583eaec212fdf1610bda565b1115610cfc5760018054600160a060020a03191673c03a2615d5efaf5f49f60b7bb6583eaec212fdf117905560408051808201909152600c81527f6574685f726f707374656e3300000000000000000000000000000000000000006020820152610c6c90610f8d565b6000610d1b73b7a07bcf2ba2f2703b24c0691b5278999c59ac7e610bda565b1115610d845760018054600160a060020a03191673b7a07bcf2ba2f2703b24c0691b5278999c59ac7e17905560408051808201909152600981527f6574685f6b6f76616e00000000000000000000000000000000000000000000006020820152610c6c90610f8d565b6000610da373146500cfd35b22e4a392fe0adc06de1a1368ed48610bda565b1115610e0c5760018054600160a060020a03191673146500cfd35b22e4a392fe0adc06de1a1368ed4817905560408051808201909152600b81527f6574685f72696e6b6562790000000000000000000000000000000000000000006020820152610c6c90610f8d565b6000610e2b73a2998efd205fb9d4b4963afb70778d6354ad3a41610bda565b1115610e945760018054600160a060020a03191673a2998efd205fb9d4b4963afb70778d6354ad3a4117905560408051808201909152600a81527f6574685f676f65726c69000000000000000000000000000000000000000000006020820152610c6c90610f8d565b6000610eb3736f485c8bf6fc43ea212e93bbf8ce046c7f1cb475610bda565b1115610ee5575060018054600160a060020a031916736f485c8bf6fc43ea212e93bbf8ce046c7f1cb4751781556106b1565b6000610f047320e12a1f859b3feae5fb2a0a32c18f5a65555bbf610bda565b1115610f36575060018054600160a060020a0319167320e12a1f859b3feae5fb2a0a32c18f5a65555bbf1781556106b1565b6000610f557351efaf4c8b3c9afbd5ab9f4bbc82784ab6ef8faa610bda565b1115610f87575060018054600160a060020a0319167351efaf4c8b3c9afbd5ab9f4bbc82784ab6ef8faa1781556106b1565b50600090565b8051610fa0906002906020840190610fa4565b5050565b828054600181600116156101000203166002900490600052602060002090601f016020900481019282601f10610fe557805160ff1916838001178555611012565b82800160010185558215611012579182015b82811115611012578251825591602001919060010190610ff7565b5061101e929150611022565b5090565b6106b191905b8082111561101e576000815560010161102856fea165627a7a723058208d9e5763bab52f5ee36b83575f23ea380ad6cb36581a828c31d655a0dda6a1210029",
  "source": "pragma solidity >= 0.5.0 < 0.6.0;\n\nimport \"./provableAPI.sol\";\n\ncontract DieselPrice is usingProvable {\n\n    uint public dieselPriceUSD;\n\n    event LogNewDieselPrice(string price);\n    event LogNewProvableQuery(string description);\n\n    constructor()\n    public\n    {\n        update(); // First check at contract creation...\n    }\n\n    function __callback(\n        bytes32 myid,\n        string memory result\n    )\n    public\n    {\n        require(msg.sender == provable_cbAddress());\n        emit LogNewDieselPrice(result);\n        dieselPriceUSD = parseInt(result, 2); // Let's save it as cents...\n        // Now do something with the USD Diesel price...\n    }\n\n    function update()\n    public\n    payable\n    {\n        emit LogNewProvableQuery(\"Provable query was sent, standing by for the answer...\");\n        provable_query(\"URL\", \"xml(https://www.fueleconomy.gov/ws/rest/fuelprices).fuelPrices.diesel\");\n    }\n}",
  "sourcePath": "/Users/marcosequeira/ttn-to-blockchain/ttnNodeApplication/contracts/UrlRequests.sol",
  "compiler": {
    "name": "solc",
    "version": "0.5.0+commit.1d4f565a.Emscripten.clang"
  },
  "schemaVersion": "3.0.1",
  "updatedAt": "2019-12-10T23:11:36.837Z",
  "devdoc": {
    "methods": {}
  },
  "userdoc": {
    "methods": {}
  }
}