{
  "contractName": "SensorData",
  "abi": [
    {
      "anonymous": false,
      "inputs": [
        {
          "indexed": false,
          "internalType": "int256",
          "name": "id",
          "type": "int256"
        },
        {
          "indexed": false,
          "internalType": "int256",
          "name": "temperature",
          "type": "int256"
        },
        {
          "indexed": false,
          "internalType": "int256",
          "name": "humidity",
          "type": "int256"
        },
        {
          "indexed": false,
          "internalType": "string",
          "name": "location",
          "type": "string"
        },
        {
          "indexed": false,
          "internalType": "int256",
          "name": "light",
          "type": "int256"
        },
        {
          "indexed": false,
          "internalType": "int256",
          "name": "battery",
          "type": "int256"
        },
        {
          "indexed": false,
          "internalType": "string",
          "name": "sensorEvent",
          "type": "string"
        },
        {
          "indexed": false,
          "internalType": "string",
          "name": "devId",
          "type": "string"
        },
        {
          "indexed": false,
          "internalType": "string",
          "name": "date",
          "type": "string"
        },
        {
          "indexed": false,
          "internalType": "string",
          "name": "logs",
          "type": "string"
        }
      ],
      "name": "dataFromSensorCreated",
      "type": "event"
    },
    {
      "constant": true,
      "inputs": [
        {
          "internalType": "int256",
          "name": "",
          "type": "int256"
        }
      ],
      "name": "dataFromSensorArray",
      "outputs": [
        {
          "internalType": "int256",
          "name": "id",
          "type": "int256"
        },
        {
          "internalType": "int256",
          "name": "temperature",
          "type": "int256"
        },
        {
          "internalType": "int256",
          "name": "humidity",
          "type": "int256"
        },
        {
          "internalType": "string",
          "name": "location",
          "type": "string"
        },
        {
          "internalType": "int256",
          "name": "light",
          "type": "int256"
        },
        {
          "internalType": "int256",
          "name": "battery",
          "type": "int256"
        },
        {
          "internalType": "string",
          "name": "sensorEvent",
          "type": "string"
        },
        {
          "internalType": "string",
          "name": "devId",
          "type": "string"
        },
        {
          "internalType": "string",
          "name": "date",
          "type": "string"
        },
        {
          "internalType": "string",
          "name": "logs",
          "type": "string"
        }
      ],
      "payable": false,
      "stateMutability": "view",
      "type": "function"
    },
    {
      "constant": true,
      "inputs": [
        {
          "internalType": "int256",
          "name": "",
          "type": "int256"
        }
      ],
      "name": "dataFromSensorErrorArray",
      "outputs": [
        {
          "internalType": "int256",
          "name": "id",
          "type": "int256"
        },
        {
          "internalType": "int256",
          "name": "temperature",
          "type": "int256"
        },
        {
          "internalType": "int256",
          "name": "humidity",
          "type": "int256"
        },
        {
          "internalType": "string",
          "name": "location",
          "type": "string"
        },
        {
          "internalType": "int256",
          "name": "light",
          "type": "int256"
        },
        {
          "internalType": "int256",
          "name": "battery",
          "type": "int256"
        },
        {
          "internalType": "string",
          "name": "sensorEvent",
          "type": "string"
        },
        {
          "internalType": "string",
          "name": "devId",
          "type": "string"
        },
        {
          "internalType": "string",
          "name": "date",
          "type": "string"
        },
        {
          "internalType": "string",
          "name": "logs",
          "type": "string"
        }
      ],
      "payable": false,
      "stateMutability": "view",
      "type": "function"
    },
    {
      "constant": true,
      "inputs": [],
      "name": "dataId",
      "outputs": [
        {
          "internalType": "int256",
          "name": "",
          "type": "int256"
        }
      ],
      "payable": false,
      "stateMutability": "view",
      "type": "function"
    },
    {
      "constant": true,
      "inputs": [],
      "name": "dataIdError",
      "outputs": [
        {
          "internalType": "int256",
          "name": "",
          "type": "int256"
        }
      ],
      "payable": false,
      "stateMutability": "view",
      "type": "function"
    },
    {
      "constant": true,
      "inputs": [],
      "name": "humidityHigh",
      "outputs": [
        {
          "internalType": "int256",
          "name": "",
          "type": "int256"
        }
      ],
      "payable": false,
      "stateMutability": "view",
      "type": "function"
    },
    {
      "constant": true,
      "inputs": [],
      "name": "humidityLow",
      "outputs": [
        {
          "internalType": "int256",
          "name": "",
          "type": "int256"
        }
      ],
      "payable": false,
      "stateMutability": "view",
      "type": "function"
    },
    {
      "constant": true,
      "inputs": [],
      "name": "temperatureHigh",
      "outputs": [
        {
          "internalType": "int256",
          "name": "",
          "type": "int256"
        }
      ],
      "payable": false,
      "stateMutability": "view",
      "type": "function"
    },
    {
      "constant": true,
      "inputs": [],
      "name": "temperatureLow",
      "outputs": [
        {
          "internalType": "int256",
          "name": "",
          "type": "int256"
        }
      ],
      "payable": false,
      "stateMutability": "view",
      "type": "function"
    },
    {
      "constant": false,
      "inputs": [
        {
          "internalType": "int256",
          "name": "_temperature",
          "type": "int256"
        },
        {
          "internalType": "int256",
          "name": "_humidity",
          "type": "int256"
        },
        {
          "internalType": "string",
          "name": "_location",
          "type": "string"
        },
        {
          "internalType": "int256",
          "name": "_light",
          "type": "int256"
        },
        {
          "internalType": "int256",
          "name": "_battery",
          "type": "int256"
        },
        {
          "internalType": "string",
          "name": "_sensorEvent",
          "type": "string"
        },
        {
          "internalType": "string",
          "name": "_devId",
          "type": "string"
        },
        {
          "internalType": "string",
          "name": "_date",
          "type": "string"
        },
        {
          "internalType": "string",
          "name": "_logs",
          "type": "string"
        }
      ],
      "name": "createDataSensor",
      "outputs": [],
      "payable": false,
      "stateMutability": "nonpayable",
      "type": "function"
    },
    {
      "constant": false,
      "inputs": [],
      "name": "getTaskCount",
      "outputs": [
        {
          "internalType": "int256",
          "name": "",
          "type": "int256"
        }
      ],
      "payable": false,
      "stateMutability": "nonpayable",
      "type": "function"
    },
    {
      "constant": false,
      "inputs": [
        {
          "internalType": "int256",
          "name": "_humidity",
          "type": "int256"
        }
      ],
      "name": "validateHumidityRange",
      "outputs": [
        {
          "internalType": "bool",
          "name": "",
          "type": "bool"
        }
      ],
      "payable": false,
      "stateMutability": "nonpayable",
      "type": "function"
    },
    {
      "constant": false,
      "inputs": [
        {
          "internalType": "int256",
          "name": "_humidity",
          "type": "int256"
        }
      ],
      "name": "validateHumidityStep",
      "outputs": [
        {
          "internalType": "bool",
          "name": "",
          "type": "bool"
        }
      ],
      "payable": false,
      "stateMutability": "nonpayable",
      "type": "function"
    },
    {
      "constant": false,
      "inputs": [
        {
          "internalType": "int256",
          "name": "_humidity",
          "type": "int256"
        }
      ],
      "name": "validateHumidityInternalConsistencyTest",
      "outputs": [
        {
          "internalType": "bool",
          "name": "",
          "type": "bool"
        }
      ],
      "payable": false,
      "stateMutability": "nonpayable",
      "type": "function"
    },
    {
      "constant": false,
      "inputs": [
        {
          "internalType": "int256",
          "name": "_humidity",
          "type": "int256"
        }
      ],
      "name": "validateHumidityPersistenceTest",
      "outputs": [
        {
          "internalType": "bool",
          "name": "",
          "type": "bool"
        }
      ],
      "payable": false,
      "stateMutability": "nonpayable",
      "type": "function"
    },
    {
      "constant": false,
      "inputs": [
        {
          "internalType": "int256",
          "name": "_temperature",
          "type": "int256"
        }
      ],
      "name": "validateTemperatureRange",
      "outputs": [
        {
          "internalType": "bool",
          "name": "",
          "type": "bool"
        }
      ],
      "payable": false,
      "stateMutability": "nonpayable",
      "type": "function"
    },
    {
      "constant": false,
      "inputs": [
        {
          "internalType": "int256",
          "name": "_temperature",
          "type": "int256"
        }
      ],
      "name": "validateTemperatureStep",
      "outputs": [
        {
          "internalType": "bool",
          "name": "",
          "type": "bool"
        }
      ],
      "payable": false,
      "stateMutability": "nonpayable",
      "type": "function"
    },
    {
      "constant": false,
      "inputs": [
        {
          "internalType": "int256",
          "name": "_temperature",
          "type": "int256"
        }
      ],
      "name": "validateTemperatureInternalConsistencyTest",
      "outputs": [
        {
          "internalType": "bool",
          "name": "",
          "type": "bool"
        }
      ],
      "payable": false,
      "stateMutability": "nonpayable",
      "type": "function"
    },
    {
      "constant": false,
      "inputs": [
        {
          "internalType": "int256",
          "name": "_temperature",
          "type": "int256"
        }
      ],
      "name": "validateTemperaturePersistenceTest",
      "outputs": [
        {
          "internalType": "bool",
          "name": "",
          "type": "bool"
        }
      ],
      "payable": false,
      "stateMutability": "nonpayable",
      "type": "function"
    },
    {
      "constant": false,
      "inputs": [],
      "name": "getMeanTemperatureDaily",
      "outputs": [
        {
          "internalType": "int256",
          "name": "",
          "type": "int256"
        }
      ],
      "payable": false,
      "stateMutability": "nonpayable",
      "type": "function"
    },
    {
      "constant": false,
      "inputs": [],
      "name": "getMaxTemperatureDaily",
      "outputs": [
        {
          "internalType": "int256",
          "name": "",
          "type": "int256"
        }
      ],
      "payable": false,
      "stateMutability": "nonpayable",
      "type": "function"
    },
    {
      "constant": false,
      "inputs": [],
      "name": "getMinTemperatureDaily",
      "outputs": [
        {
          "internalType": "int256",
          "name": "",
          "type": "int256"
        }
      ],
      "payable": false,
      "stateMutability": "nonpayable",
      "type": "function"
    },
    {
      "constant": false,
      "inputs": [],
      "name": "getMinTemperatureDayBefore",
      "outputs": [
        {
          "internalType": "int256",
          "name": "",
          "type": "int256"
        }
      ],
      "payable": false,
      "stateMutability": "nonpayable",
      "type": "function"
    },
    {
      "constant": false,
      "inputs": [],
      "name": "getMaxTemperatureDayBefore",
      "outputs": [
        {
          "internalType": "int256",
          "name": "",
          "type": "int256"
        }
      ],
      "payable": false,
      "stateMutability": "nonpayable",
      "type": "function"
    },
    {
      "constant": false,
      "inputs": [],
      "name": "getMaxTemperature",
      "outputs": [
        {
          "internalType": "int256",
          "name": "",
          "type": "int256"
        }
      ],
      "payable": false,
      "stateMutability": "nonpayable",
      "type": "function"
    },
    {
      "constant": false,
      "inputs": [],
      "name": "getMinTemperature",
      "outputs": [
        {
          "internalType": "int256",
          "name": "",
          "type": "int256"
        }
      ],
      "payable": false,
      "stateMutability": "nonpayable",
      "type": "function"
    },
    {
      "constant": false,
      "inputs": [],
      "name": "getMaxHumidity",
      "outputs": [
        {
          "internalType": "int256",
          "name": "",
          "type": "int256"
        }
      ],
      "payable": false,
      "stateMutability": "nonpayable",
      "type": "function"
    },
    {
      "constant": false,
      "inputs": [],
      "name": "getMinHumidity",
      "outputs": [
        {
          "internalType": "int256",
          "name": "",
          "type": "int256"
        }
      ],
      "payable": false,
      "stateMutability": "nonpayable",
      "type": "function"
    }
  ],
  "bytecode": "0x6080604052600080556000600155601d196002556032600355600019600455606760055534801561002f57600080fd5b50611e1d8061003f6000396000f3fe608060405234801561001057600080fd5b50600436106101a95760003560e01c806392c9a502116100f9578063c17a340e11610097578063c8a663ec11610071578063c8a663ec14610832578063ec42f4571461083a578063ed82f05714610842578063f86997371461085f576101a9565b8063c17a340e1461053a578063c541e61814610542578063c7c35ed614610815576101a9565b8063aa48c4d9116100d3578063aa48c4d914610505578063ad61a9281461050d578063b13c5c1714610515578063bf964bc914610532576101a9565b806392c9a502146104ed57806399660d03146104f55780639eefc5a6146104fd576101a9565b806359a5885b1161016657806367913e5b1161014057806367913e5b1461048e57806377bdb186146104ab5780637e8e792f146104b35780638f30ebdc146104d0576101a9565b806359a5885b146102195780635cbd274f1461046957806361dc6d7314610486576101a9565b806307bffff7146101ae578063162c8c2b146101c85780631c7bd829146101d05780631fdd1bf2146101d857806342614fcb146101e05780635668cd4d146101e8575b600080fd5b6101b661087c565b60408051918252519081900360200190f35b6101b6610882565b6101b66108d7565b6101b661091f565b6101b661096d565b610205600480360360208110156101fe57600080fd5b50356109bc565b604080519115158252519081900360200190f35b6102366004803603602081101561022f57600080fd5b50356109f5565b604051808b81526020018a8152602001898152602001806020018881526020018781526020018060200180602001806020018060200186810386528d818151815260200191508051906020019080838360005b838110156102a1578181015183820152602001610289565b50505050905090810190601f1680156102ce5780820380516001836020036101000a031916815260200191505b5086810385528a5181528a516020918201918c019080838360005b838110156103015781810151838201526020016102e9565b50505050905090810190601f16801561032e5780820380516001836020036101000a031916815260200191505b5086810384528951815289516020918201918b019080838360005b83811015610361578181015183820152602001610349565b50505050905090810190601f16801561038e5780820380516001836020036101000a031916815260200191505b5086810383528851815288516020918201918a019080838360005b838110156103c15781810151838201526020016103a9565b50505050905090810190601f1680156103ee5780820380516001836020036101000a031916815260200191505b50868103825287518152875160209182019189019080838360005b83811015610421578181015183820152602001610409565b50505050905090810190601f16801561044e5780820380516001836020036101000a031916815260200191505b509f5050505050505050505050505050505060405180910390f35b6102056004803603602081101561047f57600080fd5b5035610d17565b6101b6610d96565b610205600480360360208110156104a457600080fd5b5035610dd3565b6101b6610ed6565b610236600480360360208110156104c957600080fd5b5035610edc565b610205600480360360208110156104e657600080fd5b5035610f6f565b6101b6610fe4565b6101b661102d565b6101b6611075565b6101b66110c4565b6101b66110ca565b6102056004803603602081101561052b57600080fd5b5035611113565b6101b6611133565b6101b6611139565b610813600480360361012081101561055957600080fd5b813591602081013591810190606081016040820135600160201b81111561057f57600080fd5b82018360208201111561059157600080fd5b803590602001918460018302840111600160201b831117156105b257600080fd5b91908080601f0160208091040260200160405190810160405280939291908181526020018383808284376000920191909152509295843595602086013595919450925060608101915060400135600160201b81111561061057600080fd5b82018360208201111561062257600080fd5b803590602001918460018302840111600160201b8311171561064357600080fd5b91908080601f0160208091040260200160405190810160405280939291908181526020018383808284376000920191909152509295949360208101935035915050600160201b81111561069557600080fd5b8201836020820111156106a757600080fd5b803590602001918460018302840111600160201b831117156106c857600080fd5b91908080601f0160208091040260200160405190810160405280939291908181526020018383808284376000920191909152509295949360208101935035915050600160201b81111561071a57600080fd5b82018360208201111561072c57600080fd5b803590602001918460018302840111600160201b8311171561074d57600080fd5b91908080601f0160208091040260200160405190810160405280939291908181526020018383808284376000920191909152509295949360208101935035915050600160201b81111561079f57600080fd5b8201836020820111156107b157600080fd5b803590602001918460018302840111600160201b831117156107d257600080fd5b91908080601f0160208091040260200160405190810160405280939291908181526020018383808284376000920191909152509295506111a5945050505050565b005b6102056004803603602081101561082b57600080fd5b5035611c3a565b6101b6611cfc565b6101b6611d02565b6102056004803603602081101561085857600080fd5b5035611d08565b6102056004803603602081101561087557600080fd5b5035611d28565b60025481565b600061271060015b601881136108d057600080548290038152600660205260409020600101548213156108c8576000805482900381526006602052604090206001015491505b60010161088a565b5090505b90565b600061270f1960015b60005481136108d0576000818152600660205260409020600101548212156109175760008181526006602052604090206001015491505b6001016108e0565b600061271060185b603081136108d05760008054829003815260066020526040902060010154821315610965576000805482900381526006602052604090206001015491505b600101610927565b600061270f1960185b603081136108d057600080548290038152600660205260409020600101548212156109b4576000805482900381526006602052604090206001015491505b600101610976565b6000600160005413156109ec5760008054815260066020526040902060020154602d13156109ec575060016109f0565b5060005b919050565b6007602052806000526040600020600091509050806000015490806001015490806002015490806003018054600181600116156101000203166002900480601f016020809104026020016040519081016040528092919081815260200182805460018160011615610100020316600290048015610ab35780601f10610a8857610100808354040283529160200191610ab3565b820191906000526020600020905b815481529060010190602001808311610a9657829003601f168201915b505050505090806004015490806005015490806006018054600181600116156101000203166002900480601f016020809104026020016040519081016040528092919081815260200182805460018160011615610100020316600290048015610b5d5780601f10610b3257610100808354040283529160200191610b5d565b820191906000526020600020905b815481529060010190602001808311610b4057829003601f168201915b5050505060078301805460408051602060026001851615610100026000190190941693909304601f8101849004840282018401909252818152949594935090830182828015610bed5780601f10610bc257610100808354040283529160200191610bed565b820191906000526020600020905b815481529060010190602001808311610bd057829003601f168201915b5050505060088301805460408051602060026001851615610100026000190190941693909304601f8101849004840282018401909252818152949594935090830182828015610c7d5780601f10610c5257610100808354040283529160200191610c7d565b820191906000526020600020905b815481529060010190602001808311610c6057829003601f168201915b5050505060098301805460408051602060026001851615610100026000190190941693909304601f8101849004840282018401909252818152949594935090830182828015610d0d5780601f10610ce257610100808354040283529160200191610d0d565b820191906000526020600020905b815481529060010190602001808311610cf057829003601f168201915b505050505090508a565b6000600360005413610d2b575060016109f0565b60008054600019018152600660205260409020600101548214801590610d67575060008054600119018152600660205260409020600101548214155b8015610d89575060008054600219018152600660205260409020600101548214155b156109ec575060016109f0565b6000808060015b60188113610dc857600080548290038152600660205260409020600190810154929092019101610d9d565b506018900592915050565b600080548190601813610ec3576000610dea610d96565b90506000610df6611075565b90506000610e02610882565b9050600080808585138015610e1657508386135b15610e2057600192505b60018315151415610e9d576000610e3561091f565b90506000610e4161096d565b90508187138015610e525750808613155b15610e5c57600193505b60018415151415610e9a576000610e716110ca565b90506000610e7d6108d7565b90508c89138015610e8d57508c88125b15610e9757600194505b50505b50505b60018115151415610eb85760019750505050505050506109f0565b505050505050610ecd565b60019150506109f0565b50600092915050565b60015481565b6006602052806000526040600020600091509050806000015490806001015490806002015490806003018054600181600116156101000203166002900480601f016020809104026020016040519081016040528092919081815260200182805460018160011615610100020316600290048015610ab35780601f10610a8857610100808354040283529160200191610ab3565b6000604860005413156109ec5760008054601619018152600660205260409020600201548214801590610fb8575060008054602e19018152600660205260409020600201548214155b8015610d895750600080546046190181526006602052604090206002015482146109ec575060016109f0565b600061271060015b60005481136108d05760008054815260066020526040902060020154821315611025576000805481526006602052604090206002015491505b600101610fec565b600061270f1960015b60005481136108d05760008181526006602052604090206002015482121561106d5760008181526006602052604090206002015491505b600101611036565b600061270f1960015b601881136108d057600080548290038152600660205260409020600101548212156110bc576000805482900381526006602052604090206001015491505b60010161107e565b60045481565b600061271060015b60005481136108d0576000805481526006602052604090206001015482131561110b576000805481526006602052604090206001015491505b6001016110d2565b60006004548212158015610d89575060055482136109ec575060016109f0565b60055481565b6000306001600160a01b031663c8a663ec6040518163ffffffff1660e01b815260040160206040518083038186803b15801561117457600080fd5b505afa158015611188573d6000803e3d6000fd5b505050506040513d602081101561119e57600080fd5b5051905090565b600080606060006111b58d611d08565b9050600181151514156112595760006111cd8e611c3a565b9050600181151514156112245760006111e58f610dd3565b905060018115151415611202576111fb8f610d17565b955061121e565b604051806060016040528060228152602001611dc76022913993505b50611253565b604051806040016040528060138152602001721d195b5c195c985d1d5c9954dd195c15195cdd606a1b81525092505b50611289565b604051806040016040528060148152602001731d195b5c195c985d1d5c9954985b99d955195cdd60621b81525091505b60006112948d611113565b9050600181151514156113525760006112ac8e6109bc565b9050600181151514156113205760006112c48f611d28565b9050600181151514156112e1576112da8f610f6f565b955061131a565b6040518060400160405280601781526020017f68756d696469747950657273697374656e63655465737400000000000000000081525094505b5061134c565b6040518060400160405280601081526020016f1a1d5b5a591a5d1e54dd195c15195cdd60821b81525093505b5061137f565b604051806040016040528060118152602001701a1d5b5a591a5d1e54985b99d955195cdd607a1b81525092505b600185151514156116f657600080815480929190600101919050555060405180610140016040528060005481526020018f81526020018e81526020018d81526020018c81526020018b81526020018a8152602001898152602001888152602001604051806040016040528060078152602001667375636365737360c81b81525081525060066000805481526020019081526020016000206000820151816000015560208201518160010155604082015181600201556060820151816003019080519060200190611450929190611d2e565b506080820151600482015560a0820151600582015560c08201518051611480916006840191602090910190611d2e565b5060e0820151805161149c916007840191602090910190611d2e565b5061010082015180516114b9916008840191602090910190611d2e565b5061012082015180516114d6916009840191602090910190611d2e565b509050507f12290b5f6337d8c62bc7af0d0342a9368b99569bb96c92772e56867bf3309fac6000548f8f8f8f8f8f8f8f604051808a8152602001898152602001888152602001806020018781526020018681526020018060200180602001806020018060200186810386528c818151815260200191508051906020019080838360005b83811015611571578181015183820152602001611559565b50505050905090810190601f16801561159e5780820380516001836020036101000a031916815260200191505b5086810385528951815289516020918201918b019080838360005b838110156115d15781810151838201526020016115b9565b50505050905090810190601f1680156115fe5780820380516001836020036101000a031916815260200191505b5086810384528851815288516020918201918a019080838360005b83811015611631578181015183820152602001611619565b50505050905090810190601f16801561165e5780820380516001836020036101000a031916815260200191505b50868103835287518152875160209182019189019080838360005b83811015611691578181015183820152602001611679565b50505050905090810190601f1680156116be5780820380516001836020036101000a031916815260200191505b5095860390525050600783525050667375636365737360c81b60208201526040805191829003019950975050505050505050a1611a8c565b60016000815480929190600101919050555060405180610140016040528060005481526020018f81526020018e81526020018d81526020018c81526020018b81526020018a81526020018981526020018881526020016040518060400160405280601c81526020017f74656d70657261747572652070657273697374656e636520746573740000000081525081525060076000600154815260200190815260200160002060008201518160000155602082015181600101556040820151816002015560608201518160030190805190602001906117d4929190611d2e565b506080820151600482015560a0820151600582015560c08201518051611804916006840191602090910190611d2e565b5060e08201518051611820916007840191602090910190611d2e565b50610100820151805161183d916008840191602090910190611d2e565b50610120820151805161185a916009840191602090910190611d2e565b509050507f12290b5f6337d8c62bc7af0d0342a9368b99569bb96c92772e56867bf3309fac6000548f8f8f8f8f8f8f8f604051808a8152602001898152602001888152602001806020018781526020018681526020018060200180602001806020018060200186810386528c818151815260200191508051906020019080838360005b838110156118f55781810151838201526020016118dd565b50505050905090810190601f1680156119225780820380516001836020036101000a031916815260200191505b5086810385528951815289516020918201918b019080838360005b8381101561195557818101518382015260200161193d565b50505050905090810190601f1680156119825780820380516001836020036101000a031916815260200191505b5086810384528851815288516020918201918a019080838360005b838110156119b557818101518382015260200161199d565b50505050905090810190601f1680156119e25780820380516001836020036101000a031916815260200191505b50868103835287518152875160209182019189019080838360005b83811015611a155781810151838201526020016119fd565b50505050905090810190601f168015611a425780820380516001836020036101000a031916815260200191505b5095860390525050601c835250507f74656d70657261747572652070657273697374656e636520746573740000000060208201526040805191829003019950975050505050505050a15b5050611c2c565b83811015611aab578181015183820152602001611a93565b50505050905090810190601f168015611ad85780820380516001836020036101000a031916815260200191505b5086810385528951815289516020918201918b019080838360005b83811015611b0b578181015183820152602001611af3565b50505050905090810190601f168015611b385780820380516001836020036101000a031916815260200191505b5086810384528851815288516020918201918a019080838360005b83811015611b6b578181015183820152602001611b53565b50505050905090810190601f168015611b985780820380516001836020036101000a031916815260200191505b50868103835287518152875160209182019189019080838360005b83811015611bcb578181015183820152602001611bb3565b50505050905090810190601f168015611bf85780820380516001836020036101000a031916815260200191505b5095860390525050600783525050666261747465727960c81b60208201526040805191829003019950975050505050505050a15b505050505050505050505050565b6000600c60005412611cf4576000805480825260066020526040808320600190810154600019840185528285208201546001198501865283862083015460041986018752848720840154600a1990960187529390952090910154909392906004858803128015611cac57506007848803125b8015611cd3575060098388031280611cc65750600f828803125b80611cd357506019818803125b15611ce6576001955050505050506109f0565b6000955050505050506109f0565b5060016109f0565b60005481565b60035481565b60006002548212158015610d89575060035482136109ec575060016109f0565b50600190565b828054600181600116156101000203166002900490600052602060002090601f016020900481019282601f10611d6f57805160ff1916838001178555611d9c565b82800160010185558215611d9c579182015b82811115611d9c578251825591602001919060010190611d81565b50611da8929150611dac565b5090565b6108d491905b80821115611da85760008155600101611db256fe74656d7065726174757265496e7465726e616c436f6e73697374656e637954657374a265627a7a72315820a09dcb668087d85a5c4bdbeeadf0ffa4c7ad8a6dc64ebfed512cce2dde24e6f364736f6c63430005100032",
  "source": "pragma solidity ^0.5.0;\n\ncontract SensorData {\n    int public dataId = 0;\n    int public dataIdError = 0;\n\n    //TEMPERATURE RANGE VARIABLES\n    int public temperatureLow = -30;\n    int public temperatureHigh = 50;\n\n    //HUMIDITY RANGE VARIABLES\n    //int public humidityLow = 0.8;\n    int public humidityLow = -1;\n    int public humidityHigh = 103;\n\n    struct dataFromSensor {\n        int id;\n        int temperature;\n        int humidity; //it could be fixed (int), but it isn't implemented yet in solidity (with fixed type it not compile and not migrate)\n        string location;\n        int light;\n        int battery;\n        string sensorEvent;\n        string devId;\n        string date;\n        string logs;\n    }\n\n    mapping (int => dataFromSensor) public dataFromSensorArray; //associative array/hash, where key is a unsigned int and the array's content is a instance of Task\n    mapping (int => dataFromSensor) public dataFromSensorErrorArray; //associative array/hash, where key is a unsigned int and the array's content is a instance of Task\n\n    //EVENT WHEN DATA SENSOR IS CREATED\n    event dataFromSensorCreated(\n        int id,\n        int temperature,\n        int humidity,\n        string location,\n        int light,\n        int battery,\n        string sensorEvent,\n        string devId,\n        string date,\n        string logs\n    );\n\n    function createDataSensor (int _temperature, int _humidity, string memory _location, int _light, \n        int _battery, string memory _sensorEvent, string memory _devId, string memory _date, string memory _logs) public {\n\n        //VARIABLE TO CONTROL VALIDATIONS\n        bool temperaturePersistenceTest = false;\n        bool humidityPersistenceTest =false;\n        string memory auxLog;\n\n        //VALIDATE RECORD ONLY IF ALREADY EXIST DATA SAVED\n        //if(dataId >= 1 && _battery > 0) {\n        if(true) {\n            //--------------\n            //--RANGE TEST--\n            //--------------\n            bool temperatureRangeTest = validateTemperatureRange(_temperature);\n\n            if (temperatureRangeTest == true) {\n                //-------------\n                //--STEP TEST--\n                //-------------\n                bool temperatureStepTest = validateTemperatureStep(_temperature);\n\n                if(temperatureStepTest == true) {\n                    //-----------------------------\n                    //--INTERNAL CONSISTENCY TEST--\n                    //-----------------------------\n                    bool temperatureInternalConsistencyTest = validateTemperatureInternalConsistencyTest(_temperature);\n\n                    if(temperatureInternalConsistencyTest == true) {\n                        //-----------------------------\n                        //-------PERSISTENCE TEST------\n                        //-----------------------------\n\n                        temperaturePersistenceTest = validateTemperaturePersistenceTest(_temperature);\n                    }\n                    else {\n                        auxLog = \"temperatureInternalConsistencyTest\";\n                    }\n                }\n                else {\n                    auxLog = \"temperatureStepTest\";\n                }\n            }\n            else {\n                auxLog = \"temperatureRangeTest\";\n            }\n\n            //--------------\n            //--RANGE TEST--\n            //--------------\n            bool humidityRangeTest = validateHumidityRange(_humidity);\n\n            if (humidityRangeTest == true) {\n                //-------------\n                //--STEP TEST--\n                //-------------\n                bool humidityStepTest = validateHumidityStep(_humidity);\n\n                if(humidityStepTest == true) {\n                    //-----------------------------\n                    //--INTERNAL CONSISTENCY TEST--\n                    //-----------------------------\n                    bool humidityInternalConsistencyTest = validateHumidityInternalConsistencyTest(_humidity);\n\n                    if(humidityInternalConsistencyTest == true) {\n                        //-----------------------------\n                        //-------PERSISTENCE TEST------\n                        //-----------------------------\n\n                        humidityPersistenceTest = validateHumidityPersistenceTest(_humidity);\n                    }\n                    else {\n                        auxLog = \"humidityPersistenceTest\";\n                    }\n                }\n                else {\n                    auxLog = \"humidityStepTest\";\n                }\n            }\n            else {\n                auxLog = \"humidityRangeTest\";\n            }\n\n\n            //if(temperaturePersistenceTest == true && humidityPersistenceTest == true) {\n            if(temperaturePersistenceTest == true) {\n                //DATA ID\n                dataId ++;\n\n                //add a instance of dataFromSensor to dataFromSensorArray\n                dataFromSensorArray[dataId] = dataFromSensor(dataId, _temperature, _humidity, _location, _light, _battery, _sensorEvent, _devId, _date, \"success\");\n\n                emit dataFromSensorCreated(dataId, _temperature, _humidity, _location, _light, _battery, _sensorEvent, _devId, _date, \"success\");\n            }\n            else {\n                //TODO: CREATE FUNCTION TO ADD VALUES TO ARRAY\n                //DATA ID\n                dataIdError ++;\n\n                //add a instance of dataFromSensor to dataFromSensorArray\n                dataFromSensorErrorArray[dataIdError] = dataFromSensor(dataId, _temperature, _humidity, _location, _light, _battery, _sensorEvent, _devId, _date, \"temperature persistence test\");\n\n                emit dataFromSensorCreated(dataId, _temperature, _humidity, _location, _light, _battery, _sensorEvent, _devId, _date, \"temperature persistence test\");\n            }\n        }\n\n        else {\n            //DATA ID\n            dataIdError ++;\n\n            //add a instance of dataFromSensor to dataFromSensorArray\n            dataFromSensorErrorArray[dataIdError] = dataFromSensor(dataId, _temperature, _humidity, _location, _light, _battery, _sensorEvent, _devId, _date, \"battery\");\n\n            emit dataFromSensorCreated(dataId, _temperature, _humidity, _location, _light, _battery, _sensorEvent, _devId, _date, \"battery\");\n        }\n\n        /**\n        if(_battery > 0 && validateValues == true) { //IF IS A VALID RECORD SAVE THIS ON CORRECT DATA ARRAY\n            //DATA ID\n            dataId ++;\n\n            //add a instance of dataFromSensor to dataFromSensorArray\n            dataFromSensorArray[dataId] = dataFromSensor(dataId, _temperature, _humidity, _location, _light, _battery, _sensorEvent, _devId, _date);\n\n            emit dataFromSensorCreated(dataId, _temperature, _humidity, _location, _light, _battery, _sensorEvent, _devId, _date);\n        }\n        else { //IF IS A ERROR, SAVE THIS RECORD ON ERROR'S ARRAY\n            //DATA ID\n            dataIdError ++;\n\n            //add a instance of dataFromSensor to dataFromSensorArray\n            dataFromSensorErrorArray[dataIdError] = dataFromSensor(dataId, _temperature, _humidity, _location, _light, _battery, _sensorEvent, _devId, _date);\n\n            emit dataFromSensorCreated(dataId, _temperature, _humidity, _location, _light, _battery, _sensorEvent, _devId, _date);\n        }\n        */\n    }\n\n    function getTaskCount() public returns (int) {\n        return this.dataId();\n    }\n\n\n    //---------------------------------\n    //-------HUMIDITY VALIDATIONS------\n    //---------------------------------\n\n    function validateHumidityRange(int _humidity) public returns (bool) {\n        if(_humidity >= humidityLow && _humidity <= humidityHigh)\n            return true;\n\n        else\n            return false;\n    }\n\n    function validateHumidityStep(int _humidity) public returns (bool) {\n        if (dataId > 1) {\n            if(dataFromSensorArray[dataId].humidity < 45) //TODO: THIS VALUE SHOULD BE SEMI HOURLY\n                return true;\n\n            else\n                return false;\n        }\n        else\n            return false;\n    }\n\n    function validateHumidityInternalConsistencyTest (int _humidity) public returns (bool) {\n        //RHx > RHm > RHn\n\n        //RHx > max (RHsh);\n        //RHn < min (RHsh)\n\n\n        return true;\n    }\n\n    function validateHumidityPersistenceTest(int _humidity) public returns (bool) {\n        if (dataId > 72) {\n\n            //RH(d) != RH(d-1) != RH(d-2)\n            if(_humidity != dataFromSensorArray[dataId - 23].humidity && _humidity != dataFromSensorArray[dataId - 47].humidity && _humidity != dataFromSensorArray[dataId - 71].humidity)\n                return true;\n\n            else\n                return false;\n        } else\n            return false;\n    }\n\n    //#################################\n    //#################################\n    //#################################\n\n    //---------------------------------\n    //-----TEMPERATURE VALIDATIONS-----\n    //---------------------------------\n\n    function validateTemperatureRange(int _temperature) public returns (bool) {\n        if(_temperature >= temperatureLow && _temperature <= temperatureHigh)\n            return true;\n\n        else\n            return false;\n    }\n\n    function validateTemperatureStep (int _temperature) public returns (bool) {\n        //IN ALGORITHM IS CONSIDERED SEMI HOURLY VALUES, BUT IS IN SETS OF TWO (IT MEANS HOURLY LIKE OUR DATASET)\n        if(dataId >= 12) {\n            int temperatureAtLastHour = dataFromSensorArray[dataId].temperature;\n            int temperatureAtTwoHoursAgo = dataFromSensorArray[dataId-1].temperature;\n            int temperatureAtThreeHoursAgo = dataFromSensorArray[dataId-2].temperature;\n            int temperatureAtSixHoursAgo = dataFromSensorArray[dataId-5].temperature;\n            int temperatureAtTwelveHoursAgo = dataFromSensorArray[dataId-11].temperature;\n\n            //TODO:MODULE CALCS\n            if((_temperature-temperatureAtLastHour) < 4 && (_temperature-temperatureAtTwoHoursAgo) < 7\n                && ((_temperature-temperatureAtThreeHoursAgo) < 9 || (_temperature-temperatureAtSixHoursAgo) < 15\n                || (_temperature-temperatureAtTwelveHoursAgo) < 25))\n            {\n                return true;\n            }\n\n            else\n                return false;\n        }\n        else\n            return true;\n    }\n\n    function validateTemperatureInternalConsistencyTest (int _temperature) public returns (bool) {\n        int auxSum = 0;\n\n        if(dataId >= 24) {\n            int meanTemperatureDaily = getMeanTemperatureDaily();\n            int maxTemperatureDaily = getMaxTemperatureDaily();\n            int minTemperatureDaily = getMinTemperatureDaily();\n\n            //FIRST VERIFICATION\n            //Tx => Daily maximum temperature\n            //Tm => Daily mean temperature\n            //Tn => Daily minimum temperature\n            //Tx > Tm > Tn\n            bool firstVerification = false;\n            bool secondVerification = false;\n            bool thirdVerification = false;\n\n            if(maxTemperatureDaily > meanTemperatureDaily && meanTemperatureDaily > minTemperatureDaily)\n                firstVerification = true;\n\n            if(firstVerification == true) {\n                //SECOND VERIFICATION\n                //Tx(d) > Tn(d-1)\n                //Tn(d) <= Tx(d-1)\n                int minTemperatureDayBefore = getMinTemperatureDayBefore();\n                int maxTemperatureDayBefore = getMaxTemperatureDayBefore();\n\n                if(maxTemperatureDaily > minTemperatureDayBefore && minTemperatureDaily <= maxTemperatureDayBefore)\n                    secondVerification = true;\n\n                if(secondVerification == true) {\n                    //THIRD VERIFICATION\n                    //Tx > max(Tsh) - ADAPTED TO HOURLY VALUES, BECAUSE DATA SET HAS ONLY HOURLY VALUES\n                    //Tn < min(Tsh) - ADAPTED TO HOURLY VALUES, BECAUSE DATA SET HAS ONLY HOURLY VALUES\n                    int minTemperature = getMinTemperature();\n                    int maxTemperature = getMaxTemperature();\n\n                    if(maxTemperatureDaily > _temperature && minTemperatureDaily < _temperature)\n                        thirdVerification = true;\n                }\n            }\n\n            if(thirdVerification == true)\n                return true;\n        }\n\n        else\n            return true;\n\n        return false;\n    }\n\n    function validateTemperaturePersistenceTest (int _temperature) public returns (bool) {\n        //T(d) != T(d-1) != T(d-2); - NOT USED, OUR DATA IS HOURLY\n        //Tsh != Tsh-2 != Tsh-4 != Tsh-6 - ADAPTED TO HOURLY VALUES, BECAUSE DATA SET HAS ONLY HOURLY VALUES\n\n        if(dataId <= 3)\n            return true;\n\n        if(_temperature != dataFromSensorArray[dataId - 1].temperature && _temperature != dataFromSensorArray[dataId - 2].temperature && _temperature != dataFromSensorArray[dataId - 3].temperature)\n            return true;\n\n        return false;\n    }\n\n    function getMeanTemperatureDaily () public returns (int) {\n        int meanDailyTemperature;\n        int auxSum = 0;\n\n        for(int i = 1; i <= 24; i++) {\n            auxSum += dataFromSensorArray[dataId - i].temperature;\n        }\n\n        meanDailyTemperature = auxSum/24;\n\n        return meanDailyTemperature;\n    }\n\n    function getMaxTemperatureDaily () public returns (int) {\n        int maxTemperatureDaily = -10000;\n\n        for(int i = 1; i <= 24; i++) {\n            if(dataFromSensorArray[dataId - i].temperature > maxTemperatureDaily)\n                maxTemperatureDaily = dataFromSensorArray[dataId - i].temperature;\n        }\n\n        return maxTemperatureDaily;\n    }\n\n    function getMinTemperatureDaily () public returns (int) {\n        int minTemperatureDaily = 10000;\n\n        for(int i = 1; i <= 24; i++) {\n            if(dataFromSensorArray[dataId - i].temperature < minTemperatureDaily)\n                minTemperatureDaily = dataFromSensorArray[dataId - i].temperature;\n        }\n\n        return minTemperatureDaily;\n    }\n\n    function getMinTemperatureDayBefore () public returns (int) {\n        int minTemperatureDaily = 10000;\n\n        for(int i = 24; i <= 48; i++) {\n            if(dataFromSensorArray[dataId - i].temperature < minTemperatureDaily)\n                minTemperatureDaily = dataFromSensorArray[dataId - i].temperature;\n        }\n\n        return minTemperatureDaily;\n    }\n\n    function getMaxTemperatureDayBefore () public returns (int) {\n        int maxTemperatureDaily = -10000;\n\n        for(int i = 24; i <= 48; i++) {\n            if(dataFromSensorArray[dataId - i].temperature > maxTemperatureDaily)\n                maxTemperatureDaily = dataFromSensorArray[dataId - i].temperature;\n        }\n\n        return maxTemperatureDaily;\n    }\n\n    function getMaxTemperature() public returns (int) {\n        int maxTemperatureDaily = -10000;\n\n        for(int i = 1; i <= dataId; i++) {\n            if(dataFromSensorArray[i].temperature > maxTemperatureDaily)\n                maxTemperatureDaily = dataFromSensorArray[i].temperature;\n        }\n\n        return maxTemperatureDaily;\n    }\n\n    function getMinTemperature () public returns (int) {\n        int minTemperatureDaily = 10000;\n\n        for(int i = 1; i <= dataId; i++) {\n            if(dataFromSensorArray[dataId].temperature < minTemperatureDaily)\n                minTemperatureDaily = dataFromSensorArray[dataId].temperature;\n        }\n\n        return minTemperatureDaily;\n    }\n\n    function getMaxHumidity() public returns (int) {\n        int maxHumidity = -10000;\n\n        for(int i = 1; i <= dataId; i++) {\n            if(dataFromSensorArray[i].humidity > maxHumidity)\n                maxHumidity = dataFromSensorArray[i].humidity;\n        }\n\n        return maxHumidity;\n    }\n\n    function getMinHumidity () public returns (int) {\n        int minHumidity = 10000;\n\n        for(int i = 1; i <= dataId; i++) {\n            if(dataFromSensorArray[dataId].humidity < minHumidity)\n                minHumidity = dataFromSensorArray[dataId].humidity;\n        }\n\n        return minHumidity;\n    }\n\n\n\n    //#################################\n    //#################################\n    //#################################\n\n}",
  "sourcePath": "C:\\Users\\marco\\PersonalProjects\\ttn-to-blockchain\\ttnNodeApplication\\contracts\\SensorData.sol",
  "compiler": {
    "name": "solc",
    "version": "0.5.16+commit.9c3226ce.Emscripten.clang"
  },
  "schemaVersion": "3.0.23",
  "updatedAt": "2020-03-01T21:44:10.704Z",
  "networkType": "ethereum",
  "devdoc": {
    "methods": {}
  },
  "userdoc": {
    "methods": {}
  }
}