{
  "contractName": "SensorData",
  "abi": [
    {
      "anonymous": false,
      "inputs": [
        {
          "indexed": false,
          "internalType": "int256",
          "name": "id",
          "type": "int256"
        },
        {
          "indexed": false,
          "internalType": "int256",
          "name": "temperature",
          "type": "int256"
        },
        {
          "indexed": false,
          "internalType": "int256",
          "name": "humidity",
          "type": "int256"
        },
        {
          "indexed": false,
          "internalType": "string",
          "name": "location",
          "type": "string"
        },
        {
          "indexed": false,
          "internalType": "int256",
          "name": "light",
          "type": "int256"
        },
        {
          "indexed": false,
          "internalType": "int256",
          "name": "battery",
          "type": "int256"
        },
        {
          "indexed": false,
          "internalType": "string",
          "name": "sensorEvent",
          "type": "string"
        },
        {
          "indexed": false,
          "internalType": "string",
          "name": "devId",
          "type": "string"
        },
        {
          "indexed": false,
          "internalType": "string",
          "name": "date",
          "type": "string"
        },
        {
          "indexed": false,
          "internalType": "string",
          "name": "logs",
          "type": "string"
        }
      ],
      "name": "dataFromSensorCreated",
      "type": "event"
    },
    {
      "constant": true,
      "inputs": [
        {
          "internalType": "int256",
          "name": "",
          "type": "int256"
        }
      ],
      "name": "dataFromSensorArray",
      "outputs": [
        {
          "internalType": "int256",
          "name": "id",
          "type": "int256"
        },
        {
          "internalType": "int256",
          "name": "temperature",
          "type": "int256"
        },
        {
          "internalType": "int256",
          "name": "humidity",
          "type": "int256"
        },
        {
          "internalType": "string",
          "name": "location",
          "type": "string"
        },
        {
          "internalType": "int256",
          "name": "light",
          "type": "int256"
        },
        {
          "internalType": "int256",
          "name": "battery",
          "type": "int256"
        },
        {
          "internalType": "string",
          "name": "sensorEvent",
          "type": "string"
        },
        {
          "internalType": "string",
          "name": "devId",
          "type": "string"
        },
        {
          "internalType": "string",
          "name": "date",
          "type": "string"
        },
        {
          "internalType": "string",
          "name": "logs",
          "type": "string"
        }
      ],
      "payable": false,
      "stateMutability": "view",
      "type": "function"
    },
    {
      "constant": true,
      "inputs": [
        {
          "internalType": "int256",
          "name": "",
          "type": "int256"
        }
      ],
      "name": "dataFromSensorErrorArray",
      "outputs": [
        {
          "internalType": "int256",
          "name": "id",
          "type": "int256"
        },
        {
          "internalType": "int256",
          "name": "temperature",
          "type": "int256"
        },
        {
          "internalType": "int256",
          "name": "humidity",
          "type": "int256"
        },
        {
          "internalType": "string",
          "name": "location",
          "type": "string"
        },
        {
          "internalType": "int256",
          "name": "light",
          "type": "int256"
        },
        {
          "internalType": "int256",
          "name": "battery",
          "type": "int256"
        },
        {
          "internalType": "string",
          "name": "sensorEvent",
          "type": "string"
        },
        {
          "internalType": "string",
          "name": "devId",
          "type": "string"
        },
        {
          "internalType": "string",
          "name": "date",
          "type": "string"
        },
        {
          "internalType": "string",
          "name": "logs",
          "type": "string"
        }
      ],
      "payable": false,
      "stateMutability": "view",
      "type": "function"
    },
    {
      "constant": true,
      "inputs": [],
      "name": "dataId",
      "outputs": [
        {
          "internalType": "int256",
          "name": "",
          "type": "int256"
        }
      ],
      "payable": false,
      "stateMutability": "view",
      "type": "function"
    },
    {
      "constant": true,
      "inputs": [],
      "name": "dataIdError",
      "outputs": [
        {
          "internalType": "int256",
          "name": "",
          "type": "int256"
        }
      ],
      "payable": false,
      "stateMutability": "view",
      "type": "function"
    },
    {
      "constant": true,
      "inputs": [],
      "name": "humidityHigh",
      "outputs": [
        {
          "internalType": "int256",
          "name": "",
          "type": "int256"
        }
      ],
      "payable": false,
      "stateMutability": "view",
      "type": "function"
    },
    {
      "constant": true,
      "inputs": [],
      "name": "humidityLow",
      "outputs": [
        {
          "internalType": "int256",
          "name": "",
          "type": "int256"
        }
      ],
      "payable": false,
      "stateMutability": "view",
      "type": "function"
    },
    {
      "constant": true,
      "inputs": [],
      "name": "temperatureHigh",
      "outputs": [
        {
          "internalType": "int256",
          "name": "",
          "type": "int256"
        }
      ],
      "payable": false,
      "stateMutability": "view",
      "type": "function"
    },
    {
      "constant": true,
      "inputs": [],
      "name": "temperatureLow",
      "outputs": [
        {
          "internalType": "int256",
          "name": "",
          "type": "int256"
        }
      ],
      "payable": false,
      "stateMutability": "view",
      "type": "function"
    },
    {
      "constant": false,
      "inputs": [
        {
          "internalType": "int256",
          "name": "_temperature",
          "type": "int256"
        },
        {
          "internalType": "int256",
          "name": "_humidity",
          "type": "int256"
        },
        {
          "internalType": "string",
          "name": "_location",
          "type": "string"
        },
        {
          "internalType": "int256",
          "name": "_light",
          "type": "int256"
        },
        {
          "internalType": "int256",
          "name": "_battery",
          "type": "int256"
        },
        {
          "internalType": "string",
          "name": "_sensorEvent",
          "type": "string"
        },
        {
          "internalType": "string",
          "name": "_devId",
          "type": "string"
        },
        {
          "internalType": "string",
          "name": "_date",
          "type": "string"
        },
        {
          "internalType": "string",
          "name": "_logs",
          "type": "string"
        }
      ],
      "name": "createDataSensor",
      "outputs": [],
      "payable": false,
      "stateMutability": "nonpayable",
      "type": "function"
    },
    {
      "constant": false,
      "inputs": [],
      "name": "getTaskCount",
      "outputs": [
        {
          "internalType": "int256",
          "name": "",
          "type": "int256"
        }
      ],
      "payable": false,
      "stateMutability": "nonpayable",
      "type": "function"
    },
    {
      "constant": false,
      "inputs": [
        {
          "internalType": "int256",
          "name": "_humidity",
          "type": "int256"
        }
      ],
      "name": "validateHumidityRange",
      "outputs": [
        {
          "internalType": "bool",
          "name": "",
          "type": "bool"
        }
      ],
      "payable": false,
      "stateMutability": "nonpayable",
      "type": "function"
    },
    {
      "constant": false,
      "inputs": [
        {
          "internalType": "int256",
          "name": "_humidity",
          "type": "int256"
        }
      ],
      "name": "validateHumidityStep",
      "outputs": [
        {
          "internalType": "bool",
          "name": "",
          "type": "bool"
        }
      ],
      "payable": false,
      "stateMutability": "nonpayable",
      "type": "function"
    },
    {
      "constant": false,
      "inputs": [
        {
          "internalType": "int256",
          "name": "_humidity",
          "type": "int256"
        }
      ],
      "name": "validateHumidityInternalConsistencyTest",
      "outputs": [
        {
          "internalType": "bool",
          "name": "",
          "type": "bool"
        }
      ],
      "payable": false,
      "stateMutability": "nonpayable",
      "type": "function"
    },
    {
      "constant": false,
      "inputs": [
        {
          "internalType": "int256",
          "name": "_humidity",
          "type": "int256"
        }
      ],
      "name": "validateHumidityPersistenceTest",
      "outputs": [
        {
          "internalType": "bool",
          "name": "",
          "type": "bool"
        }
      ],
      "payable": false,
      "stateMutability": "nonpayable",
      "type": "function"
    },
    {
      "constant": false,
      "inputs": [
        {
          "internalType": "int256",
          "name": "_temperature",
          "type": "int256"
        }
      ],
      "name": "validateTemperatureRange",
      "outputs": [
        {
          "internalType": "bool",
          "name": "",
          "type": "bool"
        }
      ],
      "payable": false,
      "stateMutability": "nonpayable",
      "type": "function"
    },
    {
      "constant": false,
      "inputs": [
        {
          "internalType": "int256",
          "name": "_temperature",
          "type": "int256"
        }
      ],
      "name": "validateTemperatureStep",
      "outputs": [
        {
          "internalType": "bool",
          "name": "",
          "type": "bool"
        }
      ],
      "payable": false,
      "stateMutability": "nonpayable",
      "type": "function"
    },
    {
      "constant": false,
      "inputs": [
        {
          "internalType": "int256",
          "name": "_temperature",
          "type": "int256"
        }
      ],
      "name": "validateTemperatureInternalConsistencyTest",
      "outputs": [
        {
          "internalType": "bool",
          "name": "",
          "type": "bool"
        }
      ],
      "payable": false,
      "stateMutability": "nonpayable",
      "type": "function"
    },
    {
      "constant": false,
      "inputs": [
        {
          "internalType": "int256",
          "name": "_temperature",
          "type": "int256"
        }
      ],
      "name": "validateTemperaturePersistenceTest",
      "outputs": [
        {
          "internalType": "bool",
          "name": "",
          "type": "bool"
        }
      ],
      "payable": false,
      "stateMutability": "nonpayable",
      "type": "function"
    },
    {
      "constant": false,
      "inputs": [],
      "name": "getMeanTemperatureDaily",
      "outputs": [
        {
          "internalType": "int256",
          "name": "",
          "type": "int256"
        }
      ],
      "payable": false,
      "stateMutability": "nonpayable",
      "type": "function"
    },
    {
      "constant": false,
      "inputs": [],
      "name": "getMaxTemperatureDaily",
      "outputs": [
        {
          "internalType": "int256",
          "name": "",
          "type": "int256"
        }
      ],
      "payable": false,
      "stateMutability": "nonpayable",
      "type": "function"
    },
    {
      "constant": false,
      "inputs": [],
      "name": "getMinTemperatureDaily",
      "outputs": [
        {
          "internalType": "int256",
          "name": "",
          "type": "int256"
        }
      ],
      "payable": false,
      "stateMutability": "nonpayable",
      "type": "function"
    },
    {
      "constant": false,
      "inputs": [],
      "name": "getMinTemperatureDayBefore",
      "outputs": [
        {
          "internalType": "int256",
          "name": "",
          "type": "int256"
        }
      ],
      "payable": false,
      "stateMutability": "nonpayable",
      "type": "function"
    },
    {
      "constant": false,
      "inputs": [],
      "name": "getMaxTemperatureDayBefore",
      "outputs": [
        {
          "internalType": "int256",
          "name": "",
          "type": "int256"
        }
      ],
      "payable": false,
      "stateMutability": "nonpayable",
      "type": "function"
    },
    {
      "constant": false,
      "inputs": [],
      "name": "getMaxTemperature",
      "outputs": [
        {
          "internalType": "int256",
          "name": "",
          "type": "int256"
        }
      ],
      "payable": false,
      "stateMutability": "nonpayable",
      "type": "function"
    },
    {
      "constant": false,
      "inputs": [],
      "name": "getMinTemperature",
      "outputs": [
        {
          "internalType": "int256",
          "name": "",
          "type": "int256"
        }
      ],
      "payable": false,
      "stateMutability": "nonpayable",
      "type": "function"
    },
    {
      "constant": false,
      "inputs": [],
      "name": "getMaxHumidity",
      "outputs": [
        {
          "internalType": "int256",
          "name": "",
          "type": "int256"
        }
      ],
      "payable": false,
      "stateMutability": "nonpayable",
      "type": "function"
    },
    {
      "constant": false,
      "inputs": [],
      "name": "getMinHumidity",
      "outputs": [
        {
          "internalType": "int256",
          "name": "",
          "type": "int256"
        }
      ],
      "payable": false,
      "stateMutability": "nonpayable",
      "type": "function"
    }
  ],
  "bytecode": "0x608060405260008055600060015561752f1960025561c3506003556103206004556201925860055534801561003357600080fd5b50611e4d806100436000396000f3fe608060405234801561001057600080fd5b50600436106101a95760003560e01c806392c9a502116100f9578063c17a340e11610097578063c8a663ec11610071578063c8a663ec14610832578063ec42f4571461083a578063ed82f05714610842578063f86997371461085f576101a9565b8063c17a340e1461053a578063c541e61814610542578063c7c35ed614610815576101a9565b8063aa48c4d9116100d3578063aa48c4d914610505578063ad61a9281461050d578063b13c5c1714610515578063bf964bc914610532576101a9565b806392c9a502146104ed57806399660d03146104f55780639eefc5a6146104fd576101a9565b806359a5885b1161016657806367913e5b1161014057806367913e5b1461048e57806377bdb186146104ab5780637e8e792f146104b35780638f30ebdc146104d0576101a9565b806359a5885b146102195780635cbd274f1461046957806361dc6d7314610486576101a9565b806307bffff7146101ae578063162c8c2b146101c85780631c7bd829146101d05780631fdd1bf2146101d857806342614fcb146101e05780635668cd4d146101e8575b600080fd5b6101b661087c565b60408051918252519081900360200190f35b6101b6610882565b6101b66108d9565b6101b6610923565b6101b6610973565b610205600480360360208110156101fe57600080fd5b50356109c4565b604080519115158252519081900360200190f35b6102366004803603602081101561022f57600080fd5b50356109fe565b604051808b81526020018a8152602001898152602001806020018881526020018781526020018060200180602001806020018060200186810386528d818151815260200191508051906020019080838360005b838110156102a1578181015183820152602001610289565b50505050905090810190601f1680156102ce5780820380516001836020036101000a031916815260200191505b5086810385528a5181528a516020918201918c019080838360005b838110156103015781810151838201526020016102e9565b50505050905090810190601f16801561032e5780820380516001836020036101000a031916815260200191505b5086810384528951815289516020918201918b019080838360005b83811015610361578181015183820152602001610349565b50505050905090810190601f16801561038e5780820380516001836020036101000a031916815260200191505b5086810383528851815288516020918201918a019080838360005b838110156103c15781810151838201526020016103a9565b50505050905090810190601f1680156103ee5780820380516001836020036101000a031916815260200191505b50868103825287518152875160209182019189019080838360005b83811015610421578181015183820152602001610409565b50505050905090810190601f16801561044e5780820380516001836020036101000a031916815260200191505b509f5050505050505050505050505050505060405180910390f35b6102056004803603602081101561047f57600080fd5b5035610d20565b6101b6610d9f565b610205600480360360208110156104a457600080fd5b5035610ddc565b6101b6610edf565b610236600480360360208110156104c957600080fd5b5035610ee5565b610205600480360360208110156104e657600080fd5b5035610f78565b6101b6610fed565b6101b6611038565b6101b6611082565b6101b66110d1565b6101b66110d7565b6102056004803603602081101561052b57600080fd5b5035611122565b6101b6611142565b6101b6611148565b610813600480360361012081101561055957600080fd5b813591602081013591810190606081016040820135600160201b81111561057f57600080fd5b82018360208201111561059157600080fd5b803590602001918460018302840111600160201b831117156105b257600080fd5b91908080601f0160208091040260200160405190810160405280939291908181526020018383808284376000920191909152509295843595602086013595919450925060608101915060400135600160201b81111561061057600080fd5b82018360208201111561062257600080fd5b803590602001918460018302840111600160201b8311171561064357600080fd5b91908080601f0160208091040260200160405190810160405280939291908181526020018383808284376000920191909152509295949360208101935035915050600160201b81111561069557600080fd5b8201836020820111156106a757600080fd5b803590602001918460018302840111600160201b831117156106c857600080fd5b91908080601f0160208091040260200160405190810160405280939291908181526020018383808284376000920191909152509295949360208101935035915050600160201b81111561071a57600080fd5b82018360208201111561072c57600080fd5b803590602001918460018302840111600160201b8311171561074d57600080fd5b91908080601f0160208091040260200160405190810160405280939291908181526020018383808284376000920191909152509295949360208101935035915050600160201b81111561079f57600080fd5b8201836020820111156107b157600080fd5b803590602001918460018302840111600160201b831117156107d257600080fd5b91908080601f0160208091040260200160405190810160405280939291908181526020018383808284376000920191909152509295506111b4945050505050565b005b6102056004803603602081101561082b57600080fd5b5035611c65565b6101b6611d2c565b6101b6611d32565b6102056004803603602081101561085857600080fd5b5035611d38565b6102056004803603602081101561087557600080fd5b5035611d58565b60025481565b6000633b9aca0060015b601881136108d257600080548290038152600660205260409020600101548213156108ca576000805482900381526006602052604090206001015491505b60010161088c565b5090505b90565b6000633b9ac9ff1960015b60005481136108d25760008181526006602052604090206001015482121561091b5760008181526006602052604090206001015491505b6001016108e4565b6000633b9aca0060185b603081136108d2576000805482900381526006602052604090206001015482131561096b576000805482900381526006602052604090206001015491505b60010161092d565b6000633b9ac9ff1960185b603081136108d257600080548290038152600660205260409020600101548212156109bc576000805482900381526006602052604090206001015491505b60010161097e565b6000600160005413156109f5576000805481526006602052604090206002015461afc813156109f5575060016109f9565b5060005b919050565b6007602052806000526040600020600091509050806000015490806001015490806002015490806003018054600181600116156101000203166002900480601f016020809104026020016040519081016040528092919081815260200182805460018160011615610100020316600290048015610abc5780601f10610a9157610100808354040283529160200191610abc565b820191906000526020600020905b815481529060010190602001808311610a9f57829003601f168201915b505050505090806004015490806005015490806006018054600181600116156101000203166002900480601f016020809104026020016040519081016040528092919081815260200182805460018160011615610100020316600290048015610b665780601f10610b3b57610100808354040283529160200191610b66565b820191906000526020600020905b815481529060010190602001808311610b4957829003601f168201915b5050505060078301805460408051602060026001851615610100026000190190941693909304601f8101849004840282018401909252818152949594935090830182828015610bf65780601f10610bcb57610100808354040283529160200191610bf6565b820191906000526020600020905b815481529060010190602001808311610bd957829003601f168201915b5050505060088301805460408051602060026001851615610100026000190190941693909304601f8101849004840282018401909252818152949594935090830182828015610c865780601f10610c5b57610100808354040283529160200191610c86565b820191906000526020600020905b815481529060010190602001808311610c6957829003601f168201915b5050505060098301805460408051602060026001851615610100026000190190941693909304601f8101849004840282018401909252818152949594935090830182828015610d165780601f10610ceb57610100808354040283529160200191610d16565b820191906000526020600020905b815481529060010190602001808311610cf957829003601f168201915b505050505090508a565b6000600a60005413610d34575060016109f9565b60008054600019018152600660205260409020600101548214801590610d70575060008054600119018152600660205260409020600101548214155b8015610d92575060008054600219018152600660205260409020600101548214155b156109f5575060016109f9565b6000808060015b60188113610dd157600080548290038152600660205260409020600190810154929092019101610da6565b506018900592915050565b600080548190601813610ecc576000610df3610d9f565b90506000610dff611082565b90506000610e0b610882565b9050600080808585138015610e1f57508386135b15610e2957600192505b60018315151415610ea6576000610e3e610923565b90506000610e4a610973565b90508187138015610e5b5750808613155b15610e6557600193505b60018415151415610ea3576000610e7a6110d7565b90506000610e866108d9565b90508c89138015610e9657508c88125b15610ea057600194505b50505b50505b60018115151415610ec15760019750505050505050506109f9565b505050505050610ed6565b60019150506109f9565b50600092915050565b60015481565b6006602052806000526040600020600091509050806000015490806001015490806002015490806003018054600181600116156101000203166002900480601f016020809104026020016040519081016040528092919081815260200182805460018160011615610100020316600290048015610abc5780601f10610a9157610100808354040283529160200191610abc565b6000604860005413156109f55760008054601619018152600660205260409020600201548214801590610fc1575060008054602e19018152600660205260409020600201548214155b8015610d925750600080546046190181526006602052604090206002015482146109f5575060016109f9565b6000633b9aca0060015b60005481136108d25760008054815260066020526040902060020154821315611030576000805481526006602052604090206002015491505b600101610ff7565b6000633b9ac9ff1960015b60005481136108d25760008181526006602052604090206002015482121561107a5760008181526006602052604090206002015491505b600101611043565b600061270f1960015b601881136108d257600080548290038152600660205260409020600101548212156110c9576000805482900381526006602052604090206001015491505b60010161108b565b60045481565b6000633b9aca0060015b60005481136108d2576000805481526006602052604090206001015482131561111a576000805481526006602052604090206001015491505b6001016110e1565b60006004548212158015610d92575060055482136109f5575060016109f9565b60055481565b6000306001600160a01b031663c8a663ec6040518163ffffffff1660e01b815260040160206040518083038186803b15801561118357600080fd5b505afa158015611197573d6000803e3d6000fd5b505050506040513d60208110156111ad57600080fd5b5051905090565b600080606060006111c48d611d38565b9050600181151514156112685760006111dc8e611c65565b9050600181151514156112335760006111f48f610ddc565b9050600181151514156112115761120a8f610d20565b955061122d565b604051806060016040528060228152602001611df76022913993505b50611262565b604051806040016040528060138152602001721d195b5c195c985d1d5c9954dd195c15195cdd606a1b81525092505b50611298565b604051806040016040528060148152602001731d195b5c195c985d1d5c9954985b99d955195cdd60621b81525091505b60006112a38d611122565b905060018515151480156112b957506001811515145b1561136f5760006112c98e6109c4565b90506001811515141561133d5760006112e18f611d58565b9050600181151514156112fe576112f78f610f78565b9550611337565b6040518060400160405280601781526020017f68756d696469747950657273697374656e63655465737400000000000000000081525094505b50611369565b6040518060400160405280601081526020016f1a1d5b5a591a5d1e54dd195c15195cdd60821b81525093505b5061139c565b604051806040016040528060118152602001701a1d5b5a591a5d1e54985b99d955195cdd607a1b81525092505b60018515151480156113b057506001811515145b1561172157600080815480929190600101919050555060405180610140016040528060005481526020018f81526020018e81526020018d81526020018c81526020018b81526020018a8152602001898152602001888152602001604051806040016040528060078152602001667375636365737360c81b8152508152506006600080548152602001908152602001600020600082015181600001556020820151816001015560408201518160020155606082015181600301908051906020019061147b929190611d5e565b506080820151600482015560a0820151600582015560c082015180516114ab916006840191602090910190611d5e565b5060e082015180516114c7916007840191602090910190611d5e565b5061010082015180516114e4916008840191602090910190611d5e565b506101208201518051611501916009840191602090910190611d5e565b509050507f12290b5f6337d8c62bc7af0d0342a9368b99569bb96c92772e56867bf3309fac6000548f8f8f8f8f8f8f8f604051808a8152602001898152602001888152602001806020018781526020018681526020018060200180602001806020018060200186810386528c818151815260200191508051906020019080838360005b8381101561159c578181015183820152602001611584565b50505050905090810190601f1680156115c95780820380516001836020036101000a031916815260200191505b5086810385528951815289516020918201918b019080838360005b838110156115fc5781810151838201526020016115e4565b50505050905090810190601f1680156116295780820380516001836020036101000a031916815260200191505b5086810384528851815288516020918201918a019080838360005b8381101561165c578181015183820152602001611644565b50505050905090810190601f1680156116895780820380516001836020036101000a031916815260200191505b50868103835287518152875160209182019189019080838360005b838110156116bc5781810151838201526020016116a4565b50505050905090810190601f1680156116e95780820380516001836020036101000a031916815260200191505b5095860390525050600783525050667375636365737360c81b60208201526040805191829003019950975050505050505050a1611ab7565b60016000815480929190600101919050555060405180610140016040528060005481526020018f81526020018e81526020018d81526020018c81526020018b81526020018a81526020018981526020018881526020016040518060400160405280601c81526020017f74656d70657261747572652070657273697374656e636520746573740000000081525081525060076000600154815260200190815260200160002060008201518160000155602082015181600101556040820151816002015560608201518160030190805190602001906117ff929190611d5e565b506080820151600482015560a0820151600582015560c0820151805161182f916006840191602090910190611d5e565b5060e0820151805161184b916007840191602090910190611d5e565b506101008201518051611868916008840191602090910190611d5e565b506101208201518051611885916009840191602090910190611d5e565b509050507f12290b5f6337d8c62bc7af0d0342a9368b99569bb96c92772e56867bf3309fac6000548f8f8f8f8f8f8f8f604051808a8152602001898152602001888152602001806020018781526020018681526020018060200180602001806020018060200186810386528c818151815260200191508051906020019080838360005b83811015611920578181015183820152602001611908565b50505050905090810190601f16801561194d5780820380516001836020036101000a031916815260200191505b5086810385528951815289516020918201918b019080838360005b83811015611980578181015183820152602001611968565b50505050905090810190601f1680156119ad5780820380516001836020036101000a031916815260200191505b5086810384528851815288516020918201918a019080838360005b838110156119e05781810151838201526020016119c8565b50505050905090810190601f168015611a0d5780820380516001836020036101000a031916815260200191505b50868103835287518152875160209182019189019080838360005b83811015611a40578181015183820152602001611a28565b50505050905090810190601f168015611a6d5780820380516001836020036101000a031916815260200191505b5095860390525050601c835250507f74656d70657261747572652070657273697374656e636520746573740000000060208201526040805191829003019950975050505050505050a15b5050611c57565b83811015611ad6578181015183820152602001611abe565b50505050905090810190601f168015611b035780820380516001836020036101000a031916815260200191505b5086810385528951815289516020918201918b019080838360005b83811015611b36578181015183820152602001611b1e565b50505050905090810190601f168015611b635780820380516001836020036101000a031916815260200191505b5086810384528851815288516020918201918a019080838360005b83811015611b96578181015183820152602001611b7e565b50505050905090810190601f168015611bc35780820380516001836020036101000a031916815260200191505b50868103835287518152875160209182019189019080838360005b83811015611bf6578181015183820152602001611bde565b50505050905090810190601f168015611c235780820380516001836020036101000a031916815260200191505b5095860390525050600783525050666261747465727960c81b60208201526040805191829003019950975050505050505050a15b505050505050505050505050565b6000600c60005412611d24576000805480825260066020526040808320600190810154600019840185528285208201546001198501865283862083015460041986018752848720840154600a199096018752939095209091015490939290610fa0858803128015611cd95750611b58848803125b8015611d0357506123288388031280611cf55750613a98828803125b80611d0357506161a8818803125b15611d16576001955050505050506109f9565b6000955050505050506109f9565b5060016109f9565b60005481565b60035481565b60006002548212158015610d92575060035482136109f5575060016109f9565b50600190565b828054600181600116156101000203166002900490600052602060002090601f016020900481019282601f10611d9f57805160ff1916838001178555611dcc565b82800160010185558215611dcc579182015b82811115611dcc578251825591602001919060010190611db1565b50611dd8929150611ddc565b5090565b6108d691905b80821115611dd85760008155600101611de256fe74656d7065726174757265496e7465726e616c436f6e73697374656e637954657374a265627a7a72315820fd0c412a4009b7da2ea8be62c0b68cf28865eb7e5d3496dfa0e5867fb58ae06f64736f6c63430005100032",
  "source": "pragma solidity ^0.5.0;\r\n\r\ncontract SensorData {\r\n    int public dataId = 0;\r\n    int public dataIdError = 0;\r\n\r\n    //TEMPERATURE RANGE VARIABLES\r\n    int public temperatureLow = -30000;\r\n    int public temperatureHigh = 50000;\r\n\r\n    //HUMIDITY RANGE VARIABLES\r\n    //int public humidityLow = 0.8;\r\n    int public humidityLow = 800;\r\n    int public humidityHigh = 103000;\r\n\r\n    struct dataFromSensor {\r\n        int id;\r\n        int temperature;\r\n        int humidity; //it could be fixed (int), but it isn't implemented yet in solidity (with fixed type it not compile and not migrate)\r\n        string location;\r\n        int light;\r\n        int battery;\r\n        string sensorEvent;\r\n        string devId;\r\n        string date;\r\n        string logs;\r\n    }\r\n\r\n    mapping (int => dataFromSensor) public dataFromSensorArray; //associative array/hash, where key is a unsigned int and the array's content is a instance of Task\r\n    mapping (int => dataFromSensor) public dataFromSensorErrorArray; //associative array/hash, where key is a unsigned int and the array's content is a instance of Task\r\n\r\n    //EVENT WHEN DATA SENSOR IS CREATED\r\n    event dataFromSensorCreated(\r\n        int id,\r\n        int temperature,\r\n        int humidity,\r\n        string location,\r\n        int light,\r\n        int battery,\r\n        string sensorEvent,\r\n        string devId,\r\n        string date,\r\n        string logs\r\n    );\r\n\r\n    function createDataSensor (int _temperature, int _humidity, string memory _location, int _light, \r\n        int _battery, string memory _sensorEvent, string memory _devId, string memory _date, string memory _logs) public {\r\n\r\n        //VARIABLE TO CONTROL VALIDATIONS\r\n        bool temperaturePersistenceTest = false;\r\n        bool humidityPersistenceTest =false;\r\n        string memory auxLog;\r\n\r\n        //VALIDATE RECORD ONLY IF ALREADY EXIST DATA SAVED\r\n        //if(dataId >= 1 && _battery > 0) {\r\n        if(true) {\r\n            //--------------\r\n            //--RANGE TEST--\r\n            //--------------\r\n            bool temperatureRangeTest = validateTemperatureRange(_temperature);\r\n\r\n            if (temperatureRangeTest == true) {\r\n                //-------------\r\n                //--STEP TEST--\r\n                //-------------\r\n                bool temperatureStepTest = validateTemperatureStep(_temperature);\r\n\r\n                if(temperatureStepTest == true) {\r\n                    //-----------------------------\r\n                    //--INTERNAL CONSISTENCY TEST--\r\n                    //-----------------------------\r\n                    bool temperatureInternalConsistencyTest = validateTemperatureInternalConsistencyTest(_temperature);\r\n\r\n                    if(temperatureInternalConsistencyTest == true) {\r\n                        //-----------------------------\r\n                        //-------PERSISTENCE TEST------\r\n                        //-----------------------------\r\n\r\n                        temperaturePersistenceTest = validateTemperaturePersistenceTest(_temperature);\r\n                    }\r\n                    else {\r\n                        auxLog = \"temperatureInternalConsistencyTest\";\r\n                    }\r\n                }\r\n                else {\r\n                    auxLog = \"temperatureStepTest\";\r\n                }\r\n            }\r\n            else {\r\n                auxLog = \"temperatureRangeTest\";\r\n            }\r\n\r\n            //--------------\r\n            //--RANGE TEST--\r\n            //--------------\r\n            bool humidityRangeTest = validateHumidityRange(_humidity);\r\n\r\n            if (temperaturePersistenceTest == true && humidityRangeTest == true) {\r\n                //-------------\r\n                //--STEP TEST--\r\n                //-------------\r\n                bool humidityStepTest = validateHumidityStep(_humidity);\r\n\r\n                if(humidityStepTest == true) {\r\n                    //-----------------------------\r\n                    //--INTERNAL CONSISTENCY TEST--\r\n                    //-----------------------------\r\n                    bool humidityInternalConsistencyTest = validateHumidityInternalConsistencyTest(_humidity);\r\n\r\n                    if(humidityInternalConsistencyTest == true) {\r\n                        //-----------------------------\r\n                        //-------PERSISTENCE TEST------\r\n                        //-----------------------------\r\n\r\n                        humidityPersistenceTest = validateHumidityPersistenceTest(_humidity);\r\n                    }\r\n                    else {\r\n                        auxLog = \"humidityPersistenceTest\";\r\n                    }\r\n                }\r\n                else {\r\n                    auxLog = \"humidityStepTest\";\r\n                }\r\n            }\r\n            else {\r\n                auxLog = \"humidityRangeTest\";\r\n            }\r\n\r\n\r\n            //if(temperaturePersistenceTest == true && humidityPersistenceTest == true) {\r\n            if(temperaturePersistenceTest == true && humidityRangeTest == true) {\r\n                //DATA ID\r\n                dataId ++;\r\n\r\n                //add a instance of dataFromSensor to dataFromSensorArray\r\n                dataFromSensorArray[dataId] = dataFromSensor(dataId, _temperature, _humidity, _location, _light, _battery, _sensorEvent, _devId, _date, \"success\");\r\n\r\n                emit dataFromSensorCreated(dataId, _temperature, _humidity, _location, _light, _battery, _sensorEvent, _devId, _date, \"success\");\r\n            }\r\n            else {\r\n                //TODO: CREATE FUNCTION TO ADD VALUES TO ARRAY\r\n                //DATA ID\r\n                dataIdError ++;\r\n\r\n                //add a instance of dataFromSensor to dataFromSensorArray\r\n                dataFromSensorErrorArray[dataIdError] = dataFromSensor(dataId, _temperature, _humidity, _location, _light, _battery, _sensorEvent, _devId, _date, \"temperature persistence test\");\r\n\r\n                emit dataFromSensorCreated(dataId, _temperature, _humidity, _location, _light, _battery, _sensorEvent, _devId, _date, \"temperature persistence test\");\r\n            }\r\n        }\r\n\r\n        else {\r\n            //DATA ID\r\n            dataIdError ++;\r\n\r\n            //add a instance of dataFromSensor to dataFromSensorArray\r\n            dataFromSensorErrorArray[dataIdError] = dataFromSensor(dataId, _temperature, _humidity, _location, _light, _battery, _sensorEvent, _devId, _date, \"battery\");\r\n\r\n            emit dataFromSensorCreated(dataId, _temperature, _humidity, _location, _light, _battery, _sensorEvent, _devId, _date, \"battery\");\r\n        }\r\n\r\n        /**\r\n        if(_battery > 0 && validateValues == true) { //IF IS A VALID RECORD SAVE THIS ON CORRECT DATA ARRAY\r\n            //DATA ID\r\n            dataId ++;\r\n\r\n            //add a instance of dataFromSensor to dataFromSensorArray\r\n            dataFromSensorArray[dataId] = dataFromSensor(dataId, _temperature, _humidity, _location, _light, _battery, _sensorEvent, _devId, _date);\r\n\r\n            emit dataFromSensorCreated(dataId, _temperature, _humidity, _location, _light, _battery, _sensorEvent, _devId, _date);\r\n        }\r\n        else { //IF IS A ERROR, SAVE THIS RECORD ON ERROR'S ARRAY\r\n            //DATA ID\r\n            dataIdError ++;\r\n\r\n            //add a instance of dataFromSensor to dataFromSensorArray\r\n            dataFromSensorErrorArray[dataIdError] = dataFromSensor(dataId, _temperature, _humidity, _location, _light, _battery, _sensorEvent, _devId, _date);\r\n\r\n            emit dataFromSensorCreated(dataId, _temperature, _humidity, _location, _light, _battery, _sensorEvent, _devId, _date);\r\n        }\r\n        */\r\n    }\r\n\r\n    function getTaskCount() public returns (int) {\r\n        return this.dataId();\r\n    }\r\n\r\n\r\n    //---------------------------------\r\n    //-------HUMIDITY VALIDATIONS------\r\n    //---------------------------------\r\n\r\n    function validateHumidityRange(int _humidity) public returns (bool) {\r\n        if(_humidity >= humidityLow && _humidity <= humidityHigh)\r\n            return true;\r\n\r\n        else\r\n            return false;\r\n    }\r\n\r\n    function validateHumidityStep(int _humidity) public returns (bool) {\r\n        if (dataId > 1) {\r\n            if(dataFromSensorArray[dataId].humidity < 45000) //TODO: THIS VALUE SHOULD BE SEMI HOURLY\r\n                return true;\r\n\r\n            else\r\n                return false;\r\n        }\r\n        else\r\n            return false;\r\n    }\r\n\r\n    function validateHumidityInternalConsistencyTest (int _humidity) public returns (bool) {\r\n        //RHx > RHm > RHn\r\n\r\n        //RHx > max (RHsh);\r\n        //RHn < min (RHsh)\r\n\r\n\r\n        return true;\r\n    }\r\n\r\n    function validateHumidityPersistenceTest(int _humidity) public returns (bool) {\r\n        if (dataId > 72) {\r\n\r\n            //RH(d) != RH(d-1) != RH(d-2)\r\n            if(_humidity != dataFromSensorArray[dataId - 23].humidity && _humidity != dataFromSensorArray[dataId - 47].humidity && _humidity != dataFromSensorArray[dataId - 71].humidity)\r\n                return true;\r\n\r\n            else\r\n                return false;\r\n        } else\r\n            return false;\r\n    }\r\n\r\n    //#################################\r\n    //#################################\r\n    //#################################\r\n\r\n    //---------------------------------\r\n    //-----TEMPERATURE VALIDATIONS-----\r\n    //---------------------------------\r\n\r\n    function validateTemperatureRange(int _temperature) public returns (bool) {\r\n        if(_temperature >= temperatureLow && _temperature <= temperatureHigh)\r\n            return true;\r\n\r\n        else\r\n            return false;\r\n    }\r\n\r\n    function validateTemperatureStep (int _temperature) public returns (bool) {\r\n        //IN ALGORITHM IS CONSIDERED SEMI HOURLY VALUES, BUT IS IN SETS OF TWO (IT MEANS HOURLY LIKE OUR DATASET)\r\n        if(dataId >= 12) {\r\n            int temperatureAtLastHour = dataFromSensorArray[dataId].temperature;\r\n            int temperatureAtTwoHoursAgo = dataFromSensorArray[dataId-1].temperature;\r\n            int temperatureAtThreeHoursAgo = dataFromSensorArray[dataId-2].temperature;\r\n            int temperatureAtSixHoursAgo = dataFromSensorArray[dataId-5].temperature;\r\n            int temperatureAtTwelveHoursAgo = dataFromSensorArray[dataId-11].temperature;\r\n\r\n            //TODO:MODULE CALCS\r\n            if((_temperature-temperatureAtLastHour) < 4000 && (_temperature-temperatureAtTwoHoursAgo) < 7000\r\n                && ((_temperature-temperatureAtThreeHoursAgo) < 9000 || (_temperature-temperatureAtSixHoursAgo) < 15000\r\n                || (_temperature-temperatureAtTwelveHoursAgo) < 25000))\r\n            {\r\n                return true;\r\n            }\r\n\r\n            else\r\n                return false;\r\n        }\r\n        else\r\n            return true;\r\n    }\r\n\r\n    function validateTemperatureInternalConsistencyTest (int _temperature) public returns (bool) {\r\n        int auxSum = 0;\r\n\r\n        if(dataId >= 24) {\r\n            int meanTemperatureDaily = getMeanTemperatureDaily();\r\n            int maxTemperatureDaily = getMaxTemperatureDaily();\r\n            int minTemperatureDaily = getMinTemperatureDaily();\r\n\r\n            //FIRST VERIFICATION\r\n            //Tx => Daily maximum temperature\r\n            //Tm => Daily mean temperature\r\n            //Tn => Daily minimum temperature\r\n            //Tx > Tm > Tn\r\n            bool firstVerification = false;\r\n            bool secondVerification = false;\r\n            bool thirdVerification = false;\r\n\r\n            if(maxTemperatureDaily > meanTemperatureDaily && meanTemperatureDaily > minTemperatureDaily)\r\n                firstVerification = true;\r\n\r\n            if(firstVerification == true) {\r\n                //SECOND VERIFICATION\r\n                //Tx(d) > Tn(d-1)\r\n                //Tn(d) <= Tx(d-1)\r\n                int minTemperatureDayBefore = getMinTemperatureDayBefore();\r\n                int maxTemperatureDayBefore = getMaxTemperatureDayBefore();\r\n\r\n                if(maxTemperatureDaily > minTemperatureDayBefore && minTemperatureDaily <= maxTemperatureDayBefore)\r\n                    secondVerification = true;\r\n\r\n                if(secondVerification == true) {\r\n                    //THIRD VERIFICATION\r\n                    //Tx > max(Tsh) - ADAPTED TO HOURLY VALUES, BECAUSE DATA SET HAS ONLY HOURLY VALUES\r\n                    //Tn < min(Tsh) - ADAPTED TO HOURLY VALUES, BECAUSE DATA SET HAS ONLY HOURLY VALUES\r\n                    int minTemperature = getMinTemperature();\r\n                    int maxTemperature = getMaxTemperature();\r\n\r\n                    if(maxTemperatureDaily > _temperature && minTemperatureDaily < _temperature)\r\n                        thirdVerification = true;\r\n                }\r\n            }\r\n\r\n            if(thirdVerification == true)\r\n                return true;\r\n        }\r\n\r\n        else\r\n            return true;\r\n\r\n        return false;\r\n    }\r\n\r\n    function validateTemperaturePersistenceTest (int _temperature) public returns (bool) {\r\n        //T(d) != T(d-1) != T(d-2); - NOT USED, OUR DATA IS HOURLY\r\n        //Tsh != Tsh-2 != Tsh-4 != Tsh-6 - ADAPTED TO HOURLY VALUES, BECAUSE DATA SET HAS ONLY HOURLY VALUES\r\n\r\n        if(dataId <= 10)\r\n            return true;\r\n\r\n        if(_temperature != dataFromSensorArray[dataId - 1].temperature && _temperature != dataFromSensorArray[dataId - 2].temperature && _temperature != dataFromSensorArray[dataId - 3].temperature)\r\n            return true;\r\n\r\n        return false;\r\n    }\r\n\r\n    function getMeanTemperatureDaily () public returns (int) {\r\n        int meanDailyTemperature;\r\n        int auxSum = 0;\r\n\r\n        for(int i = 1; i <= 24; i++) {\r\n            auxSum += dataFromSensorArray[dataId - i].temperature;\r\n        }\r\n\r\n        meanDailyTemperature = auxSum/24;\r\n\r\n        return meanDailyTemperature;\r\n    }\r\n\r\n    function getMaxTemperatureDaily () public returns (int) {\r\n        int maxTemperatureDaily = -10000;\r\n\r\n        for(int i = 1; i <= 24; i++) {\r\n            if(dataFromSensorArray[dataId - i].temperature > maxTemperatureDaily)\r\n                maxTemperatureDaily = dataFromSensorArray[dataId - i].temperature;\r\n        }\r\n\r\n        return maxTemperatureDaily;\r\n    }\r\n\r\n    function getMinTemperatureDaily () public returns (int) {\r\n        int minTemperatureDaily = 1000000000;\r\n\r\n        for(int i = 1; i <= 24; i++) {\r\n            if(dataFromSensorArray[dataId - i].temperature < minTemperatureDaily)\r\n                minTemperatureDaily = dataFromSensorArray[dataId - i].temperature;\r\n        }\r\n\r\n        return minTemperatureDaily;\r\n    }\r\n\r\n    function getMinTemperatureDayBefore () public returns (int) {\r\n        int minTemperatureDaily = 1000000000;\r\n\r\n        for(int i = 24; i <= 48; i++) {\r\n            if(dataFromSensorArray[dataId - i].temperature < minTemperatureDaily)\r\n                minTemperatureDaily = dataFromSensorArray[dataId - i].temperature;\r\n        }\r\n\r\n        return minTemperatureDaily;\r\n    }\r\n\r\n    function getMaxTemperatureDayBefore () public returns (int) {\r\n        int maxTemperatureDaily = -1000000000;\r\n\r\n        for(int i = 24; i <= 48; i++) {\r\n            if(dataFromSensorArray[dataId - i].temperature > maxTemperatureDaily)\r\n                maxTemperatureDaily = dataFromSensorArray[dataId - i].temperature;\r\n        }\r\n\r\n        return maxTemperatureDaily;\r\n    }\r\n\r\n    function getMaxTemperature() public returns (int) {\r\n        int maxTemperatureDaily = -1000000000;\r\n\r\n        for(int i = 1; i <= dataId; i++) {\r\n            if(dataFromSensorArray[i].temperature > maxTemperatureDaily)\r\n                maxTemperatureDaily = dataFromSensorArray[i].temperature;\r\n        }\r\n\r\n        return maxTemperatureDaily;\r\n    }\r\n\r\n    function getMinTemperature () public returns (int) {\r\n        int minTemperatureDaily = 1000000000;\r\n\r\n        for(int i = 1; i <= dataId; i++) {\r\n            if(dataFromSensorArray[dataId].temperature < minTemperatureDaily)\r\n                minTemperatureDaily = dataFromSensorArray[dataId].temperature;\r\n        }\r\n\r\n        return minTemperatureDaily;\r\n    }\r\n\r\n    function getMaxHumidity() public returns (int) {\r\n        int maxHumidity = -1000000000;\r\n\r\n        for(int i = 1; i <= dataId; i++) {\r\n            if(dataFromSensorArray[i].humidity > maxHumidity)\r\n                maxHumidity = dataFromSensorArray[i].humidity;\r\n        }\r\n\r\n        return maxHumidity;\r\n    }\r\n\r\n    function getMinHumidity () public returns (int) {\r\n        int minHumidity = 1000000000;\r\n\r\n        for(int i = 1; i <= dataId; i++) {\r\n            if(dataFromSensorArray[dataId].humidity < minHumidity)\r\n                minHumidity = dataFromSensorArray[dataId].humidity;\r\n        }\r\n\r\n        return minHumidity;\r\n    }\r\n\r\n\r\n\r\n    //#################################\r\n    //#################################\r\n    //#################################\r\n\r\n}\r\n",
  "sourcePath": "C:\\Users\\marco\\PersonalProjects\\ttn-to-blockchain\\ttnNodeApplication\\contracts\\SensorData.sol",
  "compiler": {
    "name": "solc",
    "version": "0.5.16+commit.9c3226ce.Emscripten.clang"
  },
  "schemaVersion": "3.0.23",
  "updatedAt": "2020-03-15T21:50:20.071Z",
  "networkType": "ethereum",
  "devdoc": {
    "methods": {}
  },
  "userdoc": {
    "methods": {}
  }
}