{
  "contractName": "SensorData",
  "abi": [
    {
      "constant": true,
      "inputs": [],
      "name": "temperatureLow",
      "outputs": [
        {
          "name": "",
          "type": "int256"
        }
      ],
      "payable": false,
      "stateMutability": "view",
      "type": "function",
      "signature": "0x07bffff7"
    },
    {
      "constant": true,
      "inputs": [
        {
          "name": "",
          "type": "int256"
        }
      ],
      "name": "dataFromSensorErrorArray",
      "outputs": [
        {
          "name": "id",
          "type": "int256"
        },
        {
          "name": "temperature",
          "type": "int256"
        },
        {
          "name": "humidity",
          "type": "int256"
        },
        {
          "name": "location",
          "type": "string"
        },
        {
          "name": "light",
          "type": "int256"
        },
        {
          "name": "battery",
          "type": "int256"
        },
        {
          "name": "sensorEvent",
          "type": "string"
        },
        {
          "name": "devId",
          "type": "string"
        },
        {
          "name": "date",
          "type": "string"
        },
        {
          "name": "logs",
          "type": "string"
        }
      ],
      "payable": false,
      "stateMutability": "view",
      "type": "function",
      "signature": "0x59a5885b"
    },
    {
      "constant": true,
      "inputs": [],
      "name": "dataIdError",
      "outputs": [
        {
          "name": "",
          "type": "int256"
        }
      ],
      "payable": false,
      "stateMutability": "view",
      "type": "function",
      "signature": "0x77bdb186"
    },
    {
      "constant": true,
      "inputs": [
        {
          "name": "",
          "type": "int256"
        }
      ],
      "name": "dataFromSensorArray",
      "outputs": [
        {
          "name": "id",
          "type": "int256"
        },
        {
          "name": "temperature",
          "type": "int256"
        },
        {
          "name": "humidity",
          "type": "int256"
        },
        {
          "name": "location",
          "type": "string"
        },
        {
          "name": "light",
          "type": "int256"
        },
        {
          "name": "battery",
          "type": "int256"
        },
        {
          "name": "sensorEvent",
          "type": "string"
        },
        {
          "name": "devId",
          "type": "string"
        },
        {
          "name": "date",
          "type": "string"
        },
        {
          "name": "logs",
          "type": "string"
        }
      ],
      "payable": false,
      "stateMutability": "view",
      "type": "function",
      "signature": "0x7e8e792f"
    },
    {
      "constant": true,
      "inputs": [],
      "name": "humidityLow",
      "outputs": [
        {
          "name": "",
          "type": "int256"
        }
      ],
      "payable": false,
      "stateMutability": "view",
      "type": "function",
      "signature": "0xaa48c4d9"
    },
    {
      "constant": true,
      "inputs": [],
      "name": "humidityHigh",
      "outputs": [
        {
          "name": "",
          "type": "int256"
        }
      ],
      "payable": false,
      "stateMutability": "view",
      "type": "function",
      "signature": "0xbf964bc9"
    },
    {
      "constant": true,
      "inputs": [],
      "name": "dataId",
      "outputs": [
        {
          "name": "",
          "type": "int256"
        }
      ],
      "payable": false,
      "stateMutability": "view",
      "type": "function",
      "signature": "0xc8a663ec"
    },
    {
      "constant": true,
      "inputs": [],
      "name": "temperatureHigh",
      "outputs": [
        {
          "name": "",
          "type": "int256"
        }
      ],
      "payable": false,
      "stateMutability": "view",
      "type": "function",
      "signature": "0xec42f457"
    },
    {
      "anonymous": false,
      "inputs": [
        {
          "indexed": false,
          "name": "id",
          "type": "int256"
        },
        {
          "indexed": false,
          "name": "temperature",
          "type": "int256"
        },
        {
          "indexed": false,
          "name": "humidity",
          "type": "int256"
        },
        {
          "indexed": false,
          "name": "location",
          "type": "string"
        },
        {
          "indexed": false,
          "name": "light",
          "type": "int256"
        },
        {
          "indexed": false,
          "name": "battery",
          "type": "int256"
        },
        {
          "indexed": false,
          "name": "sensorEvent",
          "type": "string"
        },
        {
          "indexed": false,
          "name": "devId",
          "type": "string"
        },
        {
          "indexed": false,
          "name": "date",
          "type": "string"
        },
        {
          "indexed": false,
          "name": "logs",
          "type": "string"
        }
      ],
      "name": "dataFromSensorCreated",
      "type": "event",
      "signature": "0x12290b5f6337d8c62bc7af0d0342a9368b99569bb96c92772e56867bf3309fac"
    },
    {
      "constant": false,
      "inputs": [
        {
          "name": "_temperature",
          "type": "int256"
        },
        {
          "name": "_humidity",
          "type": "int256"
        },
        {
          "name": "_location",
          "type": "string"
        },
        {
          "name": "_light",
          "type": "int256"
        },
        {
          "name": "_battery",
          "type": "int256"
        },
        {
          "name": "_sensorEvent",
          "type": "string"
        },
        {
          "name": "_devId",
          "type": "string"
        },
        {
          "name": "_date",
          "type": "string"
        },
        {
          "name": "_logs",
          "type": "string"
        }
      ],
      "name": "createDataSensor",
      "outputs": [],
      "payable": false,
      "stateMutability": "nonpayable",
      "type": "function",
      "signature": "0xc541e618"
    },
    {
      "constant": false,
      "inputs": [],
      "name": "getTaskCount",
      "outputs": [
        {
          "name": "",
          "type": "int256"
        }
      ],
      "payable": false,
      "stateMutability": "nonpayable",
      "type": "function",
      "signature": "0xc17a340e"
    },
    {
      "constant": false,
      "inputs": [
        {
          "name": "_humidity",
          "type": "int256"
        }
      ],
      "name": "validateHumidityRange",
      "outputs": [
        {
          "name": "",
          "type": "bool"
        }
      ],
      "payable": false,
      "stateMutability": "nonpayable",
      "type": "function",
      "signature": "0xb13c5c17"
    },
    {
      "constant": false,
      "inputs": [
        {
          "name": "_humidity",
          "type": "int256"
        }
      ],
      "name": "validateHumidityStep",
      "outputs": [
        {
          "name": "",
          "type": "bool"
        }
      ],
      "payable": false,
      "stateMutability": "nonpayable",
      "type": "function",
      "signature": "0x5668cd4d"
    },
    {
      "constant": false,
      "inputs": [
        {
          "name": "_humidity",
          "type": "int256"
        }
      ],
      "name": "validateHumidityInternalConsistencyTest",
      "outputs": [
        {
          "name": "",
          "type": "bool"
        }
      ],
      "payable": false,
      "stateMutability": "nonpayable",
      "type": "function",
      "signature": "0xf8699737"
    },
    {
      "constant": false,
      "inputs": [
        {
          "name": "_humidity",
          "type": "int256"
        }
      ],
      "name": "validateHumidityPersistenceTest",
      "outputs": [
        {
          "name": "",
          "type": "bool"
        }
      ],
      "payable": false,
      "stateMutability": "nonpayable",
      "type": "function",
      "signature": "0x8f30ebdc"
    },
    {
      "constant": false,
      "inputs": [
        {
          "name": "_temperature",
          "type": "int256"
        }
      ],
      "name": "validateTemperatureRange",
      "outputs": [
        {
          "name": "",
          "type": "bool"
        }
      ],
      "payable": false,
      "stateMutability": "nonpayable",
      "type": "function",
      "signature": "0xed82f057"
    },
    {
      "constant": false,
      "inputs": [
        {
          "name": "_temperature",
          "type": "int256"
        }
      ],
      "name": "validateTemperatureStep",
      "outputs": [
        {
          "name": "",
          "type": "bool"
        }
      ],
      "payable": false,
      "stateMutability": "nonpayable",
      "type": "function",
      "signature": "0xc7c35ed6"
    },
    {
      "constant": false,
      "inputs": [
        {
          "name": "_temperature",
          "type": "int256"
        }
      ],
      "name": "validateTemperatureInternalConsistencyTest",
      "outputs": [
        {
          "name": "",
          "type": "bool"
        }
      ],
      "payable": false,
      "stateMutability": "nonpayable",
      "type": "function",
      "signature": "0x67913e5b"
    },
    {
      "constant": false,
      "inputs": [
        {
          "name": "_temperature",
          "type": "int256"
        }
      ],
      "name": "validateTemperaturePersistenceTest",
      "outputs": [
        {
          "name": "",
          "type": "bool"
        }
      ],
      "payable": false,
      "stateMutability": "nonpayable",
      "type": "function",
      "signature": "0x5cbd274f"
    },
    {
      "constant": false,
      "inputs": [],
      "name": "getMeanTemperatureDaily",
      "outputs": [
        {
          "name": "",
          "type": "int256"
        }
      ],
      "payable": false,
      "stateMutability": "nonpayable",
      "type": "function",
      "signature": "0x61dc6d73"
    },
    {
      "constant": false,
      "inputs": [],
      "name": "getMaxTemperatureDaily",
      "outputs": [
        {
          "name": "",
          "type": "int256"
        }
      ],
      "payable": false,
      "stateMutability": "nonpayable",
      "type": "function",
      "signature": "0x9eefc5a6"
    },
    {
      "constant": false,
      "inputs": [],
      "name": "getMinTemperatureDaily",
      "outputs": [
        {
          "name": "",
          "type": "int256"
        }
      ],
      "payable": false,
      "stateMutability": "nonpayable",
      "type": "function",
      "signature": "0x162c8c2b"
    },
    {
      "constant": false,
      "inputs": [],
      "name": "getMinTemperatureDayBefore",
      "outputs": [
        {
          "name": "",
          "type": "int256"
        }
      ],
      "payable": false,
      "stateMutability": "nonpayable",
      "type": "function",
      "signature": "0x1fdd1bf2"
    },
    {
      "constant": false,
      "inputs": [],
      "name": "getMaxTemperatureDayBefore",
      "outputs": [
        {
          "name": "",
          "type": "int256"
        }
      ],
      "payable": false,
      "stateMutability": "nonpayable",
      "type": "function",
      "signature": "0x42614fcb"
    },
    {
      "constant": false,
      "inputs": [],
      "name": "getMaxTemperature",
      "outputs": [
        {
          "name": "",
          "type": "int256"
        }
      ],
      "payable": false,
      "stateMutability": "nonpayable",
      "type": "function",
      "signature": "0x1c7bd829"
    },
    {
      "constant": false,
      "inputs": [],
      "name": "getMinTemperature",
      "outputs": [
        {
          "name": "",
          "type": "int256"
        }
      ],
      "payable": false,
      "stateMutability": "nonpayable",
      "type": "function",
      "signature": "0xad61a928"
    },
    {
      "constant": false,
      "inputs": [],
      "name": "getMaxHumidity",
      "outputs": [
        {
          "name": "",
          "type": "int256"
        }
      ],
      "payable": false,
      "stateMutability": "nonpayable",
      "type": "function",
      "signature": "0x99660d03"
    },
    {
      "constant": false,
      "inputs": [],
      "name": "getMinHumidity",
      "outputs": [
        {
          "name": "",
          "type": "int256"
        }
      ],
      "payable": false,
      "stateMutability": "nonpayable",
      "type": "function",
      "signature": "0x92c9a502"
    },
    {
      "constant": false,
      "inputs": [],
      "name": "getMaxHumidityDaily",
      "outputs": [
        {
          "name": "",
          "type": "int256"
        }
      ],
      "payable": false,
      "stateMutability": "nonpayable",
      "type": "function",
      "signature": "0x8c39b4db"
    },
    {
      "constant": false,
      "inputs": [],
      "name": "getMinHumidityDaily",
      "outputs": [
        {
          "name": "",
          "type": "int256"
        }
      ],
      "payable": false,
      "stateMutability": "nonpayable",
      "type": "function",
      "signature": "0x2d9345be"
    }
  ],
  "bytecode": "0x608060405260008055600060015561752f1960025561c3506003556103206004556201925860055534801561003357600080fd5b5061223b806100436000396000f3fe6080604052600436106101745763ffffffff7c010000000000000000000000000000000000000000000000000000000060003504166307bffff78114610179578063162c8c2b146101a05780631c7bd829146101b55780631fdd1bf2146101ca5780632d9345be146101df57806342614fcb146101f45780635668cd4d1461020957806359a5885b146102475780635cbd274f146104a457806361dc6d73146104ce57806367913e5b146104e357806377bdb1861461050d5780637e8e792f146105225780638c39b4db1461054c5780638f30ebdc1461056157806392c9a5021461058b57806399660d03146105a05780639eefc5a6146105b5578063aa48c4d9146105ca578063ad61a928146105df578063b13c5c17146105f4578063bf964bc91461061e578063c17a340e14610633578063c541e61814610648578063c7c35ed614610932578063c8a663ec1461095c578063ec42f45714610971578063ed82f05714610986578063f8699737146109b0575b600080fd5b34801561018557600080fd5b5061018e6109da565b60408051918252519081900360200190f35b3480156101ac57600080fd5b5061018e6109e0565b3480156101c157600080fd5b5061018e610a37565b3480156101d657600080fd5b5061018e610a81565b3480156101eb57600080fd5b5061018e610ad1565b34801561020057600080fd5b5061018e610b21565b34801561021557600080fd5b506102336004803603602081101561022c57600080fd5b5035610b72565b604080519115158252519081900360200190f35b34801561025357600080fd5b506102716004803603602081101561026a57600080fd5b5035610bf3565b604051808b81526020018a8152602001898152602001806020018881526020018781526020018060200180602001806020018060200186810386528d818151815260200191508051906020019080838360005b838110156102dc5781810151838201526020016102c4565b50505050905090810190601f1680156103095780820380516001836020036101000a031916815260200191505b5086810385528a5181528a516020918201918c019080838360005b8381101561033c578181015183820152602001610324565b50505050905090810190601f1680156103695780820380516001836020036101000a031916815260200191505b5086810384528951815289516020918201918b019080838360005b8381101561039c578181015183820152602001610384565b50505050905090810190601f1680156103c95780820380516001836020036101000a031916815260200191505b5086810383528851815288516020918201918a019080838360005b838110156103fc5781810151838201526020016103e4565b50505050905090810190601f1680156104295780820380516001836020036101000a031916815260200191505b50868103825287518152875160209182019189019080838360005b8381101561045c578181015183820152602001610444565b50505050905090810190601f1680156104895780820380516001836020036101000a031916815260200191505b509f5050505050505050505050505050505060405180910390f35b3480156104b057600080fd5b50610233600480360360208110156104c757600080fd5b5035610f15565b3480156104da57600080fd5b5061018e610f8f565b3480156104ef57600080fd5b506102336004803603602081101561050657600080fd5b5035610fcc565b34801561051957600080fd5b5061018e6110b2565b34801561052e57600080fd5b506102716004803603602081101561054557600080fd5b50356110b8565b34801561055857600080fd5b5061018e61114b565b34801561056d57600080fd5b506102336004803603602081101561058457600080fd5b503561119a565b34801561059757600080fd5b5061018e61120f565b3480156105ac57600080fd5b5061018e61125a565b3480156105c157600080fd5b5061018e6112a4565b3480156105d657600080fd5b5061018e6112f3565b3480156105eb57600080fd5b5061018e6112f9565b34801561060057600080fd5b506102336004803603602081101561061757600080fd5b5035611344565b34801561062a57600080fd5b5061018e611364565b34801561063f57600080fd5b5061018e61136a565b34801561065457600080fd5b50610930600480360361012081101561066c57600080fd5b81359160208101359181019060608101604082013564010000000081111561069357600080fd5b8201836020820111156106a557600080fd5b803590602001918460018302840111640100000000831117156106c757600080fd5b91908080601f016020809104026020016040519081016040528093929190818152602001838380828437600092019190915250929584359560208601359591945092506060810191506040013564010000000081111561072657600080fd5b82018360208201111561073857600080fd5b8035906020019184600183028401116401000000008311171561075a57600080fd5b91908080601f01602080910402602001604051908101604052809392919081815260200183838082843760009201919091525092959493602081019350359150506401000000008111156107ad57600080fd5b8201836020820111156107bf57600080fd5b803590602001918460018302840111640100000000831117156107e157600080fd5b91908080601f016020809104026020016040519081016040528093929190818152602001838380828437600092019190915250929594936020810193503591505064010000000081111561083457600080fd5b82018360208201111561084657600080fd5b8035906020019184600183028401116401000000008311171561086857600080fd5b91908080601f01602080910402602001604051908101604052809392919081815260200183838082843760009201919091525092959493602081019350359150506401000000008111156108bb57600080fd5b8201836020820111156108cd57600080fd5b803590602001918460018302840111640100000000831117156108ef57600080fd5b91908080601f0160208091040260200160405190810160405280939291908181526020018383808284376000920191909152509295506113ff945050505050565b005b34801561093e57600080fd5b506102336004803603602081101561095557600080fd5b5035611fd6565b34801561096857600080fd5b5061018e612110565b34801561097d57600080fd5b5061018e612116565b34801561099257600080fd5b50610233600480360360208110156109a957600080fd5b503561211c565b3480156109bc57600080fd5b50610233600480360360208110156109d357600080fd5b503561213c565b60025481565b6000633b9aca0060015b60188113610a305760008054829003815260066020526040902060010154821315610a28576000805482900381526006602052604090206001015491505b6001016109ea565b5090505b90565b6000633b9ac9ff1960015b6000548113610a3057600081815260066020526040902060010154821215610a795760008181526006602052604090206001015491505b600101610a42565b6000633b9aca0060185b60308113610a305760008054829003815260066020526040902060010154821315610ac9576000805482900381526006602052604090206001015491505b600101610a8b565b6000633b9aca0060015b60188113610a305760008054829003815260066020526040902060020154821315610b19576000805482900381526006602052604090206002015491505b600101610adb565b6000633b9ac9ff1960185b60308113610a305760008054829003815260066020526040902060010154821215610b6a576000805482900381526006602052604090206001015491505b600101610b2c565b600060016000541315610bea57600080548152600660205260408120600201548312610bb35750600080548152600660205260409020600201548203610bcb565b50600080548152600660205260409020600201548290035b62015f90811215610be0576001915050610bee565b6000915050610bee565b5060005b919050565b6007602052806000526040600020600091509050806000015490806001015490806002015490806003018054600181600116156101000203166002900480601f016020809104026020016040519081016040528092919081815260200182805460018160011615610100020316600290048015610cb15780601f10610c8657610100808354040283529160200191610cb1565b820191906000526020600020905b815481529060010190602001808311610c9457829003601f168201915b505050505090806004015490806005015490806006018054600181600116156101000203166002900480601f016020809104026020016040519081016040528092919081815260200182805460018160011615610100020316600290048015610d5b5780601f10610d3057610100808354040283529160200191610d5b565b820191906000526020600020905b815481529060010190602001808311610d3e57829003601f168201915b5050505060078301805460408051602060026001851615610100026000190190941693909304601f8101849004840282018401909252818152949594935090830182828015610deb5780601f10610dc057610100808354040283529160200191610deb565b820191906000526020600020905b815481529060010190602001808311610dce57829003601f168201915b5050505060088301805460408051602060026001851615610100026000190190941693909304601f8101849004840282018401909252818152949594935090830182828015610e7b5780601f10610e5057610100808354040283529160200191610e7b565b820191906000526020600020905b815481529060010190602001808311610e5e57829003601f168201915b5050505060098301805460408051602060026001851615610100026000190190941693909304601f8101849004840282018401909252818152949594935090830182828015610f0b5780601f10610ee057610100808354040283529160200191610f0b565b820191906000526020600020905b815481529060010190602001808311610eee57829003601f168201915b505050505090508a565b600060046000541215610f2a57506001610bee565b6000805481526006602052604090206001015482141580610f61575060008054600019018152600660205260409020600101548214155b80610f82575060008054600119018152600660205260409020600101548214155b15610bea57506001610bee565b6000808060015b60188113610fc157600080548290038152600660205260409020600190810154929092019101610f96565b506018900592915050565b60008054819060181361109f576000610fe3610f8f565b90506000610fef6112a4565b90506000610ffb6109e0565b905060008080858513801561100f57508386135b1561101957600192505b6001831515141561107957600061102e610a81565b9050600061103a610b21565b9050818713801561104b5750808613155b1561105557600193505b6001935060006110636112f9565b9050600061106f610a37565b5060019450505050505b60018115151415611094576001975050505050505050610bee565b5050505050506110a9565b6001915050610bee565b50600092915050565b60015481565b6006602052806000526040600020600091509050806000015490806001015490806002015490806003018054600181600116156101000203166002900480601f016020809104026020016040519081016040528092919081815260200182805460018160011615610100020316600290048015610cb15780601f10610c8657610100808354040283529160200191610cb1565b600061270f1960015b60188113610a305760008054829003815260066020526040902060020154821215611192576000805482900381526006602052604090206002015491505b600101611154565b600060486000541315610bea57600080546016190181526006602052604090206002015482148015906111e3575060008054602e19018152600660205260409020600201548214155b8015610f82575060008054604619018152600660205260409020600201548214610bea57506001610bee565b6000633b9aca0060015b6000548113610a305760008054815260066020526040902060020154821315611252576000805481526006602052604090206002015491505b600101611219565b6000633b9ac9ff1960015b6000548113610a305760008181526006602052604090206002015482121561129c5760008181526006602052604090206002015491505b600101611265565b600061270f1960015b60188113610a3057600080548290038152600660205260409020600101548212156112eb576000805482900381526006602052604090206001015491505b6001016112ad565b60045481565b6000633b9aca0060015b6000548113610a30576000805481526006602052604090206001015482131561133c576000805481526006602052604090206001015491505b600101611303565b60006004548212158015610f8257506005548213610bea57506001610bee565b60055481565b60003073ffffffffffffffffffffffffffffffffffffffff1663c8a663ec6040518163ffffffff167c010000000000000000000000000000000000000000000000000000000002815260040160206040518083038186803b1580156113ce57600080fd5b505afa1580156113e2573d6000803e3d6000fd5b505050506040513d60208110156113f857600080fd5b5051905090565b6000806060600061140f8d61211c565b90506001811515141561153d5760006114278e611fd6565b90506001811515141561150057600061143f8f610fcc565b90506001811515141561149a576114558f610f15565b95508515156114955760408051808201909152601a81527f74656d706572617475726550657273697374656e636554657374000000000000602082015293505b6114fa565b606060405190810160405280602281526020017f74656d7065726174757265496e7465726e616c436f6e73697374656e6379546581526020017f737400000000000000000000000000000000000000000000000000000000000081525093505b50611537565b60408051808201909152601381527f74656d7065726174757265537465705465737400000000000000000000000000602082015292505b50611574565b60408051808201909152601481527f74656d706572617475726552616e676554657374000000000000000000000000602082015291505b600061157f8d611344565b9050600185151514801561159557506001811515145b156116545760006115a58e610b72565b9050600181151514156116175760006115bd8f61213c565b9050600181151514156115da576115d38f61119a565b9550611611565b60408051808201909152601781527f68756d696469747950657273697374656e636554657374000000000000000000602082015294505b5061164e565b60408051808201909152601081527f68756d6964697479537465705465737400000000000000000000000000000000602082015293505b50611696565b600185151514156116965760408051808201909152601181527f68756d696469747952616e676554657374000000000000000000000000000000602082015292505b60018515151480156116aa57506001811515145b15611a485760008081548092919060010191905055506101406040519081016040528060005481526020018f81526020018e81526020018d81526020018c81526020018b81526020018a81526020018981526020018881526020016040805190810160405280600781526020017f73756363657373000000000000000000000000000000000000000000000000008152508152506006600080548152602001908152602001600020600082015181600001556020820151816001015560408201518160020155606082015181600301908051906020019061178c929190612177565b506080820151600482015560a0820151600582015560c082015180516117bc916006840191602090910190612177565b5060e082015180516117d8916007840191602090910190612177565b5061010082015180516117f5916008840191602090910190612177565b506101208201518051611812916009840191602090910190612177565b509050507f12290b5f6337d8c62bc7af0d0342a9368b99569bb96c92772e56867bf3309fac6000548f8f8f8f8f8f8f8f604051808a8152602001898152602001888152602001806020018781526020018681526020018060200180602001806020018060200186810386528c818151815260200191508051906020019080838360005b838110156118ad578181015183820152602001611895565b50505050905090810190601f1680156118da5780820380516001836020036101000a031916815260200191505b5086810385528951815289516020918201918b019080838360005b8381101561190d5781810151838201526020016118f5565b50505050905090810190601f16801561193a5780820380516001836020036101000a031916815260200191505b5086810384528851815288516020918201918a019080838360005b8381101561196d578181015183820152602001611955565b50505050905090810190601f16801561199a5780820380516001836020036101000a031916815260200191505b50868103835287518152875160209182019189019080838360005b838110156119cd5781810151838201526020016119b5565b50505050905090810190601f1680156119fa5780820380516001836020036101000a031916815260200191505b50958603905250506007835250507f737563636573730000000000000000000000000000000000000000000000000060208201526040805191829003019950975050505050505050a1611e12565b60018054810181558515151415611a905760408051808201909152601181527f68756d696469747952616e676554657374000000000000000000000000000000602082015292505b6101406040519081016040528060005481526020018f81526020018e81526020018d81526020018c81526020018b81526020018a8152602001898152602001888152602001848152506007600060015481526020019081526020016000206000820151816000015560208201518160010155604082015181600201556060820151816003019080519060200190611b28929190612177565b506080820151600482015560a0820151600582015560c08201518051611b58916006840191602090910190612177565b5060e08201518051611b74916007840191602090910190612177565b506101008201518051611b91916008840191602090910190612177565b506101208201518051611bae916009840191602090910190612177565b509050507f12290b5f6337d8c62bc7af0d0342a9368b99569bb96c92772e56867bf3309fac6000548f8f8f8f8f8f8f8f8c604051808b81526020018a8152602001898152602001806020018881526020018781526020018060200180602001806020018060200186810386528d818151815260200191508051906020019080838360005b83811015611c4a578181015183820152602001611c32565b50505050905090810190601f168015611c775780820380516001836020036101000a031916815260200191505b5086810385528a5181528a516020918201918c019080838360005b83811015611caa578181015183820152602001611c92565b50505050905090810190601f168015611cd75780820380516001836020036101000a031916815260200191505b5086810384528951815289516020918201918b019080838360005b83811015611d0a578181015183820152602001611cf2565b50505050905090810190601f168015611d375780820380516001836020036101000a031916815260200191505b5086810383528851815288516020918201918a019080838360005b83811015611d6a578181015183820152602001611d52565b50505050905090810190601f168015611d975780820380516001836020036101000a031916815260200191505b50868103825287518152875160209182019189019080838360005b83811015611dca578181015183820152602001611db2565b50505050905090810190601f168015611df75780820380516001836020036101000a031916815260200191505b509f5050505050505050505050505050505060405180910390a15b5050611fc8565b83811015611e31578181015183820152602001611e19565b50505050905090810190601f168015611e5e5780820380516001836020036101000a031916815260200191505b5086810385528951815289516020918201918b019080838360005b83811015611e91578181015183820152602001611e79565b50505050905090810190601f168015611ebe5780820380516001836020036101000a031916815260200191505b5086810384528851815288516020918201918a019080838360005b83811015611ef1578181015183820152602001611ed9565b50505050905090810190601f168015611f1e5780820380516001836020036101000a031916815260200191505b50868103835287518152875160209182019189019080838360005b83811015611f51578181015183820152602001611f39565b50505050905090810190601f168015611f7e5780820380516001836020036101000a031916815260200191505b50958603905250506007835250507f626174746572790000000000000000000000000000000000000000000000000060208201526040805191829003019950975050505050505050a15b505050505050505050505050565b60008054600c13612108576000805480825260066020526040808320600190810154600019840185528285208201546001198501865283862083015460041986018752848720840154600a19909601875293862090920154909491939180808080898c1261204857898c03945061204e565b8b8a0394505b888c1261205f57888c039350612065565b8b890393505b878c1261207557918b039161207b565b8b830392505b868c1261208c57868c039150612092565b8b870391505b858c126120a25750848b036120a7565b508a85035b610fa0851280156120b95750611b5884125b80156120dd57506123288312806120d15750613a9882125b806120dd57506161a881125b156120f55760019a5050505050505050505050610bee565b60009a5050505050505050505050610bee565b506001610bee565b60005481565b60035481565b60006002548212158015610f8257506003548213610bea57506001610bee565b6000805460181361216f578161215061114b565b138015610f82575081612161610ad1565b1215610bea57506001610bee565b506001919050565b828054600181600116156101000203166002900490600052602060002090601f016020900481019282601f106121b857805160ff19168380011785556121e5565b828001600101855582156121e5579182015b828111156121e55782518255916020019190600101906121ca565b506121f19291506121f5565b5090565b610a3491905b808211156121f157600081556001016121fb56fea165627a7a72305820efc5be31e7a1c4b834c7b015f4dd62c4300fd82ce035bcc3b44434a566b46d6e0029",
  "source": "pragma solidity ^0.5.0;\r\n\r\ncontract SensorData {\r\n    int public dataId = 0;\r\n    int public dataIdError = 0;\r\n\r\n    //TEMPERATURE RANGE VARIABLES\r\n    int public temperatureLow = -30000;\r\n    int public temperatureHigh = 50000;\r\n\r\n    //HUMIDITY RANGE VARIABLES\r\n    //int public humidityLow = 0.8;\r\n    int public humidityLow = 800;\r\n    int public humidityHigh = 103000;\r\n\r\n    struct dataFromSensor {\r\n        int id;\r\n        int temperature;\r\n        int humidity; //it could be fixed (int), but it isn't implemented yet in solidity (with fixed type it not compile and not migrate)\r\n        string location;\r\n        int light;\r\n        int battery;\r\n        string sensorEvent;\r\n        string devId;\r\n        string date;\r\n        string logs;\r\n    }\r\n\r\n    mapping (int => dataFromSensor) public dataFromSensorArray; //associative array/hash, where key is a unsigned int and the array's content is a instance of Task\r\n    mapping (int => dataFromSensor) public dataFromSensorErrorArray; //associative array/hash, where key is a unsigned int and the array's content is a instance of Task\r\n\r\n    //EVENT WHEN DATA SENSOR IS CREATED\r\n    event dataFromSensorCreated(\r\n        int id,\r\n        int temperature,\r\n        int humidity,\r\n        string location,\r\n        int light,\r\n        int battery,\r\n        string sensorEvent,\r\n        string devId,\r\n        string date,\r\n        string logs\r\n    );\r\n\r\n    function createDataSensor (int _temperature, int _humidity, string memory _location, int _light, \r\n        int _battery, string memory _sensorEvent, string memory _devId, string memory _date, string memory _logs) public {\r\n\r\n        //VARIABLE TO CONTROL VALIDATIONS\r\n        bool temperaturePersistenceTest = false;\r\n        bool humidityPersistenceTest =false;\r\n        string memory auxLog;\r\n\r\n        //VALIDATE RECORD ONLY IF ALREADY EXISTS DATA SAVED\r\n        //if(dataId >= 1 && _battery > 0) {\r\n        if(true) {\r\n            //--------------\r\n            //--RANGE TEST--\r\n            //--------------\r\n            bool temperatureRangeTest = validateTemperatureRange(_temperature);\r\n\r\n            if (temperatureRangeTest == true) {\r\n                //-------------\r\n                //--STEP TEST--\r\n                //-------------\r\n                bool temperatureStepTest = validateTemperatureStep(_temperature);\r\n\r\n                if(temperatureStepTest == true) {\r\n                    //-----------------------------\r\n                    //--INTERNAL CONSISTENCY TEST--\r\n                    //-----------------------------\r\n                    bool temperatureInternalConsistencyTest = validateTemperatureInternalConsistencyTest(_temperature);\r\n\r\n                    if(temperatureInternalConsistencyTest == true) {\r\n                        //-----------------------------\r\n                        //-------PERSISTENCE TEST------\r\n                        //-----------------------------\r\n\r\n                        temperaturePersistenceTest = validateTemperaturePersistenceTest(_temperature);\r\n\r\n                        if(temperaturePersistenceTest == false) {\r\n                            auxLog = \"temperaturePersistenceTest\";\r\n                        }\r\n                    }\r\n                    else {\r\n                        auxLog = \"temperatureInternalConsistencyTest\";\r\n                    }\r\n                }\r\n                else {\r\n                    auxLog = \"temperatureStepTest\";\r\n                }\r\n            }\r\n            else {\r\n                auxLog = \"temperatureRangeTest\";\r\n            }\r\n\r\n            //--------------\r\n            //--RANGE TEST--\r\n            //--------------\r\n            bool humidityRangeTest = validateHumidityRange(_humidity);\r\n\r\n            if (temperaturePersistenceTest == true && humidityRangeTest == true) {\r\n                //-------------\r\n                //--STEP TEST--\r\n                //-------------\r\n                bool humidityStepTest = validateHumidityStep(_humidity);\r\n\r\n                if(humidityStepTest == true) {\r\n                    //-----------------------------\r\n                    //--INTERNAL CONSISTENCY TEST--\r\n                    //-----------------------------\r\n                    bool humidityInternalConsistencyTest = validateHumidityInternalConsistencyTest(_humidity);\r\n\r\n                    if(humidityInternalConsistencyTest == true) {\r\n                        //-----------------------------\r\n                        //-------PERSISTENCE TEST------\r\n                        //-----------------------------\r\n\r\n                        humidityPersistenceTest = validateHumidityPersistenceTest(_humidity);\r\n                    }\r\n                    else {\r\n                        auxLog = \"humidityPersistenceTest\";\r\n                    }\r\n                }\r\n                else {\r\n                    auxLog = \"humidityStepTest\";\r\n                }\r\n            }\r\n            else if (temperaturePersistenceTest == true) {\r\n                auxLog = \"humidityRangeTest\";\r\n            }\r\n\r\n\r\n            //if(temperaturePersistenceTest == true && humidityPersistenceTest == true) {\r\n            if(temperaturePersistenceTest == true && humidityRangeTest == true) {\r\n                //DATA ID\r\n                dataId ++;\r\n\r\n                //add a instance of dataFromSensor to dataFromSensorArray\r\n                dataFromSensorArray[dataId] = dataFromSensor(dataId, _temperature, _humidity, _location, _light, _battery, _sensorEvent, _devId, _date, \"success\");\r\n\r\n                emit dataFromSensorCreated(dataId, _temperature, _humidity, _location, _light, _battery, _sensorEvent, _devId, _date, \"success\");\r\n            }\r\n            else {\r\n                //TODO: CREATE FUNCTION TO ADD VALUES TO ARRAY\r\n                //DATA ID\r\n                dataIdError ++;\r\n\r\n                if(temperaturePersistenceTest == true)\r\n                    auxLog = \"humidityRangeTest\";\r\n\r\n                //add a instance of dataFromSensor to dataFromSensorArray\r\n                dataFromSensorErrorArray[dataIdError] = dataFromSensor(dataId, _temperature, _humidity, _location, _light, _battery, _sensorEvent, _devId, _date, auxLog);\r\n\r\n                emit dataFromSensorCreated(dataId, _temperature, _humidity, _location, _light, _battery, _sensorEvent, _devId, _date, auxLog);\r\n            }\r\n        }\r\n\r\n        else {\r\n            //DATA ID\r\n            dataIdError ++;\r\n\r\n            //add a instance of dataFromSensor to dataFromSensorArray\r\n            dataFromSensorErrorArray[dataIdError] = dataFromSensor(dataId, _temperature, _humidity, _location, _light, _battery, _sensorEvent, _devId, _date, \"battery\");\r\n\r\n            emit dataFromSensorCreated(dataId, _temperature, _humidity, _location, _light, _battery, _sensorEvent, _devId, _date, \"battery\");\r\n        }\r\n\r\n        /**\r\n        if(_battery > 0 && validateValues == true) { //IF IS A VALID RECORD SAVE THIS ON CORRECT DATA ARRAY\r\n            //DATA ID\r\n            dataId ++;\r\n\r\n            //add a instance of dataFromSensor to dataFromSensorArray\r\n            dataFromSensorArray[dataId] = dataFromSensor(dataId, _temperature, _humidity, _location, _light, _battery, _sensorEvent, _devId, _date);\r\n\r\n            emit dataFromSensorCreated(dataId, _temperature, _humidity, _location, _light, _battery, _sensorEvent, _devId, _date);\r\n        }\r\n        else { //IF IS A ERROR, SAVE THIS RECORD ON ERROR'S ARRAY\r\n            //DATA ID\r\n            dataIdError ++;\r\n\r\n            //add a instance of dataFromSensor to dataFromSensorArray\r\n            dataFromSensorErrorArray[dataIdError] = dataFromSensor(dataId, _temperature, _humidity, _location, _light, _battery, _sensorEvent, _devId, _date);\r\n\r\n            emit dataFromSensorCreated(dataId, _temperature, _humidity, _location, _light, _battery, _sensorEvent, _devId, _date);\r\n        }\r\n        */\r\n    }\r\n\r\n    function getTaskCount() public returns (int) {\r\n        return this.dataId();\r\n    }\r\n\r\n\r\n    //---------------------------------\r\n    //-------HUMIDITY VALIDATIONS------\r\n    //---------------------------------\r\n\r\n    function validateHumidityRange(int _humidity) public returns (bool) {\r\n        if(_humidity >= humidityLow && _humidity <= humidityHigh)\r\n            return true;\r\n\r\n        else\r\n            return false;\r\n    }\r\n\r\n    function validateHumidityStep(int _humidity) public returns (bool) {\r\n\r\n        if (dataId > 1) {\r\n            int differenceBetweenValues;\r\n\r\n            if(_humidity >= dataFromSensorArray[dataId].humidity)\r\n                differenceBetweenValues = _humidity - dataFromSensorArray[dataId].humidity;\r\n\r\n            else\r\n                differenceBetweenValues = dataFromSensorArray[dataId].humidity - _humidity;\r\n\r\n            //TODO: THIS VALUE SHOULD BE SEMI HOURLY\r\n            //SEMI HOURLY DIFFERENCE < 45000\r\n            //TODO: READ ARTICLE\r\n            if(differenceBetweenValues < 90000) \r\n                return true;\r\n\r\n            else\r\n                return false;\r\n        }\r\n        else\r\n            return false;\r\n    }\r\n\r\n    function validateHumidityInternalConsistencyTest (int _humidity) public returns (bool) {\r\n        //RHx - Daily Maximum Relative Humidity\r\n        //RHn - Daily Minimum Relative Humidity\r\n        //RHm - Daily Mean Relative Humidity\r\n\r\n        //RHx > RHm > RHn\r\n\r\n        //RHx > max (RHsh)\r\n        //RHn < min (RHsh)\r\n\r\n        if(dataId >= 24) {\r\n            if(getMaxHumidityDaily() > _humidity && getMinHumidityDaily() < _humidity)\r\n                return true;\r\n            else\r\n                return false;\r\n        }\r\n\r\n        return true;\r\n    }\r\n\r\n    function validateHumidityPersistenceTest(int _humidity) public returns (bool) {\r\n        if (dataId > 72) {\r\n\r\n            //RH(d) != RH(d-1) != RH(d-2)\r\n            if(_humidity != dataFromSensorArray[dataId - 23].humidity && _humidity != dataFromSensorArray[dataId - 47].humidity && _humidity != dataFromSensorArray[dataId - 71].humidity)\r\n                return true;\r\n\r\n            else\r\n                return false;\r\n        } else\r\n            return false;\r\n    }\r\n\r\n    //#################################\r\n    //#################################\r\n    //#################################\r\n\r\n    //---------------------------------\r\n    //-----TEMPERATURE VALIDATIONS-----\r\n    //---------------------------------\r\n\r\n    function validateTemperatureRange(int _temperature) public returns (bool) {\r\n        if(_temperature >= temperatureLow && _temperature <= temperatureHigh)\r\n            return true;\r\n\r\n        else\r\n            return false;\r\n    }\r\n\r\n    function validateTemperatureStep (int _temperature) public returns (bool) {\r\n        //IN ALGORITHM IS CONSIDERED SEMI HOURLY VALUES, BUT IS IN SETS OF TWO (IT MEANS HOURLY LIKE OUR DATASET)\r\n        if(dataId >= 12) {\r\n            //TODO:SELECT ONLY DATA OF THIS LOCATION!!\r\n            int temperatureAtLastHour = dataFromSensorArray[dataId].temperature;\r\n            int temperatureAtTwoHoursAgo = dataFromSensorArray[dataId-1].temperature;\r\n            int temperatureAtThreeHoursAgo = dataFromSensorArray[dataId-2].temperature;\r\n            int temperatureAtSixHoursAgo = dataFromSensorArray[dataId-5].temperature;\r\n            int temperatureAtTwelveHoursAgo = dataFromSensorArray[dataId-11].temperature;\r\n\r\n        \r\n            int differenceLastHour;\r\n            int differenceLastTwoHour;\r\n            int differenceLastThreeHour;\r\n            int differenceLastSixHour;\r\n            int differenceLastTwelveHour;\r\n\r\n\r\n            if(_temperature >= temperatureAtLastHour) {\r\n                differenceLastHour = _temperature - temperatureAtLastHour;\r\n            } else {\r\n                differenceLastHour = temperatureAtLastHour - _temperature;\r\n            }\r\n\r\n            if(_temperature >= temperatureAtTwoHoursAgo) {\r\n                differenceLastTwoHour = _temperature - temperatureAtTwoHoursAgo;\r\n            } else {\r\n                differenceLastTwoHour = temperatureAtTwoHoursAgo - _temperature;\r\n            }\r\n\r\n            if(_temperature >= temperatureAtThreeHoursAgo) {\r\n                differenceLastThreeHour = _temperature - differenceLastThreeHour;\r\n            } else {\r\n                differenceLastThreeHour = differenceLastThreeHour - _temperature;\r\n            }\r\n\r\n            if(_temperature >= temperatureAtSixHoursAgo) {\r\n                differenceLastSixHour = _temperature - temperatureAtSixHoursAgo;\r\n            } else {\r\n                differenceLastSixHour = temperatureAtSixHoursAgo - _temperature;\r\n            }\r\n\r\n            if(_temperature >= temperatureAtTwelveHoursAgo) {\r\n                differenceLastTwelveHour = _temperature - temperatureAtTwelveHoursAgo;\r\n            } else {\r\n                differenceLastTwelveHour = temperatureAtTwelveHoursAgo - _temperature;\r\n            }\r\n\r\n\r\n\r\n            /**if (differenceLastHour < 0) {\r\n                differenceLastHour = differenceLastHour * -1;\r\n            }\r\n\r\n            if (differenceLastTwoHour < 0) {\r\n                differenceLastTwoHour = differenceLastTwoHour * -1;\r\n            }\r\n\r\n            if (differenceLastThreeHour < 0) {\r\n                differenceLastThreeHour = differenceLastThreeHour * -1;\r\n            }\r\n\r\n            if (differenceLastSixHour < 0) {\r\n                differenceLastSixHour = differenceLastSixHour * -1;\r\n            }\r\n\r\n            if (differenceLastTwelveHour < 0) {\r\n                differenceLastTwelveHour = differenceLastTwelveHour * -1;\r\n            }**/\r\n\r\n            //TODO:MODULE CALCS\r\n            if(differenceLastHour < 4000 && differenceLastTwoHour < 7000 && (differenceLastThreeHour < 9000 || differenceLastSixHour < 15000\r\n                || differenceLastTwelveHour < 25000))\r\n            {\r\n                return true;\r\n            }\r\n\r\n            else\r\n                return false;\r\n        }\r\n        else\r\n            return true;\r\n    }\r\n\r\n    function validateTemperatureInternalConsistencyTest (int _temperature) public returns (bool) {\r\n        int auxSum = 0;\r\n\r\n        if(dataId >= 24) {\r\n            int meanTemperatureDaily = getMeanTemperatureDaily();\r\n            int maxTemperatureDaily = getMaxTemperatureDaily();\r\n            int minTemperatureDaily = getMinTemperatureDaily();\r\n\r\n            //FIRST VERIFICATION\r\n            //Tx => Daily maximum temperature\r\n            //Tm => Daily mean temperature\r\n            //Tn => Daily minimum temperature\r\n            //Tx > Tm > Tn\r\n            bool firstVerification = false;\r\n            bool secondVerification = false;\r\n            bool thirdVerification = false;\r\n\r\n            if(maxTemperatureDaily > meanTemperatureDaily && meanTemperatureDaily > minTemperatureDaily)\r\n                firstVerification = true;\r\n\r\n            if(firstVerification == true) {\r\n                //SECOND VERIFICATION\r\n                //Tx(d) > Tn(d-1)\r\n                //Tn(d) <= Tx(d-1)\r\n                int minTemperatureDayBefore = getMinTemperatureDayBefore();\r\n                int maxTemperatureDayBefore = getMaxTemperatureDayBefore();\r\n\r\n                if(maxTemperatureDaily > minTemperatureDayBefore && minTemperatureDaily <= maxTemperatureDayBefore)\r\n                    secondVerification = true;\r\n\r\n                secondVerification = true;\r\n\r\n                if(secondVerification == true) {\r\n\r\n                    //TODO: VERIFY\r\n\r\n                    //THIRD VERIFICATION\r\n                    //Tx > max(Tsh) - ADAPTED TO HOURLY VALUES, BECAUSE DATA SET HAS ONLY HOURLY VALUES\r\n                    //Tn < min(Tsh) - ADAPTED TO HOURLY VALUES, BECAUSE DATA SET HAS ONLY HOURLY VALUES\r\n                    int minTemperature = getMinTemperature();\r\n                    int maxTemperature = getMaxTemperature();\r\n\r\n                    //if(maxTemperature > _temperature && minTemperature < _temperature)\r\n                        thirdVerification = true;\r\n                }\r\n            }\r\n\r\n            if(thirdVerification == true)\r\n                return true;\r\n        }\r\n\r\n        else\r\n            return true;\r\n\r\n        return false;\r\n    }\r\n\r\n    function validateTemperaturePersistenceTest (int _temperature) public returns (bool) {\r\n        //T(d) != T(d-1) != T(d-2); - NOT USED, OUR DATA IS HOURLY\r\n        //Tsh != Tsh-2 != Tsh-4 != Tsh-6 - ADAPTED TO HOURLY VALUES, BECAUSE DATA SET HAS ONLY HOURLY VALUES\r\n\r\n        if (dataId < 4) {\r\n            return true;\r\n        } else if((_temperature != dataFromSensorArray[dataId].temperature) || (_temperature != dataFromSensorArray[dataId-1].temperature) || (_temperature != dataFromSensorArray[dataId - 2].temperature))\r\n            return true;\r\n\r\n        return false;\r\n    }\r\n\r\n    function getMeanTemperatureDaily () public returns (int) {\r\n        int meanDailyTemperature;\r\n        int auxSum = 0;\r\n\r\n        for(int i = 1; i <= 24; i++) {\r\n            auxSum += dataFromSensorArray[dataId - i].temperature;\r\n        }\r\n\r\n        meanDailyTemperature = auxSum/24;\r\n\r\n        return meanDailyTemperature;\r\n    }\r\n\r\n    function getMaxTemperatureDaily () public returns (int) {\r\n        int maxTemperatureDaily = -10000;\r\n\r\n        for(int i = 1; i <= 24; i++) {\r\n            if(dataFromSensorArray[dataId - i].temperature > maxTemperatureDaily)\r\n                maxTemperatureDaily = dataFromSensorArray[dataId - i].temperature;\r\n        }\r\n\r\n        return maxTemperatureDaily;\r\n    }\r\n\r\n    function getMinTemperatureDaily () public returns (int) {\r\n        int minTemperatureDaily = 1000000000;\r\n\r\n        for(int i = 1; i <= 24; i++) {\r\n            if(dataFromSensorArray[dataId - i].temperature < minTemperatureDaily)\r\n                minTemperatureDaily = dataFromSensorArray[dataId - i].temperature;\r\n        }\r\n\r\n        return minTemperatureDaily;\r\n    }\r\n\r\n    function getMinTemperatureDayBefore () public returns (int) {\r\n        int minTemperatureDaily = 1000000000;\r\n\r\n        for(int i = 24; i <= 48; i++) {\r\n            if(dataFromSensorArray[dataId - i].temperature < minTemperatureDaily)\r\n                minTemperatureDaily = dataFromSensorArray[dataId - i].temperature;\r\n        }\r\n\r\n        return minTemperatureDaily;\r\n    }\r\n\r\n    function getMaxTemperatureDayBefore () public returns (int) {\r\n        int maxTemperatureDaily = -1000000000;\r\n\r\n        for(int i = 24; i <= 48; i++) {\r\n            if(dataFromSensorArray[dataId - i].temperature > maxTemperatureDaily)\r\n                maxTemperatureDaily = dataFromSensorArray[dataId - i].temperature;\r\n        }\r\n\r\n        return maxTemperatureDaily;\r\n    }\r\n\r\n    function getMaxTemperature() public returns (int) {\r\n        int maxTemperatureDaily = -1000000000;\r\n\r\n        for(int i = 1; i <= dataId; i++) {\r\n            if(dataFromSensorArray[i].temperature > maxTemperatureDaily)\r\n                maxTemperatureDaily = dataFromSensorArray[i].temperature;\r\n        }\r\n\r\n        return maxTemperatureDaily;\r\n    }\r\n\r\n    function getMinTemperature () public returns (int) {\r\n        int minTemperatureDaily = 1000000000;\r\n\r\n        for(int i = 1; i <= dataId; i++) {\r\n            if(dataFromSensorArray[dataId].temperature < minTemperatureDaily)\r\n                minTemperatureDaily = dataFromSensorArray[dataId].temperature;\r\n        }\r\n\r\n        return minTemperatureDaily;\r\n    }\r\n\r\n    function getMaxHumidity() public returns (int) {\r\n        int maxHumidity = -1000000000;\r\n\r\n        for(int i = 1; i <= dataId; i++) {\r\n            if(dataFromSensorArray[i].humidity > maxHumidity)\r\n                maxHumidity = dataFromSensorArray[i].humidity;\r\n        }\r\n\r\n        return maxHumidity;\r\n    }\r\n\r\n    function getMinHumidity () public returns (int) {\r\n        int minHumidity = 1000000000;\r\n\r\n        for(int i = 1; i <= dataId; i++) {\r\n            if(dataFromSensorArray[dataId].humidity < minHumidity)\r\n                minHumidity = dataFromSensorArray[dataId].humidity;\r\n        }\r\n\r\n        return minHumidity;\r\n    }\r\n\r\n\r\n    function getMaxHumidityDaily () public returns (int) {\r\n        int maxHumidityDaily = -10000;\r\n\r\n        for(int i = 1; i <= 24; i++) {\r\n            if(dataFromSensorArray[dataId - i].humidity > maxHumidityDaily)\r\n                maxHumidityDaily = dataFromSensorArray[dataId - i].humidity;\r\n        }\r\n\r\n        return maxHumidityDaily;\r\n    }\r\n\r\n    function getMinHumidityDaily () public returns (int) {\r\n        int minHumidityDaily = 1000000000;\r\n\r\n        for(int i = 1; i <= 24; i++) {\r\n            if(dataFromSensorArray[dataId - i].humidity < minHumidityDaily)\r\n                minHumidityDaily = dataFromSensorArray[dataId - i].humidity;\r\n        }\r\n\r\n        return minHumidityDaily;\r\n    }\r\n\r\n\r\n    //#################################\r\n    //#################################\r\n    //#################################\r\n\r\n}\r\n",
  "sourcePath": "C:/Users/marco/PersonalProjects/ttn-to-blockchain/ttnNodeApplication/contracts/SensorData.sol",
  "compiler": {
    "name": "solc",
    "version": "0.5.0+commit.1d4f565a.Emscripten.clang"
  },
  "schemaVersion": "3.0.1",
  "updatedAt": "2020-11-18T00:43:26.766Z",
  "devdoc": {
    "methods": {}
  },
  "userdoc": {
    "methods": {}
  }
}