{
  "contractName": "SensorData",
  "abi": [
    {
      "constant": true,
      "inputs": [
        {
          "name": "",
          "type": "uint256"
        }
      ],
      "name": "dataFromSensorArray",
      "outputs": [
        {
          "name": "id",
          "type": "uint256"
        },
        {
          "name": "temperature",
          "type": "uint256"
        },
        {
          "name": "light",
          "type": "uint256"
        },
        {
          "name": "battery",
          "type": "uint256"
        },
        {
          "name": "sensorEvent",
          "type": "string"
        },
        {
          "name": "devId",
          "type": "string"
        },
        {
          "name": "date",
          "type": "string"
        }
      ],
      "payable": false,
      "stateMutability": "view",
      "type": "function",
      "signature": "0x607d4c3b"
    },
    {
      "constant": true,
      "inputs": [],
      "name": "dataIdError",
      "outputs": [
        {
          "name": "",
          "type": "uint256"
        }
      ],
      "payable": false,
      "stateMutability": "view",
      "type": "function",
      "signature": "0x77bdb186"
    },
    {
      "constant": true,
      "inputs": [],
      "name": "dataId",
      "outputs": [
        {
          "name": "",
          "type": "uint256"
        }
      ],
      "payable": false,
      "stateMutability": "view",
      "type": "function",
      "signature": "0xc8a663ec"
    },
    {
      "constant": true,
      "inputs": [
        {
          "name": "",
          "type": "uint256"
        }
      ],
      "name": "dataFromSensorErrorArray",
      "outputs": [
        {
          "name": "id",
          "type": "uint256"
        },
        {
          "name": "temperature",
          "type": "uint256"
        },
        {
          "name": "light",
          "type": "uint256"
        },
        {
          "name": "battery",
          "type": "uint256"
        },
        {
          "name": "sensorEvent",
          "type": "string"
        },
        {
          "name": "devId",
          "type": "string"
        },
        {
          "name": "date",
          "type": "string"
        }
      ],
      "payable": false,
      "stateMutability": "view",
      "type": "function",
      "signature": "0xcea3fe44"
    },
    {
      "anonymous": false,
      "inputs": [
        {
          "indexed": false,
          "name": "id",
          "type": "uint256"
        },
        {
          "indexed": false,
          "name": "temperature",
          "type": "uint256"
        },
        {
          "indexed": false,
          "name": "light",
          "type": "uint256"
        },
        {
          "indexed": false,
          "name": "battery",
          "type": "uint256"
        },
        {
          "indexed": false,
          "name": "sensorEvent",
          "type": "string"
        },
        {
          "indexed": false,
          "name": "devId",
          "type": "string"
        },
        {
          "indexed": false,
          "name": "date",
          "type": "string"
        }
      ],
      "name": "dataFromSensorCreated",
      "type": "event",
      "signature": "0x5e384dfd5a4c47d8b74ae463e4ab77cc43187e26b3c43af08b68668863bfb130"
    },
    {
      "constant": false,
      "inputs": [
        {
          "name": "_temperature",
          "type": "uint256"
        },
        {
          "name": "_light",
          "type": "uint256"
        },
        {
          "name": "_battery",
          "type": "uint256"
        },
        {
          "name": "_sensorEvent",
          "type": "string"
        },
        {
          "name": "_devId",
          "type": "string"
        },
        {
          "name": "_date",
          "type": "string"
        }
      ],
      "name": "createDataSensor",
      "outputs": [],
      "payable": false,
      "stateMutability": "nonpayable",
      "type": "function",
      "signature": "0xdb26ab2e"
    },
    {
      "constant": false,
      "inputs": [],
      "name": "getTaskCount",
      "outputs": [
        {
          "name": "",
          "type": "uint256"
        }
      ],
      "payable": false,
      "stateMutability": "nonpayable",
      "type": "function",
      "signature": "0xc17a340e"
    }
  ],
  "bytecode": "0x608060405260008055600060015534801561001957600080fd5b50610d8b806100296000396000f3fe6080604052600436106100775763ffffffff7c0100000000000000000000000000000000000000000000000000000000600035041663607d4c3b811461007c57806377bdb18614610206578063c17a340e1461022d578063c8a663ec14610242578063cea3fe4414610257578063db26ab2e14610281575b600080fd5b34801561008857600080fd5b506100a66004803603602081101561009f57600080fd5b5035610457565b60405180888152602001878152602001868152602001858152602001806020018060200180602001848103845287818151815260200191508051906020019080838360005b838110156101035781810151838201526020016100eb565b50505050905090810190601f1680156101305780820380516001836020036101000a031916815260200191505b50848103835286518152865160209182019188019080838360005b8381101561016357818101518382015260200161014b565b50505050905090810190601f1680156101905780820380516001836020036101000a031916815260200191505b50848103825285518152855160209182019187019080838360005b838110156101c35781810151838201526020016101ab565b50505050905090810190601f1680156101f05780820380516001836020036101000a031916815260200191505b509a505050505050505050505060405180910390f35b34801561021257600080fd5b5061021b610645565b60408051918252519081900360200190f35b34801561023957600080fd5b5061021b61064b565b34801561024e57600080fd5b5061021b6106e1565b34801561026357600080fd5b506100a66004803603602081101561027a57600080fd5b50356106e7565b34801561028d57600080fd5b50610455600480360360c08110156102a457600080fd5b813591602081013591604082013591908101906080810160608201356401000000008111156102d257600080fd5b8201836020820111156102e457600080fd5b8035906020019184600183028401116401000000008311171561030657600080fd5b91908080601f016020809104026020016040519081016040528093929190818152602001838380828437600092019190915250929594936020810193503591505064010000000081111561035957600080fd5b82018360208201111561036b57600080fd5b8035906020019184600183028401116401000000008311171561038d57600080fd5b91908080601f01602080910402602001604051908101604052809392919081815260200183838082843760009201919091525092959493602081019350359150506401000000008111156103e057600080fd5b8201836020820111156103f257600080fd5b8035906020019184600183028401116401000000008311171561041457600080fd5b91908080601f016020809104026020016040519081016040528093929190818152602001838380828437600092019190915250929550610780945050505050565b005b6002602052806000526040600020600091509050806000015490806001015490806002015490806003015490806004018054600181600116156101000203166002900480601f01602080910402602001604051908101604052809291908181526020018280546001816001161561010002031660029004801561051b5780601f106104f05761010080835404028352916020019161051b565b820191906000526020600020905b8154815290600101906020018083116104fe57829003601f168201915b5050505060058301805460408051602060026001851615610100026000190190941693909304601f81018490048402820184019092528181529495949350908301828280156105ab5780601f10610580576101008083540402835291602001916105ab565b820191906000526020600020905b81548152906001019060200180831161058e57829003601f168201915b5050505060068301805460408051602060026001851615610100026000190190941693909304601f810184900484028201840190925281815294959493509083018282801561063b5780601f106106105761010080835404028352916020019161063b565b820191906000526020600020905b81548152906001019060200180831161061e57829003601f168201915b5050505050905087565b60015481565b60003073ffffffffffffffffffffffffffffffffffffffff1663c8a663ec6040518163ffffffff167c010000000000000000000000000000000000000000000000000000000002815260040160206040518083038186803b1580156106af57600080fd5b505afa1580156106c3573d6000803e3d6000fd5b505050506040513d60208110156106d957600080fd5b505190505b90565b60005481565b6003602052806000526040600020600091509050806000015490806001015490806002015490806003015490806004018054600181600116156101000203166002900480601f01602080910402602001604051908101604052809291908181526020018280546001816001161561010002031660029004801561051b5780601f106104f05761010080835404028352916020019161051b565b600054600190811161081457600080548152600260208190526040909120600181015481830154600390920154838204939182029282810492908102918181049102818b1180156107d05750808b105b80156107e55750858d1180156107e55750848d105b80156107fa5750838c1180156107fa5750828c105b15610808576001965061080d565b600096505b5050505050505b60008511801561082657506001811515145b15610a75576000805460019081018083556040805160e08101825282815260208082018d81528284018d8152606084018d8152608085018d815260a086018d905260c086018c90529689526002808552959098208451815591519682019690965594519285019290925593516003840155905180516108ab9260048501920190610cc7565b5060a082015180516108c7916005840191602090910190610cc7565b5060c082015180516108e3916006840191602090910190610cc7565b509050507f5e384dfd5a4c47d8b74ae463e4ab77cc43187e26b3c43af08b68668863bfb13060005488888888888860405180888152602001878152602001868152602001858152602001806020018060200180602001848103845287818151815260200191508051906020019080838360005b8381101561096e578181015183820152602001610956565b50505050905090810190601f16801561099b5780820380516001836020036101000a031916815260200191505b50848103835286518152865160209182019188019080838360005b838110156109ce5781810151838201526020016109b6565b50505050905090810190601f1680156109fb5780820380516001836020036101000a031916815260200191505b50848103825285518152855160209182019187019080838360005b83811015610a2e578181015183820152602001610a16565b50505050905090810190601f168015610a5b5780820380516001836020036101000a031916815260200191505b509a505050505050505050505060405180910390a1610cbe565b6001805481018082556040805160e08101825260008054825260208083018d81528385018d8152606085018d8152608086018d815260a087018d905260c087018c9052978552600380855296909420855181559151978201979097559551600287015590519285019290925591518051929392610af89260048501920190610cc7565b5060a08201518051610b14916005840191602090910190610cc7565b5060c08201518051610b30916006840191602090910190610cc7565b509050507f5e384dfd5a4c47d8b74ae463e4ab77cc43187e26b3c43af08b68668863bfb13060005488888888888860405180888152602001878152602001868152602001858152602001806020018060200180602001848103845287818151815260200191508051906020019080838360005b83811015610bbb578181015183820152602001610ba3565b50505050905090810190601f168015610be85780820380516001836020036101000a031916815260200191505b50848103835286518152865160209182019188019080838360005b83811015610c1b578181015183820152602001610c03565b50505050905090810190601f168015610c485780820380516001836020036101000a031916815260200191505b50848103825285518152855160209182019187019080838360005b83811015610c7b578181015183820152602001610c63565b50505050905090810190601f168015610ca85780820380516001836020036101000a031916815260200191505b509a505050505050505050505060405180910390a15b50505050505050565b828054600181600116156101000203166002900490600052602060002090601f016020900481019282601f10610d0857805160ff1916838001178555610d35565b82800160010185558215610d35579182015b82811115610d35578251825591602001919060010190610d1a565b50610d41929150610d45565b5090565b6106de91905b80821115610d415760008155600101610d4b56fea165627a7a723058208a1a0979f6ebe34c9a488f9b7eb5ef69009ec533005d2d018ab2a95347e684930029",
  "source": "pragma solidity ^0.5.0;\n\ncontract SensorData {\n    uint public dataId = 0;\n    uint public dataIdError = 0;\n\n    struct dataFromSensor {\n        uint id;\n        uint temperature;\n        uint light;\n        uint battery;\n        string sensorEvent;\n        string devId;\n        string date;\n    }\n\n    mapping (uint => dataFromSensor) public dataFromSensorArray; //associative array/hash, where key is a unsigned int and the array's content is a instance of Task\n    mapping (uint => dataFromSensor) public dataFromSensorErrorArray; //associative array/hash, where key is a unsigned int and the array's content is a instance of Task\n\n    //EVENT WHEN DATA SENSOR IS CREATED\n    event dataFromSensorCreated(\n        uint id,\n        uint temperature,\n        uint light,\n        uint battery,\n        string sensorEvent,\n        string devId,\n        string date\n    );\n\n    function createDataSensor (uint _temperature, uint _light, uint _battery, string memory _sensorEvent, string memory _devId, string memory _date) public {\n        bool validateValues = true;\n\n        if(dataId >= 1) {\n            //TEMPERATURE\n            uint halfTemperatureSensorData = dataFromSensorArray[dataId].temperature/2;\n            uint doubleTemperatureSensorData = dataFromSensorArray[dataId].temperature*2;\n\n            ///LIGHT\n            uint halfLightSensorData = dataFromSensorArray[dataId].light/2;\n            uint doubleLightSensorData = dataFromSensorArray[dataId].light*2;\n\n            //BATTERY\n            uint halfBatterySensorData = dataFromSensorArray[dataId].battery/2;\n            uint doubleBatterySensorData = dataFromSensorArray[dataId].battery*2;\n\n            //VALIDATE IF VALUES IS BETWEEN DEFINED VALUES\n            if ((_battery > halfBatterySensorData && _battery < doubleBatterySensorData) &&\n                (_temperature > halfTemperatureSensorData && _temperature < doubleTemperatureSensorData) &&\n                (_light > halfLightSensorData && _light < doubleLightSensorData)) {\n                validateValues = true;\n            }\n            else {\n                validateValues = false;\n            }\n        }\n\n        if(_battery > 0 && validateValues == true) {\n            //DATA ID\n            dataId ++;\n\n            //add a instance of dataFromSensor to dataFromSensorArray\n            dataFromSensorArray[dataId] = dataFromSensor(dataId, _temperature, _light, _battery, _sensorEvent, _devId, _date);\n\n            emit dataFromSensorCreated(dataId, _temperature, _light, _battery, _sensorEvent, _devId, _date);\n        }\n        else {\n            //DATA ID\n            dataIdError ++;\n\n            //add a instance of dataFromSensor to dataFromSensorArray\n            dataFromSensorErrorArray[dataIdError] = dataFromSensor(dataId, _temperature, _light, _battery, _sensorEvent, _devId, _date);\n\n            emit dataFromSensorCreated(dataId, _temperature, _light, _battery, _sensorEvent, _devId, _date);\n        }\n    }\n\n    function getTaskCount() public returns (uint) {\n        return this.dataId();\n    }\n\n}",
  "sourcePath": "/Users/marcosequeira/ttn-to-blockchain/ttnNodeApplication/contracts/SensorData.sol",
  "compiler": {
    "name": "solc",
    "version": "0.5.0+commit.1d4f565a.Emscripten.clang"
  },
  "schemaVersion": "3.0.1",
  "updatedAt": "2019-09-22T21:23:14.674Z",
  "devdoc": {
    "methods": {}
  },
  "userdoc": {
    "methods": {}
  }
}