{
  "contractName": "SensorData",
  "abi": [
    {
      "constant": true,
      "inputs": [],
      "name": "receivedBattery",
      "outputs": [
        {
          "name": "",
          "type": "uint256"
        }
      ],
      "payable": false,
      "stateMutability": "view",
      "type": "function",
      "signature": "0x5890f0d9"
    },
    {
      "constant": true,
      "inputs": [
        {
          "name": "",
          "type": "uint256"
        }
      ],
      "name": "dataFromSensorArray",
      "outputs": [
        {
          "name": "id",
          "type": "uint256"
        },
        {
          "name": "temperature",
          "type": "uint256"
        },
        {
          "name": "light",
          "type": "uint256"
        },
        {
          "name": "battery",
          "type": "uint256"
        },
        {
          "name": "sensorEvent",
          "type": "string"
        },
        {
          "name": "devId",
          "type": "string"
        },
        {
          "name": "date",
          "type": "string"
        },
        {
          "name": "responseFromApi",
          "type": "uint256"
        },
        {
          "name": "responseFromApi2",
          "type": "uint256"
        }
      ],
      "payable": false,
      "stateMutability": "view",
      "type": "function",
      "signature": "0x607d4c3b"
    },
    {
      "constant": true,
      "inputs": [],
      "name": "receivedDate",
      "outputs": [
        {
          "name": "",
          "type": "string"
        }
      ],
      "payable": false,
      "stateMutability": "view",
      "type": "function",
      "signature": "0x726f0f3a"
    },
    {
      "constant": true,
      "inputs": [],
      "name": "dataIdError",
      "outputs": [
        {
          "name": "",
          "type": "uint256"
        }
      ],
      "payable": false,
      "stateMutability": "view",
      "type": "function",
      "signature": "0x77bdb186"
    },
    {
      "constant": true,
      "inputs": [],
      "name": "receivedSensorEvent",
      "outputs": [
        {
          "name": "",
          "type": "string"
        }
      ],
      "payable": false,
      "stateMutability": "view",
      "type": "function",
      "signature": "0x7806dc89"
    },
    {
      "constant": true,
      "inputs": [],
      "name": "receivedDevId",
      "outputs": [
        {
          "name": "",
          "type": "string"
        }
      ],
      "payable": false,
      "stateMutability": "view",
      "type": "function",
      "signature": "0xb5d13792"
    },
    {
      "constant": true,
      "inputs": [],
      "name": "receivedLight",
      "outputs": [
        {
          "name": "",
          "type": "uint256"
        }
      ],
      "payable": false,
      "stateMutability": "view",
      "type": "function",
      "signature": "0xb9ef6d78"
    },
    {
      "constant": true,
      "inputs": [],
      "name": "receivedTemperature",
      "outputs": [
        {
          "name": "",
          "type": "uint256"
        }
      ],
      "payable": false,
      "stateMutability": "view",
      "type": "function",
      "signature": "0xc150a3c5"
    },
    {
      "constant": true,
      "inputs": [],
      "name": "dataId",
      "outputs": [
        {
          "name": "",
          "type": "uint256"
        }
      ],
      "payable": false,
      "stateMutability": "view",
      "type": "function",
      "signature": "0xc8a663ec"
    },
    {
      "constant": true,
      "inputs": [
        {
          "name": "",
          "type": "uint256"
        }
      ],
      "name": "dataFromSensorErrorArray",
      "outputs": [
        {
          "name": "id",
          "type": "uint256"
        },
        {
          "name": "temperature",
          "type": "uint256"
        },
        {
          "name": "light",
          "type": "uint256"
        },
        {
          "name": "battery",
          "type": "uint256"
        },
        {
          "name": "sensorEvent",
          "type": "string"
        },
        {
          "name": "devId",
          "type": "string"
        },
        {
          "name": "date",
          "type": "string"
        },
        {
          "name": "responseFromApi",
          "type": "uint256"
        },
        {
          "name": "responseFromApi2",
          "type": "uint256"
        }
      ],
      "payable": false,
      "stateMutability": "view",
      "type": "function",
      "signature": "0xcea3fe44"
    },
    {
      "anonymous": false,
      "inputs": [
        {
          "indexed": false,
          "name": "description",
          "type": "string"
        }
      ],
      "name": "LogNewProvableQuery",
      "type": "event",
      "signature": "0xc4dc360d0a9c0677a3379ae0a3d81e887f761e65fdf3d7e00859d1bcd3c47389"
    },
    {
      "anonymous": false,
      "inputs": [
        {
          "indexed": false,
          "name": "id",
          "type": "uint256"
        },
        {
          "indexed": false,
          "name": "temperature",
          "type": "uint256"
        },
        {
          "indexed": false,
          "name": "light",
          "type": "uint256"
        },
        {
          "indexed": false,
          "name": "battery",
          "type": "uint256"
        },
        {
          "indexed": false,
          "name": "sensorEvent",
          "type": "string"
        },
        {
          "indexed": false,
          "name": "devId",
          "type": "string"
        },
        {
          "indexed": false,
          "name": "date",
          "type": "string"
        },
        {
          "indexed": false,
          "name": "responseFromApi",
          "type": "uint256"
        },
        {
          "indexed": false,
          "name": "responseFromApi2",
          "type": "uint256"
        }
      ],
      "name": "dataFromSensorCreated",
      "type": "event",
      "signature": "0xab7e3cc60600458d672909142ec235e3cd41426614881003ab17cd27c379c6e2"
    },
    {
      "constant": false,
      "inputs": [
        {
          "name": "myid",
          "type": "bytes32"
        },
        {
          "name": "result",
          "type": "string"
        }
      ],
      "name": "__callback",
      "outputs": [],
      "payable": false,
      "stateMutability": "nonpayable",
      "type": "function",
      "signature": "0x27dc297e"
    },
    {
      "constant": false,
      "inputs": [
        {
          "name": "_myid",
          "type": "bytes32"
        },
        {
          "name": "_result",
          "type": "string"
        },
        {
          "name": "_proof",
          "type": "bytes"
        }
      ],
      "name": "__callback",
      "outputs": [],
      "payable": false,
      "stateMutability": "nonpayable",
      "type": "function",
      "signature": "0x38bbfa50"
    },
    {
      "constant": false,
      "inputs": [
        {
          "name": "_temperature",
          "type": "uint256"
        },
        {
          "name": "_light",
          "type": "uint256"
        },
        {
          "name": "_battery",
          "type": "uint256"
        },
        {
          "name": "_sensorEvent",
          "type": "string"
        },
        {
          "name": "_devId",
          "type": "string"
        },
        {
          "name": "_date",
          "type": "string"
        }
      ],
      "name": "createDataSensor",
      "outputs": [],
      "payable": true,
      "stateMutability": "payable",
      "type": "function",
      "signature": "0xdb26ab2e"
    },
    {
      "constant": false,
      "inputs": [],
      "name": "getTaskCount",
      "outputs": [
        {
          "name": "",
          "type": "uint256"
        }
      ],
      "payable": false,
      "stateMutability": "nonpayable",
      "type": "function",
      "signature": "0xc17a340e"
    }
  ],
  "bytecode": "0x60806040526000600555600060065534801561001a57600080fd5b5061217d8061002a6000396000f3fe6080604052600436106100b65763ffffffff60e060020a60003504166327dc297e81146100bb57806338bbfa50146101775780635890f0d9146102b8578063607d4c3b146102df578063726f0f3a1461047757806377bdb186146105015780637806dc8914610516578063b5d137921461052b578063b9ef6d7814610540578063c150a3c514610555578063c17a340e1461056a578063c8a663ec1461057f578063cea3fe4414610594578063db26ab2e146105be575b600080fd5b3480156100c757600080fd5b50610175600480360360408110156100de57600080fd5b8135919081019060408101602082013564010000000081111561010057600080fd5b82018360208201111561011257600080fd5b8035906020019184600183028401116401000000008311171561013457600080fd5b91908080601f016020809104026020016040519081016040528093929190818152602001838380828437600092019190915250929550610785945050505050565b005b34801561018357600080fd5b506101756004803603606081101561019a57600080fd5b813591908101906040810160208201356401000000008111156101bc57600080fd5b8201836020820111156101ce57600080fd5b803590602001918460018302840111640100000000831117156101f057600080fd5b91908080601f016020809104026020016040519081016040528093929190818152602001838380828437600092019190915250929594936020810193503591505064010000000081111561024357600080fd5b82018360208201111561025557600080fd5b8035906020019184600183028401116401000000008311171561027757600080fd5b91908080601f016020809104026020016040519081016040528093929190818152602001838380828437600092019190915250929550610a23945050505050565b3480156102c457600080fd5b506102cd610a54565b60408051918252519081900360200190f35b3480156102eb57600080fd5b506103096004803603602081101561030257600080fd5b5035610a5a565b604051808a8152602001898152602001888152602001878152602001806020018060200180602001868152602001858152602001848103845289818151815260200191508051906020019080838360005b8381101561037257818101518382015260200161035a565b50505050905090810190601f16801561039f5780820380516001836020036101000a031916815260200191505b5084810383528851815288516020918201918a019080838360005b838110156103d25781810151838201526020016103ba565b50505050905090810190601f1680156103ff5780820380516001836020036101000a031916815260200191505b50848103825287518152875160209182019189019080838360005b8381101561043257818101518382015260200161041a565b50505050905090810190601f16801561045f5780820380516001836020036101000a031916815260200191505b509c5050505050505050505050505060405180910390f35b34801561048357600080fd5b5061048c610c54565b6040805160208082528351818301528351919283929083019185019080838360005b838110156104c65781810151838201526020016104ae565b50505050905090810190601f1680156104f35780820380516001836020036101000a031916815260200191505b509250505060405180910390f35b34801561050d57600080fd5b506102cd610ce2565b34801561052257600080fd5b5061048c610ce8565b34801561053757600080fd5b5061048c610d43565b34801561054c57600080fd5b506102cd610d9e565b34801561056157600080fd5b506102cd610da4565b34801561057657600080fd5b506102cd610daa565b34801561058b57600080fd5b506102cd610e1a565b3480156105a057600080fd5b50610309600480360360208110156105b757600080fd5b5035610e20565b610175600480360360c08110156105d457600080fd5b8135916020810135916040820135919081019060808101606082013564010000000081111561060257600080fd5b82018360208201111561061457600080fd5b8035906020019184600183028401116401000000008311171561063657600080fd5b91908080601f016020809104026020016040519081016040528093929190818152602001838380828437600092019190915250929594936020810193503591505064010000000081111561068957600080fd5b82018360208201111561069b57600080fd5b803590602001918460018302840111640100000000831117156106bd57600080fd5b91908080601f016020809104026020016040519081016040528093929190818152602001838380828437600092019190915250929594936020810193503591505064010000000081111561071057600080fd5b82018360208201111561072257600080fd5b8035906020019184600183028401116401000000008311171561074457600080fd5b91908080601f016020809104026020016040519081016040528093929190818152602001838380828437600092019190915250929550610eb9945050505050565b61078d6114cb565b600160a060020a031633146107a157600080fd5b80516107b49060079060208401906120b9565b50604080516101208101825260208082526017818301908152602b83850190815261014d6060850190815285518087018752601381527f726563656976656453656e736f724576656e7400000000000000000000000000818601526080860190815286518088018852600d81527f72656365697665644465764964000000000000000000000000000000000000008187015260a087015286518088018852600c81527f72656365697665644461746500000000000000000000000000000000000000008187015260c087015260f360e087018190526101008701526005546000908152600e865296909620855181559251600184015590516002830155516003820155925180519293926108ce92600485019201906120b9565b5060a082015180516108ea9160058401916020909101906120b9565b5060c082015180516109069160068401916020909101906120b9565b5060e082810151600783015561010092830151600890920191909155604080516020808252601790820152602b8183015261014d606082015260f392810183905292830191909152610120608083018190526013908301527f726563656976656453656e736f724576656e740000000000000000000000000061014083015261016060a08301819052600d908301527f72656365697665644465764964000000000000000000000000000000000000006101808301526101a060c08301819052600c908301527f72656365697665644461746500000000000000000000000000000000000000006101c0830152517fab7e3cc60600458d672909142ec235e3cd41426614881003ab17cd27c379c6e2918190036101e00190a15050565b5050600080805260036020527f3617319a054d772f909f7c479a2cebe5066e836a939412e32403c99029b92eff5550565b600a5481565b600e602052806000526040600020600091509050806000015490806001015490806002015490806003015490806004018054600181600116156101000203166002900480601f016020809104026020016040519081016040528092919081815260200182805460018160011615610100020316600290048015610b1e5780601f10610af357610100808354040283529160200191610b1e565b820191906000526020600020905b815481529060010190602001808311610b0157829003601f168201915b5050505060058301805460408051602060026001851615610100026000190190941693909304601f8101849004840282018401909252818152949594935090830182828015610bae5780601f10610b8357610100808354040283529160200191610bae565b820191906000526020600020905b815481529060010190602001808311610b9157829003601f168201915b5050505060068301805460408051602060026001851615610100026000190190941693909304601f8101849004840282018401909252818152949594935090830182828015610c3e5780601f10610c1357610100808354040283529160200191610c3e565b820191906000526020600020905b815481529060010190602001808311610c2157829003601f168201915b5050505050908060070154908060080154905089565b600d805460408051602060026001851615610100026000190190941693909304601f81018490048402820184019092528181529291830182828015610cda5780601f10610caf57610100808354040283529160200191610cda565b820191906000526020600020905b815481529060010190602001808311610cbd57829003601f168201915b505050505081565b60065481565b600b805460408051602060026001851615610100026000190190941693909304601f81018490048402820184019092528181529291830182828015610cda5780601f10610caf57610100808354040283529160200191610cda565b600c805460408051602060026001851615610100026000190190941693909304601f81018490048402820184019092528181529291830182828015610cda5780601f10610caf57610100808354040283529160200191610cda565b60095481565b60085481565b600030600160a060020a031663c8a663ec6040518163ffffffff1660e060020a02815260040160206040518083038186803b158015610de857600080fd5b505afa158015610dfc573d6000803e3d6000fd5b505050506040513d6020811015610e1257600080fd5b505190505b90565b60055481565b600f602052806000526040600020600091509050806000015490806001015490806002015490806003015490806004018054600181600116156101000203166002900480601f016020809104026020016040519081016040528092919081815260200182805460018160011615610100020316600290048015610b1e5780601f10610af357610100808354040283529160200191610b1e565b6005546001908111610f4e576005546000908152600e602052604090206001810154600280830154600390930154818304939282029282810492908102918181049102818b118015610f0a5750808b105b8015610f1f5750858d118015610f1f5750848d105b8015610f345750838c118015610f345750828c105b15610f425760019650610f47565b600096505b5050505050505b600085118015610f6057506001811515145b1561139b5760058054600101905560088790556009869055600a8590558351610f9090600b9060208701906120b9565b508251610fa490600c9060208601906120b9565b508151610fb890600d9060208501906120b9565b50604080518082019091526003815260ea60020a62155493026020820152303190610fe29061168c565b106110bd576110b760408051908101604052806003815260200160ea60020a621554930281525060a060405190810160405280607281526020017f6a736f6e2868747470733a2f2f73616d706c65732e6f70656e7765617468657281526020017f6d61702e6f72672f646174612f322e352f776561746865723f6c61743d33352681526020017f6c6f6e3d3133392661707069643d62363930376432383965313064373134613681526020017f6538386233303736316661653232292e696400000000000000000000000000008152506118f7565b50611396565b61012060405190810160405280600554815260200188815260200187815260200186815260200185815260200184815260200183815260200130600160a060020a031631815260200161112d60408051908101604052806003815260200160ea60020a621554930281525061168c565b90526005546000908152600e602090815260409182902083518155838201516001820155918301516002830155606083015160038301556080830151805161117b92600485019201906120b9565b5060a082015180516111979160058401916020909101906120b9565b5060c082015180516111b39160068401916020909101906120b9565b5060e0820151816007015561010082015181600801559050507fab7e3cc60600458d672909142ec235e3cd41426614881003ab17cd27c379c6e260055488888888888830600160a060020a03163161122860408051908101604052806003815260200160ea60020a621554930281525061168c565b604051808a8152602001898152602001888152602001878152602001806020018060200180602001868152602001858152602001848103845289818151815260200191508051906020019080838360005b83811015611291578181015183820152602001611279565b50505050905090810190601f1680156112be5780820380516001836020036101000a031916815260200191505b5084810383528851815288516020918201918a019080838360005b838110156112f15781810151838201526020016112d9565b50505050905090810190601f16801561131e5780820380516001836020036101000a031916815260200191505b50848103825287518152875160209182019189019080838360005b83811015611351578181015183820152602001611339565b50505050905090810190601f16801561137e5780820380516001836020036101000a031916815260200191505b509c5050505050505050505050505060405180910390a15b6114c2565b6006805460010190556040805180820182526003815260ea60020a6215549302602080830191909152825160a081018452607281527f6a736f6e2868747470733a2f2f73616d706c65732e6f70656e77656174686572918101919091527f6d61702e6f72672f646174612f322e352f776561746865723f6c61743d333526928101929092527f6c6f6e3d3133392661707069643d62363930376432383965313064373134613660608301527f6538386233303736316661653232292e696400000000000000000000000000006080830152611475916118f7565b5060088790556009869055600a859055835161149890600b9060208701906120b9565b5082516114ac90600c9060208601906120b9565b5081516114c090600d9060208501906120b9565b505b50505050505050565b600154600090600160a060020a031615806114f857506001546114f690600160a060020a0316611cef565b155b15611509576115076000611cf3565b505b600160009054906101000a9004600160a060020a0316600160a060020a03166338cc48316040518163ffffffff1660e060020a028152600401602060405180830381600087803b15801561155c57600080fd5b505af1158015611570573d6000803e3d6000fd5b505050506040513d602081101561158657600080fd5b5051600054600160a060020a0390811691161461163c57600160009054906101000a9004600160a060020a0316600160a060020a03166338cc48316040518163ffffffff1660e060020a028152600401602060405180830381600087803b1580156115f057600080fd5b505af1158015611604573d6000803e3d6000fd5b505050506040513d602081101561161a57600080fd5b505160008054600160a060020a031916600160a060020a039092169190911790555b6000809054906101000a9004600160a060020a0316600160a060020a031663c281d19e6040518163ffffffff1660e060020a02815260040160206040518083038186803b158015610de857600080fd5b600154600090600160a060020a031615806116b957506001546116b790600160a060020a0316611cef565b155b156116ca576116c86000611cf3565b505b600160009054906101000a9004600160a060020a0316600160a060020a03166338cc48316040518163ffffffff1660e060020a028152600401602060405180830381600087803b15801561171d57600080fd5b505af1158015611731573d6000803e3d6000fd5b505050506040513d602081101561174757600080fd5b5051600054600160a060020a039081169116146117fd57600160009054906101000a9004600160a060020a0316600160a060020a03166338cc48316040518163ffffffff1660e060020a028152600401602060405180830381600087803b1580156117b157600080fd5b505af11580156117c5573d6000803e3d6000fd5b505050506040513d60208110156117db57600080fd5b505160008054600160a060020a031916600160a060020a039092169190911790555b600080546040517f524f3889000000000000000000000000000000000000000000000000000000008152602060048201818152865160248401528651600160a060020a039094169463524f3889948894929384936044019290860191908190849084905b83811015611879578181015183820152602001611861565b50505050905090810190601f1680156118a65780820380516001836020036101000a031916815260200191505b5092505050602060405180830381600087803b1580156118c557600080fd5b505af11580156118d9573d6000803e3d6000fd5b505050506040513d60208110156118ef57600080fd5b505192915050565b600154600090600160a060020a03161580611924575060015461192290600160a060020a0316611cef565b155b15611935576119336000611cf3565b505b600160009054906101000a9004600160a060020a0316600160a060020a03166338cc48316040518163ffffffff1660e060020a028152600401602060405180830381600087803b15801561198857600080fd5b505af115801561199c573d6000803e3d6000fd5b505050506040513d60208110156119b257600080fd5b5051600054600160a060020a03908116911614611a6857600160009054906101000a9004600160a060020a0316600160a060020a03166338cc48316040518163ffffffff1660e060020a028152600401602060405180830381600087803b158015611a1c57600080fd5b505af1158015611a30573d6000803e3d6000fd5b505050506040513d6020811015611a4657600080fd5b505160008054600160a060020a031916600160a060020a039092169190911790555b600080546040517f524f3889000000000000000000000000000000000000000000000000000000008152602060048201818152875160248401528751600160a060020a039094169363524f38899389938392604490920191908501908083838b5b83811015611ae1578181015183820152602001611ac9565b50505050905090810190601f168015611b0e5780820380516001836020036101000a031916815260200191505b5092505050602060405180830381600087803b158015611b2d57600080fd5b505af1158015611b41573d6000803e3d6000fd5b505050506040513d6020811015611b5757600080fd5b50519050670de0b6b3a764000062030d403a0201811115611b7c575060009050611ce9565b600080546040517fadf59f9900000000000000000000000000000000000000000000000000000000815260048101838152606060248301908152885160648401528851600160a060020a039094169463adf59f9994879491938b938b9391929091604481019160849091019060208701908083838b5b83811015611c0a578181015183820152602001611bf2565b50505050905090810190601f168015611c375780820380516001836020036101000a031916815260200191505b50838103825284518152845160209182019186019080838360005b83811015611c6a578181015183820152602001611c52565b50505050905090810190601f168015611c975780820380516001836020036101000a031916815260200191505b50955050505050506020604051808303818588803b158015611cb857600080fd5b505af1158015611ccc573d6000803e3d6000fd5b50505050506040513d6020811015611ce357600080fd5b50519150505b92915050565b3b90565b6000611ce9600080611d18731d3b2638a7cc9f2cb3d298a3da7a90b67e5506ed611cef565b1115611d895760018054600160a060020a031916731d3b2638a7cc9f2cb3d298a3da7a90b67e5506ed17905560408051808201909152600b81527f6574685f6d61696e6e65740000000000000000000000000000000000000000006020820152611d81906120a2565b506001610e17565b6000611da873c03a2615d5efaf5f49f60b7bb6583eaec212fdf1611cef565b1115611e115760018054600160a060020a03191673c03a2615d5efaf5f49f60b7bb6583eaec212fdf117905560408051808201909152600c81527f6574685f726f707374656e3300000000000000000000000000000000000000006020820152611d81906120a2565b6000611e3073b7a07bcf2ba2f2703b24c0691b5278999c59ac7e611cef565b1115611e995760018054600160a060020a03191673b7a07bcf2ba2f2703b24c0691b5278999c59ac7e17905560408051808201909152600981527f6574685f6b6f76616e00000000000000000000000000000000000000000000006020820152611d81906120a2565b6000611eb873146500cfd35b22e4a392fe0adc06de1a1368ed48611cef565b1115611f215760018054600160a060020a03191673146500cfd35b22e4a392fe0adc06de1a1368ed4817905560408051808201909152600b81527f6574685f72696e6b6562790000000000000000000000000000000000000000006020820152611d81906120a2565b6000611f4073a2998efd205fb9d4b4963afb70778d6354ad3a41611cef565b1115611fa95760018054600160a060020a03191673a2998efd205fb9d4b4963afb70778d6354ad3a4117905560408051808201909152600a81527f6574685f676f65726c69000000000000000000000000000000000000000000006020820152611d81906120a2565b6000611fc8736f485c8bf6fc43ea212e93bbf8ce046c7f1cb475611cef565b1115611ffa575060018054600160a060020a031916736f485c8bf6fc43ea212e93bbf8ce046c7f1cb475178155610e17565b60006120197320e12a1f859b3feae5fb2a0a32c18f5a65555bbf611cef565b111561204b575060018054600160a060020a0319167320e12a1f859b3feae5fb2a0a32c18f5a65555bbf178155610e17565b600061206a7351efaf4c8b3c9afbd5ab9f4bbc82784ab6ef8faa611cef565b111561209c575060018054600160a060020a0319167351efaf4c8b3c9afbd5ab9f4bbc82784ab6ef8faa178155610e17565b50600090565b80516120b59060029060208401906120b9565b5050565b828054600181600116156101000203166002900490600052602060002090601f016020900481019282601f106120fa57805160ff1916838001178555612127565b82800160010185558215612127579182015b8281111561212757825182559160200191906001019061210c565b50612133929150612137565b5090565b610e1791905b80821115612133576000815560010161213d56fea165627a7a723058204d463b03d73be2b8a4bb218c3d78b1afcab658956ffb6ade3c049198b9686a100029",
  "source": "pragma solidity ^0.5.0;\nimport \"./provableAPI_0.5.sol\";\n\ncontract SensorData is usingProvable {\n    uint public dataId = 0;\n    uint public dataIdError = 0;\n    string queryResult;\n\n\n    uint public receivedTemperature;\n    uint public receivedLight;\n    uint public receivedBattery;\n    string public receivedSensorEvent;\n    string public receivedDevId;\n    string public receivedDate;\n\n    struct dataFromSensor {\n        uint id;\n        uint temperature;\n        uint light;\n        uint battery;\n        string sensorEvent;\n        string devId;\n        string date;\n        uint responseFromApi;\n        uint responseFromApi2;\n    }\n\n    mapping (uint => dataFromSensor) public dataFromSensorArray; //associative array/hash, where key is a unsigned int and the array's content is a instance of Task\n    mapping (uint => dataFromSensor) public dataFromSensorErrorArray; //associative array/hash, where key is a unsigned int and the array's content is a instance of Task\n\n    //LOGs EVENT\n    event LogNewProvableQuery(string description);\n\n    //EVENT WHEN DATA SENSOR IS CREATED\n    event dataFromSensorCreated(\n        uint id,\n        uint temperature,\n        uint light,\n        uint battery,\n        string sensorEvent,\n        string devId,\n        string date,\n        uint responseFromApi,\n        uint responseFromApi2\n    );\n\n    function __callback(bytes32 myid, string memory result) public {\n        if (msg.sender != provable_cbAddress()) revert();\n        queryResult = result;\n        //dataFromSensorArray[dataId].responseFromApi = result;\n\n        //add a instance of dataFromSensor to dataFromSensorArray\n        //dataFromSensorArray[dataId] = dataFromSensor(getTaskCount(), receivedTemperature, receivedLight, receivedBattery, receivedSensorEvent, receivedDevId, receivedDate, 243, 243);\n        dataFromSensorArray[dataId] = dataFromSensor(32, 23, 43, 333, \"receivedSensorEvent\", \"receivedDevId\", \"receivedDate\", 243, 243);\n\n\n\n        emit dataFromSensorCreated(32, 23, 43, 333, \"receivedSensorEvent\", \"receivedDevId\", \"receivedDate\", 243, 243);\n\n        //emit LogNewProvableQuery(result);\n    }\n\n    function  createDataSensor (uint _temperature, uint _light, uint _battery, string memory _sensorEvent, string memory _devId, string memory _date)\n    payable public\n    {\n        bool validateValues = true; //VARIABLE TO CONTROL VALIDATIONS\n\n        if(dataId >= 1) { //VALIDATE RECORD ONLY IF ALREADY EXIST DATA SAVED\n            //TEMPERATURE\n            uint halfTemperatureSensorData = dataFromSensorArray[dataId].temperature/2;\n            uint doubleTemperatureSensorData = dataFromSensorArray[dataId].temperature*2;\n\n            ///LIGHT\n            uint halfLightSensorData = dataFromSensorArray[dataId].light/2;\n            uint doubleLightSensorData = dataFromSensorArray[dataId].light*2;\n\n            //BATTERY\n            uint halfBatterySensorData = dataFromSensorArray[dataId].battery/2;\n            uint doubleBatterySensorData = dataFromSensorArray[dataId].battery*2;\n\n            //VALIDATE IF VALUES IS BETWEEN DEFINED VALUES\n            if ((_battery > halfBatterySensorData && _battery < doubleBatterySensorData) &&\n                (_temperature > halfTemperatureSensorData && _temperature < doubleTemperatureSensorData) &&\n                (_light > halfLightSensorData && _light < doubleLightSensorData)) {\n                validateValues = true;\n            }\n            else {\n                validateValues = false;\n            }\n        }\n\n        if(_battery > 0 && validateValues == true) { //IF IS A VALID RECORD SAVE THIS ON CORRECT DATA ARRAY\n            //DATA ID\n            dataId ++;\n\n\n\n            receivedTemperature = _temperature;\n            receivedLight = _light;\n            receivedBattery = _battery;\n            receivedSensorEvent = _sensorEvent;\n            receivedDevId = _devId;\n            receivedDate = _date;\n\n            if (provable_getPrice(\"URL\") >= address(this).balance) {\n                provable_query(\"URL\", \"json(https://samples.openweathermap.org/data/2.5/weather?lat=35&lon=139&appid=b6907d289e10d714a6e88b30761fae22).id\");\n            }\n\n            else {\n                //add a instance of dataFromSensor to dataFromSensorArray\n                dataFromSensorArray[dataId] = dataFromSensor(dataId, _temperature, _light, _battery, _sensorEvent, _devId, _date, address(this).balance, uint(provable_getPrice(\"URL\")));\n\n                emit dataFromSensorCreated(dataId, _temperature, _light, _battery, _sensorEvent, _devId, _date, address(this).balance, uint(provable_getPrice(\"URL\")));\n            }\n\n\n            //emit dataFromSensorCreated(dataId, _temperature, _light, _battery, _sensorEvent, _devId, _date);\n        }\n        else { //IF IS A ERROR, SAVE THIS RECORD ON ERROR'S ARRAY\n            //DATA ID\n            dataIdError ++;\n\n            //emit LogNewProvableQuery(\"Provable query was sent, standing by for the answer..\");\n            provable_query(\"URL\", \"json(https://samples.openweathermap.org/data/2.5/weather?lat=35&lon=139&appid=b6907d289e10d714a6e88b30761fae22).id\");\n\n            receivedTemperature = _temperature;\n            receivedLight = _light;\n            receivedBattery = _battery;\n            receivedSensorEvent = _sensorEvent;\n            receivedDevId = _devId;\n            receivedDate = _date;\n\n            //add a instance of dataFromSensor to dataFromSensorArray\n            //dataFromSensorErrorArray[dataIdError] = dataFromSensor(dataId, _temperature, _light, _battery, _sensorEvent, _devId, _date, queryResult);\n\n            //emit dataFromSensorCreated(dataId, _temperature, _light, _battery, _sensorEvent, _devId, _date, queryResult);\n        }\n    }\n\n    function getTaskCount() public returns (uint) {\n        return this.dataId();\n    }\n\n    function uint2str(uint _i) internal pure returns (string memory _uintAsString) {\n        if (_i == 0) {\n            return \"0\";\n        }\n        uint j = _i;\n        uint len;\n        while (j != 0) {\n            len++;\n            j /= 10;\n        }\n        bytes memory bstr = new bytes(len);\n        uint k = len - 1;\n        while (_i != 0) {\n            bstr[k--] = byte(uint8(48 + _i % 10));\n            _i /= 10;\n        }\n        return string(bstr);\n    }\n}",
  "sourcePath": "/Users/marcosequeira/ttn-to-blockchain/ttnNodeApplication/contracts/SensorData.sol",
  "compiler": {
    "name": "solc",
    "version": "0.5.0+commit.1d4f565a.Emscripten.clang"
  },
  "schemaVersion": "3.0.1",
  "updatedAt": "2019-11-05T23:37:10.224Z",
  "devdoc": {
    "methods": {}
  },
  "userdoc": {
    "methods": {}
  }
}