{
  "contractName": "SensorData",
  "abi": [
    {
      "constant": true,
      "inputs": [],
      "name": "dieselPriceUSD",
      "outputs": [
        {
          "name": "",
          "type": "uint256"
        }
      ],
      "payable": false,
      "stateMutability": "view",
      "type": "function",
      "signature": "0x3e0ae588"
    },
    {
      "constant": true,
      "inputs": [
        {
          "name": "",
          "type": "uint256"
        }
      ],
      "name": "dataFromSensorArray",
      "outputs": [
        {
          "name": "id",
          "type": "uint256"
        },
        {
          "name": "temperature",
          "type": "uint256"
        },
        {
          "name": "light",
          "type": "uint256"
        },
        {
          "name": "battery",
          "type": "uint256"
        },
        {
          "name": "sensorEvent",
          "type": "string"
        },
        {
          "name": "devId",
          "type": "string"
        },
        {
          "name": "date",
          "type": "string"
        }
      ],
      "payable": false,
      "stateMutability": "view",
      "type": "function",
      "signature": "0x607d4c3b"
    },
    {
      "constant": true,
      "inputs": [],
      "name": "dataIdError",
      "outputs": [
        {
          "name": "",
          "type": "uint256"
        }
      ],
      "payable": false,
      "stateMutability": "view",
      "type": "function",
      "signature": "0x77bdb186"
    },
    {
      "constant": true,
      "inputs": [],
      "name": "responseFromApi",
      "outputs": [
        {
          "name": "",
          "type": "string"
        }
      ],
      "payable": false,
      "stateMutability": "view",
      "type": "function",
      "signature": "0xbe8c77f8"
    },
    {
      "constant": true,
      "inputs": [],
      "name": "dataId",
      "outputs": [
        {
          "name": "",
          "type": "uint256"
        }
      ],
      "payable": false,
      "stateMutability": "view",
      "type": "function",
      "signature": "0xc8a663ec"
    },
    {
      "constant": true,
      "inputs": [
        {
          "name": "",
          "type": "uint256"
        }
      ],
      "name": "dataFromSensorErrorArray",
      "outputs": [
        {
          "name": "id",
          "type": "uint256"
        },
        {
          "name": "temperature",
          "type": "uint256"
        },
        {
          "name": "light",
          "type": "uint256"
        },
        {
          "name": "battery",
          "type": "uint256"
        },
        {
          "name": "sensorEvent",
          "type": "string"
        },
        {
          "name": "devId",
          "type": "string"
        },
        {
          "name": "date",
          "type": "string"
        }
      ],
      "payable": false,
      "stateMutability": "view",
      "type": "function",
      "signature": "0xcea3fe44"
    },
    {
      "anonymous": false,
      "inputs": [
        {
          "indexed": false,
          "name": "id",
          "type": "uint256"
        },
        {
          "indexed": false,
          "name": "temperature",
          "type": "uint256"
        },
        {
          "indexed": false,
          "name": "light",
          "type": "uint256"
        },
        {
          "indexed": false,
          "name": "battery",
          "type": "uint256"
        },
        {
          "indexed": false,
          "name": "sensorEvent",
          "type": "string"
        },
        {
          "indexed": false,
          "name": "devId",
          "type": "string"
        },
        {
          "indexed": false,
          "name": "date",
          "type": "string"
        }
      ],
      "name": "dataFromSensorCreated",
      "type": "event",
      "signature": "0x5e384dfd5a4c47d8b74ae463e4ab77cc43187e26b3c43af08b68668863bfb130"
    },
    {
      "anonymous": false,
      "inputs": [
        {
          "indexed": false,
          "name": "description",
          "type": "string"
        }
      ],
      "name": "LogNewProvableQuery",
      "type": "event",
      "signature": "0xc4dc360d0a9c0677a3379ae0a3d81e887f761e65fdf3d7e00859d1bcd3c47389"
    },
    {
      "anonymous": false,
      "inputs": [
        {
          "indexed": false,
          "name": "response",
          "type": "string"
        }
      ],
      "name": "LogApiResponse",
      "type": "event",
      "signature": "0x7f6bae676bfb2fb7c49e2ee556a274392e85f72b0e712d99e3c93b5226d81511"
    },
    {
      "anonymous": false,
      "inputs": [
        {
          "indexed": false,
          "name": "description",
          "type": "string"
        }
      ],
      "name": "GenericLogs",
      "type": "event",
      "signature": "0xd7357370ddf16411dd9dc6de17466d9d2cb52d9f9fd2f3b47560e5c05758c12e"
    },
    {
      "anonymous": false,
      "inputs": [
        {
          "indexed": false,
          "name": "description",
          "type": "uint256"
        }
      ],
      "name": "BalanceLogs",
      "type": "event",
      "signature": "0x39bc9ca71fd05ae0474c21412f8cf8afb1ab80f18bcb8e1d64411ab057c77142"
    },
    {
      "constant": false,
      "inputs": [
        {
          "name": "myid",
          "type": "bytes32"
        },
        {
          "name": "result",
          "type": "string"
        }
      ],
      "name": "__callback",
      "outputs": [],
      "payable": false,
      "stateMutability": "nonpayable",
      "type": "function",
      "signature": "0x27dc297e"
    },
    {
      "constant": false,
      "inputs": [
        {
          "name": "_myid",
          "type": "bytes32"
        },
        {
          "name": "_result",
          "type": "string"
        },
        {
          "name": "_proof",
          "type": "bytes"
        }
      ],
      "name": "__callback",
      "outputs": [],
      "payable": false,
      "stateMutability": "nonpayable",
      "type": "function",
      "signature": "0x38bbfa50"
    },
    {
      "constant": false,
      "inputs": [
        {
          "name": "_temperature",
          "type": "uint256"
        },
        {
          "name": "_light",
          "type": "uint256"
        },
        {
          "name": "_battery",
          "type": "uint256"
        },
        {
          "name": "_sensorEvent",
          "type": "string"
        },
        {
          "name": "_devId",
          "type": "string"
        },
        {
          "name": "_date",
          "type": "string"
        }
      ],
      "name": "createDataSensor",
      "outputs": [],
      "payable": true,
      "stateMutability": "payable",
      "type": "function",
      "signature": "0xdb26ab2e"
    },
    {
      "constant": false,
      "inputs": [],
      "name": "getTaskCount",
      "outputs": [
        {
          "name": "",
          "type": "uint256"
        }
      ],
      "payable": false,
      "stateMutability": "nonpayable",
      "type": "function",
      "signature": "0xc17a340e"
    },
    {
      "constant": false,
      "inputs": [],
      "name": "update",
      "outputs": [],
      "payable": true,
      "stateMutability": "payable",
      "type": "function",
      "signature": "0xa2e62045"
    }
  ],
  "bytecode": "0x60806040526000600555600060065534801561001a57600080fd5b50611bdc8061002a6000396000f3fe6080604052600436106100955763ffffffff60e060020a60003504166327dc297e811461009a57806338bbfa50146101565780633e0ae58814610297578063607d4c3b146102be57806377bdb18614610448578063a2e620451461045d578063be8c77f814610465578063c17a340e146104ef578063c8a663ec14610504578063cea3fe4414610519578063db26ab2e14610543575b600080fd5b3480156100a657600080fd5b50610154600480360360408110156100bd57600080fd5b813591908101906040810160208201356401000000008111156100df57600080fd5b8201836020820111156100f157600080fd5b8035906020019184600183028401116401000000008311171561011357600080fd5b91908080601f01602080910402602001604051908101604052809392919081815260200183838082843760009201919091525092955061070a945050505050565b005b34801561016257600080fd5b506101546004803603606081101561017957600080fd5b8135919081019060408101602082013564010000000081111561019b57600080fd5b8201836020820111156101ad57600080fd5b803590602001918460018302840111640100000000831117156101cf57600080fd5b91908080601f016020809104026020016040519081016040528093929190818152602001838380828437600092019190915250929594936020810193503591505064010000000081111561022257600080fd5b82018360208201111561023457600080fd5b8035906020019184600183028401116401000000008311171561025657600080fd5b91908080601f0160208091040260200160405190810160405280939291908181526020018383808284376000920191909152509295506107d1945050505050565b3480156102a357600080fd5b506102ac610802565b60408051918252519081900360200190f35b3480156102ca57600080fd5b506102e8600480360360208110156102e157600080fd5b5035610808565b60405180888152602001878152602001868152602001858152602001806020018060200180602001848103845287818151815260200191508051906020019080838360005b8381101561034557818101518382015260200161032d565b50505050905090810190601f1680156103725780820380516001836020036101000a031916815260200191505b50848103835286518152865160209182019188019080838360005b838110156103a557818101518382015260200161038d565b50505050905090810190601f1680156103d25780820380516001836020036101000a031916815260200191505b50848103825285518152855160209182019187019080838360005b838110156104055781810151838201526020016103ed565b50505050905090810190601f1680156104325780820380516001836020036101000a031916815260200191505b509a505050505050505050505060405180910390f35b34801561045457600080fd5b506102ac6109f6565b6101546109fc565b34801561047157600080fd5b5061047a610b46565b6040805160208082528351818301528351919283929083019185019080838360005b838110156104b457818101518382015260200161049c565b50505050905090810190601f1680156104e15780820380516001836020036101000a031916815260200191505b509250505060405180910390f35b3480156104fb57600080fd5b506102ac610bd4565b34801561051057600080fd5b506102ac610c44565b34801561052557600080fd5b506102e86004803603602081101561053c57600080fd5b5035610c4a565b610154600480360360c081101561055957600080fd5b8135916020810135916040820135919081019060808101606082013564010000000081111561058757600080fd5b82018360208201111561059957600080fd5b803590602001918460018302840111640100000000831117156105bb57600080fd5b91908080601f016020809104026020016040519081016040528093929190818152602001838380828437600092019190915250929594936020810193503591505064010000000081111561060e57600080fd5b82018360208201111561062057600080fd5b8035906020019184600183028401116401000000008311171561064257600080fd5b91908080601f016020809104026020016040519081016040528093929190818152602001838380828437600092019190915250929594936020810193503591505064010000000081111561069557600080fd5b8201836020820111156106a757600080fd5b803590602001918460018302840111640100000000831117156106c957600080fd5b91908080601f016020809104026020016040519081016040528093929190818152602001838380828437600092019190915250929550610ce3945050505050565b610712611067565b600160a060020a0316331461072657600080fd5b7f7f6bae676bfb2fb7c49e2ee556a274392e85f72b0e712d99e3c93b5226d81511816040518080602001828103825283818151815260200191508051906020019080838360005b8381101561078557818101518382015260200161076d565b50505050905090810190601f1680156107b25780820380516001836020036101000a031916815260200191505b509250505060405180910390a16107ca816002611228565b6008555050565b5050600080805260036020527f3617319a054d772f909f7c479a2cebe5066e836a939412e32403c99029b92eff5550565b60085481565b6009602052806000526040600020600091509050806000015490806001015490806002015490806003015490806004018054600181600116156101000203166002900480601f0160208091040260200160405190810160405280929190818152602001828054600181600116156101000203166002900480156108cc5780601f106108a1576101008083540402835291602001916108cc565b820191906000526020600020905b8154815290600101906020018083116108af57829003601f168201915b5050505060058301805460408051602060026001851615610100026000190190941693909304601f810184900484028201840190925281815294959493509083018282801561095c5780601f106109315761010080835404028352916020019161095c565b820191906000526020600020905b81548152906001019060200180831161093f57829003601f168201915b5050505060068301805460408051602060026001851615610100026000190190941693909304601f81018490048402820184019092528181529495949350908301828280156109ec5780601f106109c1576101008083540402835291602001916109ec565b820191906000526020600020905b8154815290600101906020018083116109cf57829003601f168201915b5050505050905087565b60065481565b6040805160208082526036908201527f50726f7661626c65207175657279207761732073656e742c207374616e64696e818301527f6720627920666f722074686520616e737765722e2e2e00000000000000000000606082015290517fc4dc360d0a9c0677a3379ae0a3d81e887f761e65fdf3d7e00859d1bcd3c473899181900360800190a1610b436040805190810160405280600381526020017f55524c0000000000000000000000000000000000000000000000000000000000815250608060405190810160405280604581526020017f786d6c2868747470733a2f2f7777772e6675656c65636f6e6f6d792e676f762f81526020017f77732f726573742f6675656c707269636573292e6675656c5072696365732e6481526020017f696573656c000000000000000000000000000000000000000000000000000000815250611358565b50565b6007805460408051602060026001851615610100026000190190941693909304601f81018490048402820184019092528181529291830182828015610bcc5780601f10610ba157610100808354040283529160200191610bcc565b820191906000526020600020905b815481529060010190602001808311610baf57829003601f168201915b505050505081565b600030600160a060020a031663c8a663ec6040518163ffffffff1660e060020a02815260040160206040518083038186803b158015610c1257600080fd5b505afa158015610c26573d6000803e3d6000fd5b505050506040513d6020811015610c3c57600080fd5b505190505b90565b60055481565b600a602052806000526040600020600091509050806000015490806001015490806002015490806003015490806004018054600181600116156101000203166002900480601f0160208091040260200160405190810160405280929190818152602001828054600181600116156101000203166002900480156108cc5780601f106108a1576101008083540402835291602001916108cc565b6005546001908111610d785760055460009081526009602052604090206001810154600280830154600390930154818304939282029282810492908102918181049102818b118015610d345750808b105b8015610d495750858d118015610d495750848d105b8015610d5e5750838c118015610d5e5750828c105b15610d6c5760019650610d71565b600096505b5050505050505b600085118015610d8a57506001811515145b15610e5457600580546001908101918290556040805160e08101825283815260208082018c81528284018c8152606084018c8152608085018c815260a086018c905260c086018b905260009889526009855295909720845181559151958201959095559351600285015593516003840155905180519193610e1392600485019290910190611b18565b5060a08201518051610e2f916005840191602090910190611b18565b5060c08201518051610e4b916006840191602090910190611b18565b50905050610f16565b600680546001908101918290556040805160e081018252600554815260208082018c81528284018c8152606084018c8152608085018c815260a086018c905260c086018b90526000988952600a855295909720845181559151958201959095559351600285015593516003840155905180519193610eda92600485019290910190611b18565b5060a08201518051610ef6916005840191602090910190611b18565b5060c08201518051610f12916006840191602090910190611b18565b5050505b6040805160208082526036908201527f50726f7661626c65207175657279207761732073656e742c207374616e64696e818301527f6720627920666f722074686520616e737765722e2e2e00000000000000000000606082015290517fc4dc360d0a9c0677a3379ae0a3d81e887f761e65fdf3d7e00859d1bcd3c473899181900360800190a161105d6040805190810160405280600381526020017f55524c0000000000000000000000000000000000000000000000000000000000815250608060405190810160405280604581526020017f786d6c2868747470733a2f2f7777772e6675656c65636f6e6f6d792e676f762f81526020017f77732f726573742f6675656c707269636573292e6675656c5072696365732e6481526020017f696573656c000000000000000000000000000000000000000000000000000000815250611358565b5050505050505050565b600154600090600160a060020a03161580611094575060015461109290600160a060020a031661174e565b155b156110a5576110a36000611752565b505b600160009054906101000a9004600160a060020a0316600160a060020a03166338cc48316040518163ffffffff1660e060020a028152600401602060405180830381600087803b1580156110f857600080fd5b505af115801561110c573d6000803e3d6000fd5b505050506040513d602081101561112257600080fd5b5051600054600160a060020a039081169116146111d857600160009054906101000a9004600160a060020a0316600160a060020a03166338cc48316040518163ffffffff1660e060020a028152600401602060405180830381600087803b15801561118c57600080fd5b505af11580156111a0573d6000803e3d6000fd5b505050506040513d60208110156111b657600080fd5b505160008054600160a060020a031916600160a060020a039092169190911790555b6000809054906101000a9004600160a060020a0316600160a060020a031663c281d19e6040518163ffffffff1660e060020a02815260040160206040518083038186803b158015610c1257600080fd5b6000828180805b835181101561133a576030848281518110151561124857fe5b90602001015160f860020a900460f860020a0260f860020a900460ff161015801561129e57506039848281518110151561127e57fe5b90602001015160f860020a900460f860020a0260f860020a900460ff1611155b156112fa5781156112bd578515156112b55761133a565b600019909501945b600a83029250603084828151811015156112d357fe5b90602001015160f860020a900460f860020a0260f860020a900460ff160383019250611332565b838181518110151561130857fe5b90602001015160f860020a900460f860020a0260f860020a900460ff16602e141561133257600191505b60010161122f565b50600085111561134d5784600a0a820291505b509150505b92915050565b600154600090600160a060020a03161580611385575060015461138390600160a060020a031661174e565b155b15611396576113946000611752565b505b600160009054906101000a9004600160a060020a0316600160a060020a03166338cc48316040518163ffffffff1660e060020a028152600401602060405180830381600087803b1580156113e957600080fd5b505af11580156113fd573d6000803e3d6000fd5b505050506040513d602081101561141357600080fd5b5051600054600160a060020a039081169116146114c957600160009054906101000a9004600160a060020a0316600160a060020a03166338cc48316040518163ffffffff1660e060020a028152600401602060405180830381600087803b15801561147d57600080fd5b505af1158015611491573d6000803e3d6000fd5b505050506040513d60208110156114a757600080fd5b505160008054600160a060020a031916600160a060020a039092169190911790555b600080546040517f524f3889000000000000000000000000000000000000000000000000000000008152602060048201818152875160248401528751600160a060020a039094169363524f38899389938392604490920191908501908083838b5b8381101561154257818101518382015260200161152a565b50505050905090810190601f16801561156f5780820380516001836020036101000a031916815260200191505b5092505050602060405180830381600087803b15801561158e57600080fd5b505af11580156115a2573d6000803e3d6000fd5b505050506040513d60208110156115b857600080fd5b50519050670de0b6b3a764000062030d403a02018111156115dd575060009050611352565b600080546040517fadf59f9900000000000000000000000000000000000000000000000000000000815260048101838152606060248301908152885160648401528851600160a060020a039094169463adf59f9994879491938b938b9391929091604481019160849091019060208701908083838b5b8381101561166b578181015183820152602001611653565b50505050905090810190601f1680156116985780820380516001836020036101000a031916815260200191505b50838103825284518152845160209182019186019080838360005b838110156116cb5781810151838201526020016116b3565b50505050905090810190601f1680156116f85780820380516001836020036101000a031916815260200191505b50955050505050506020604051808303818588803b15801561171957600080fd5b505af115801561172d573d6000803e3d6000fd5b50505050506040513d602081101561174457600080fd5b5051949350505050565b3b90565b6000611352600080611777731d3b2638a7cc9f2cb3d298a3da7a90b67e5506ed61174e565b11156117e85760018054600160a060020a031916731d3b2638a7cc9f2cb3d298a3da7a90b67e5506ed17905560408051808201909152600b81527f6574685f6d61696e6e657400000000000000000000000000000000000000000060208201526117e090611b01565b506001610c41565b600061180773c03a2615d5efaf5f49f60b7bb6583eaec212fdf161174e565b11156118705760018054600160a060020a03191673c03a2615d5efaf5f49f60b7bb6583eaec212fdf117905560408051808201909152600c81527f6574685f726f707374656e33000000000000000000000000000000000000000060208201526117e090611b01565b600061188f73b7a07bcf2ba2f2703b24c0691b5278999c59ac7e61174e565b11156118f85760018054600160a060020a03191673b7a07bcf2ba2f2703b24c0691b5278999c59ac7e17905560408051808201909152600981527f6574685f6b6f76616e000000000000000000000000000000000000000000000060208201526117e090611b01565b600061191773146500cfd35b22e4a392fe0adc06de1a1368ed4861174e565b11156119805760018054600160a060020a03191673146500cfd35b22e4a392fe0adc06de1a1368ed4817905560408051808201909152600b81527f6574685f72696e6b65627900000000000000000000000000000000000000000060208201526117e090611b01565b600061199f73a2998efd205fb9d4b4963afb70778d6354ad3a4161174e565b1115611a085760018054600160a060020a03191673a2998efd205fb9d4b4963afb70778d6354ad3a4117905560408051808201909152600a81527f6574685f676f65726c690000000000000000000000000000000000000000000060208201526117e090611b01565b6000611a27736f485c8bf6fc43ea212e93bbf8ce046c7f1cb47561174e565b1115611a59575060018054600160a060020a031916736f485c8bf6fc43ea212e93bbf8ce046c7f1cb475178155610c41565b6000611a787320e12a1f859b3feae5fb2a0a32c18f5a65555bbf61174e565b1115611aaa575060018054600160a060020a0319167320e12a1f859b3feae5fb2a0a32c18f5a65555bbf178155610c41565b6000611ac97351efaf4c8b3c9afbd5ab9f4bbc82784ab6ef8faa61174e565b1115611afb575060018054600160a060020a0319167351efaf4c8b3c9afbd5ab9f4bbc82784ab6ef8faa178155610c41565b50600090565b8051611b14906002906020840190611b18565b5050565b828054600181600116156101000203166002900490600052602060002090601f016020900481019282601f10611b5957805160ff1916838001178555611b86565b82800160010185558215611b86579182015b82811115611b86578251825591602001919060010190611b6b565b50611b92929150611b96565b5090565b610c4191905b80821115611b925760008155600101611b9c56fea165627a7a723058207499bc873db5028e1401a735799265caf8caa8052b826e9f61c259d2a4e1767e0029",
  "source": "pragma solidity ^0.5.0;\nimport \"./provableAPI_0.5.sol\";\n\ncontract SensorData is usingProvable {\n    uint public dataId = 0;\n    uint public dataIdError = 0;\n    string public responseFromApi;\n\n    uint public dieselPriceUSD;\n\n    struct dataFromSensor {\n        uint id;\n        uint temperature;\n        uint light;\n        uint battery;\n        string sensorEvent;\n        string devId;\n        string date;\n    }\n\n    mapping (uint => dataFromSensor) public dataFromSensorArray; //associative array/hash, where key is a unsigned int and the array's content is a instance of Task\n    mapping (uint => dataFromSensor) public dataFromSensorErrorArray; //associative array/hash, where key is a unsigned int and the array's content is a instance of Task\n\n    //EVENT WHEN DATA SENSOR IS CREATED\n    event dataFromSensorCreated(\n        uint id,\n        uint temperature,\n        uint light,\n        uint battery,\n        string sensorEvent,\n        string devId,\n        string date\n    );\n\n    event LogNewProvableQuery(string description);\n    event LogApiResponse(string response);\n    event GenericLogs (string description);\n    event BalanceLogs (uint description);\n\n    function __callback(\n        bytes32 myid,\n        string memory result\n    )\n    public\n    {\n        require(msg.sender == provable_cbAddress());\n        emit LogApiResponse(result);\n        dieselPriceUSD = parseInt(result, 2); // Let's save it as cents...\n        // Now do something with the USD Diesel price...\n    }\n\n\n    function createDataSensor (uint _temperature, uint _light, uint _battery, string memory _sensorEvent, string memory _devId, string memory _date)\n    public payable {\n        bool validateValues = true; //VARIABLE TO CONTROL VALIDATIONS\n\n        if(dataId >= 1) { //VALIDATE RECORD ONLY IF ALREADY EXIST DATA SAVED\n            //TEMPERATURE\n            uint halfTemperatureSensorData = dataFromSensorArray[dataId].temperature/2;\n            uint doubleTemperatureSensorData = dataFromSensorArray[dataId].temperature*2;\n\n            ///LIGHT\n            uint halfLightSensorData = dataFromSensorArray[dataId].light/2;\n            uint doubleLightSensorData = dataFromSensorArray[dataId].light*2;\n\n            //BATTERY\n            uint halfBatterySensorData = dataFromSensorArray[dataId].battery/2;\n            uint doubleBatterySensorData = dataFromSensorArray[dataId].battery*2;\n\n            //VALIDATE IF VALUES IS BETWEEN DEFINED VALUES\n            if ((_battery > halfBatterySensorData && _battery < doubleBatterySensorData) &&\n                (_temperature > halfTemperatureSensorData && _temperature < doubleTemperatureSensorData) &&\n                (_light > halfLightSensorData && _light < doubleLightSensorData)) {\n                validateValues = true;\n            }\n            else {\n                validateValues = false;\n            }\n        }\n\n        if(_battery > 0 && validateValues == true) { //IF IS A VALID RECORD SAVE THIS ON CORRECT DATA ARRAY\n            //DATA ID\n            dataId ++;\n\n            //add a instance of dataFromSensor to dataFromSensorArray\n            dataFromSensorArray[dataId] = dataFromSensor(dataId, _temperature, _light, _battery, _sensorEvent, _devId, _date);\n\n            //emit dataFromSensorCreated(dataId, _temperature, _light, _battery, _sensorEvent, _devId, _date);\n        }\n        else { //IF IS A ERROR, SAVE THIS RECORD ON ERROR'S ARRAY\n            //DATA ID\n            dataIdError ++;\n\n            //add a instance of dataFromSensor to dataFromSensorArray\n            dataFromSensorErrorArray[dataIdError] = dataFromSensor(dataId, _temperature, _light, _battery, _sensorEvent, _devId, _date);\n\n            //emit dataFromSensorCreated(dataId, _temperature, _light, _battery, _sensorEvent, _devId, _date);\n        }\n\n        emit LogNewProvableQuery(\"Provable query was sent, standing by for the answer...\");\n        provable_query(\"URL\", \"xml(https://www.fueleconomy.gov/ws/rest/fuelprices).fuelPrices.diesel\");\n    }\n\n    function getTaskCount() public returns (uint) {\n        return this.dataId();\n    }\n\n\n    function update()\n    public\n    payable\n    {\n        emit LogNewProvableQuery(\"Provable query was sent, standing by for the answer...\");\n        provable_query(\"URL\", \"xml(https://www.fueleconomy.gov/ws/rest/fuelprices).fuelPrices.diesel\");\n    }\n\n}",
  "sourcePath": "/Users/marcosequeira/ttn-to-blockchain/ttnNodeApplication/contracts/SensorData.sol",
  "compiler": {
    "name": "solc",
    "version": "0.5.0+commit.1d4f565a.Emscripten.clang"
  },
  "schemaVersion": "3.0.1",
  "updatedAt": "2019-12-10T23:11:41.353Z",
  "devdoc": {
    "methods": {}
  },
  "userdoc": {
    "methods": {}
  }
}