{
  "contractName": "SensorData",
  "abi": [
    {
      "constant": true,
      "inputs": [
        {
          "name": "",
          "type": "uint256"
        }
      ],
      "name": "dataFromSensorArray",
      "outputs": [
        {
          "name": "id",
          "type": "uint256"
        },
        {
          "name": "temperature",
          "type": "uint256"
        },
        {
          "name": "light",
          "type": "uint256"
        },
        {
          "name": "battery",
          "type": "uint256"
        },
        {
          "name": "sensorEvent",
          "type": "string"
        },
        {
          "name": "devId",
          "type": "string"
        },
        {
          "name": "date",
          "type": "string"
        }
      ],
      "payable": false,
      "stateMutability": "view",
      "type": "function",
      "signature": "0x607d4c3b"
    },
    {
      "constant": true,
      "inputs": [],
      "name": "dataId",
      "outputs": [
        {
          "name": "",
          "type": "uint256"
        }
      ],
      "payable": false,
      "stateMutability": "view",
      "type": "function",
      "signature": "0xc8a663ec"
    },
    {
      "inputs": [],
      "payable": false,
      "stateMutability": "nonpayable",
      "type": "constructor",
      "signature": "constructor"
    },
    {
      "anonymous": false,
      "inputs": [
        {
          "indexed": false,
          "name": "id",
          "type": "uint256"
        },
        {
          "indexed": false,
          "name": "temperature",
          "type": "uint256"
        },
        {
          "indexed": false,
          "name": "light",
          "type": "uint256"
        },
        {
          "indexed": false,
          "name": "battery",
          "type": "uint256"
        },
        {
          "indexed": false,
          "name": "sensorEvent",
          "type": "string"
        },
        {
          "indexed": false,
          "name": "devId",
          "type": "string"
        },
        {
          "indexed": false,
          "name": "date",
          "type": "string"
        }
      ],
      "name": "dataFromSensorCreated",
      "type": "event",
      "signature": "0x5e384dfd5a4c47d8b74ae463e4ab77cc43187e26b3c43af08b68668863bfb130"
    },
    {
      "constant": false,
      "inputs": [
        {
          "name": "_temperature",
          "type": "uint256"
        },
        {
          "name": "_light",
          "type": "uint256"
        },
        {
          "name": "_battery",
          "type": "uint256"
        },
        {
          "name": "_sensorEvent",
          "type": "string"
        },
        {
          "name": "_devId",
          "type": "string"
        },
        {
          "name": "_date",
          "type": "string"
        }
      ],
      "name": "createDataSensor",
      "outputs": [],
      "payable": false,
      "stateMutability": "nonpayable",
      "type": "function",
      "signature": "0xdb26ab2e"
    },
    {
      "constant": false,
      "inputs": [],
      "name": "getTaskCount",
      "outputs": [
        {
          "name": "",
          "type": "uint256"
        }
      ],
      "payable": false,
      "stateMutability": "nonpayable",
      "type": "function",
      "signature": "0xc17a340e"
    }
  ],
  "bytecode": "0x60806040526000805534801561001457600080fd5b5061099d806100246000396000f3fe6080604052600436106100615763ffffffff7c0100000000000000000000000000000000000000000000000000000000600035041663607d4c3b8114610066578063c17a340e146101f0578063c8a663ec14610217578063db26ab2e1461022c575b600080fd5b34801561007257600080fd5b506100906004803603602081101561008957600080fd5b5035610402565b60405180888152602001878152602001868152602001858152602001806020018060200180602001848103845287818151815260200191508051906020019080838360005b838110156100ed5781810151838201526020016100d5565b50505050905090810190601f16801561011a5780820380516001836020036101000a031916815260200191505b50848103835286518152865160209182019188019080838360005b8381101561014d578181015183820152602001610135565b50505050905090810190601f16801561017a5780820380516001836020036101000a031916815260200191505b50848103825285518152855160209182019187019080838360005b838110156101ad578181015183820152602001610195565b50505050905090810190601f1680156101da5780820380516001836020036101000a031916815260200191505b509a505050505050505050505060405180910390f35b3480156101fc57600080fd5b506102056105f0565b60408051918252519081900360200190f35b34801561022357600080fd5b50610205610686565b34801561023857600080fd5b50610400600480360360c081101561024f57600080fd5b8135916020810135916040820135919081019060808101606082013564010000000081111561027d57600080fd5b82018360208201111561028f57600080fd5b803590602001918460018302840111640100000000831117156102b157600080fd5b91908080601f016020809104026020016040519081016040528093929190818152602001838380828437600092019190915250929594936020810193503591505064010000000081111561030457600080fd5b82018360208201111561031657600080fd5b8035906020019184600183028401116401000000008311171561033857600080fd5b91908080601f016020809104026020016040519081016040528093929190818152602001838380828437600092019190915250929594936020810193503591505064010000000081111561038b57600080fd5b82018360208201111561039d57600080fd5b803590602001918460018302840111640100000000831117156103bf57600080fd5b91908080601f01602080910402602001604051908101604052809392919081815260200183838082843760009201919091525092955061068c945050505050565b005b6001602052806000526040600020600091509050806000015490806001015490806002015490806003015490806004018054600181600116156101000203166002900480601f0160208091040260200160405190810160405280929190818152602001828054600181600116156101000203166002900480156104c65780601f1061049b576101008083540402835291602001916104c6565b820191906000526020600020905b8154815290600101906020018083116104a957829003601f168201915b5050505060058301805460408051602060026001851615610100026000190190941693909304601f81018490048402820184019092528181529495949350908301828280156105565780601f1061052b57610100808354040283529160200191610556565b820191906000526020600020905b81548152906001019060200180831161053957829003601f168201915b5050505060068301805460408051602060026001851615610100026000190190941693909304601f81018490048402820184019092528181529495949350908301828280156105e65780601f106105bb576101008083540402835291602001916105e6565b820191906000526020600020905b8154815290600101906020018083116105c957829003601f168201915b5050505050905087565b60003073ffffffffffffffffffffffffffffffffffffffff1663c8a663ec6040518163ffffffff167c010000000000000000000000000000000000000000000000000000000002815260040160206040518083038186803b15801561065457600080fd5b505afa158015610668573d6000803e3d6000fd5b505050506040513d602081101561067e57600080fd5b505190505b90565b60005481565b6000805460019081018083556040805160e08101825282815260208082018c81528284018c8152606084018c8152608085018c815260a086018c905260c086018b90529689528784529490972083518155905195810195909555945160028501559051600384015590518051919361070c926004850192909101906108d9565b5060a082015180516107289160058401916020909101906108d9565b5060c082015180516107449160068401916020909101906108d9565b509050507f5e384dfd5a4c47d8b74ae463e4ab77cc43187e26b3c43af08b68668863bfb13060005487878787878760405180888152602001878152602001868152602001858152602001806020018060200180602001848103845287818151815260200191508051906020019080838360005b838110156107cf5781810151838201526020016107b7565b50505050905090810190601f1680156107fc5780820380516001836020036101000a031916815260200191505b50848103835286518152865160209182019188019080838360005b8381101561082f578181015183820152602001610817565b50505050905090810190601f16801561085c5780820380516001836020036101000a031916815260200191505b50848103825285518152855160209182019187019080838360005b8381101561088f578181015183820152602001610877565b50505050905090810190601f1680156108bc5780820380516001836020036101000a031916815260200191505b509a505050505050505050505060405180910390a1505050505050565b828054600181600116156101000203166002900490600052602060002090601f016020900481019282601f1061091a57805160ff1916838001178555610947565b82800160010185558215610947579182015b8281111561094757825182559160200191906001019061092c565b50610953929150610957565b5090565b61068391905b80821115610953576000815560010161095d56fea165627a7a723058209972927a59100967c6410807ada655c6c5cfa94ae788f202fe2c3332fc9fc7cf0029",
  "source": "pragma solidity ^0.5.0;\n\ncontract SensorData {\n    uint public dataId = 0;\n\n    struct dataFromSensor {\n        uint id;\n        uint temperature;\n        uint light;\n        uint battery;\n        string sensorEvent;\n        string devId;\n        string date;\n    }\n\n    mapping (uint => dataFromSensor) public dataFromSensorArray; //associative array/hash, where key is a unsigned int and the array's content is a instance of Task\n\n    //EVENT WHEN DATA SENSOR IS CREATED\n    event dataFromSensorCreated(\n        uint id,\n        uint temperature,\n        uint light,\n        uint battery,\n        string sensorEvent,\n        string devId,\n        string date\n    );\n\n    constructor() public {\n        //createDataSensor();\n    }\n\n    function createDataSensor (uint _temperature, uint _light, uint _battery, string memory _sensorEvent, string memory _devId, string memory _date) public {\n        //DATA ID\n        dataId ++;\n\n        //add a instance of dataFromSensor to dataFromSensorArray\n        dataFromSensorArray[dataId] = dataFromSensor(dataId, _temperature, _light, _battery, _sensorEvent, _devId, _date);\n\n        emit dataFromSensorCreated(dataId, _temperature, _light, _battery, _sensorEvent, _devId, _date);\n    }\n\n    function getTaskCount() public returns (uint) {\n        return this.dataId();\n    }\n\n}",
  "sourcePath": "/Users/marcosequeira/ttn-to-blockchain/ttnNodeApplication/contracts/SensorData.sol",
  "compiler": {
    "name": "solc",
    "version": "0.5.0+commit.1d4f565a.Emscripten.clang"
  },
  "schemaVersion": "3.0.1",
  "updatedAt": "2019-08-31T14:20:54.162Z",
  "devdoc": {
    "methods": {}
  },
  "userdoc": {
    "methods": {}
  }
}