{
  "contractName": "TodoList",
  "abi": [
    {
      "inputs": [],
      "payable": false,
      "stateMutability": "nonpayable",
      "type": "constructor"
    },
    {
      "anonymous": false,
      "inputs": [
        {
          "indexed": false,
          "internalType": "uint256",
          "name": "id",
          "type": "uint256"
        }
      ],
      "name": "dataFromSensorCreated",
      "type": "event"
    },
    {
      "constant": true,
      "inputs": [
        {
          "internalType": "uint256",
          "name": "",
          "type": "uint256"
        }
      ],
      "name": "dataFromSensorArray",
      "outputs": [
        {
          "internalType": "uint256",
          "name": "id",
          "type": "uint256"
        }
      ],
      "payable": false,
      "stateMutability": "view",
      "type": "function"
    },
    {
      "constant": true,
      "inputs": [],
      "name": "taskCount",
      "outputs": [
        {
          "internalType": "uint256",
          "name": "",
          "type": "uint256"
        }
      ],
      "payable": false,
      "stateMutability": "view",
      "type": "function"
    },
    {
      "constant": false,
      "inputs": [],
      "name": "createDataSensor",
      "outputs": [],
      "payable": false,
      "stateMutability": "nonpayable",
      "type": "function"
    },
    {
      "constant": false,
      "inputs": [],
      "name": "getTaskCount",
      "outputs": [
        {
          "internalType": "uint256",
          "name": "",
          "type": "uint256"
        }
      ],
      "payable": false,
      "stateMutability": "nonpayable",
      "type": "function"
    }
  ],
  "bytecode": "0x60806040526000805534801561001457600080fd5b506100266001600160e01b0361002b16565b610089565b600080546001908101808355604080516020808201835283825292855292825280842092519092559154815190815290517f97806779c4b10fad3b4735eed188da0a1d6406ff0a6fb1f9b62e73df611ed9e5929181900390910190a1565b6101b1806100986000396000f3fe608060405234801561001057600080fd5b506004361061004c5760003560e01c8063283f857c14610051578063607d4c3b1461005b578063b6cb58a51461008a578063c17a340e14610092575b600080fd5b61005961009a565b005b6100786004803603602081101561007157600080fd5b50356100f8565b60408051918252519081900360200190f35b61007861010a565b610078610110565b600080546001908101808355604080516020808201835283825292855292825280842092519092559154815190815290517f97806779c4b10fad3b4735eed188da0a1d6406ff0a6fb1f9b62e73df611ed9e5929181900390910190a1565b60016020526000908152604090205481565b60005481565b6000306001600160a01b031663b6cb58a56040518163ffffffff1660e01b815260040160206040518083038186803b15801561014b57600080fd5b505afa15801561015f573d6000803e3d6000fd5b505050506040513d602081101561017557600080fd5b505190509056fea265627a7a7231582019aba820fc94a0bc296b236b3d659a867e85e4138e88aef2294271bf2557529a64736f6c63430005100032",
  "source": "pragma solidity ^0.5.0;\r\n\r\ncontract TodoList {\r\n    uint public taskCount = 0;\r\n\r\n    struct dataFromSensor {\r\n        uint id;\r\n    }\r\n\r\n    mapping (uint => dataFromSensor) public dataFromSensorArray; //associative array/hash, where key is a unsigned int and the array's content is a instance of Task\r\n\r\n    event dataFromSensorCreated(\r\n        uint id\r\n    );\r\n\r\n    //populate tasks when the contract is contructed\r\n    constructor() public {\r\n        createDataSensor();\r\n    }\r\n\r\n    function createDataSensor () public {\r\n        //task's id\r\n        taskCount ++;\r\n\r\n        //add a instance of task to task's array\r\n        dataFromSensorArray[taskCount] = dataFromSensor(taskCount);\r\n\r\n        emit dataFromSensorCreated(taskCount);\r\n    }\r\n\r\n    function getTaskCount() public returns (uint) {\r\n        return this.taskCount();\r\n    }\r\n\r\n}",
  "sourcePath": "C:\\Users\\marco\\PersonalProjects\\ttn-to-blockchain\\ttnNodeApplication\\contracts\\TodoList.sol",
  "compiler": {
    "name": "solc",
    "version": "0.5.16+commit.9c3226ce.Emscripten.clang"
  },
  "schemaVersion": "3.0.23",
  "updatedAt": "2020-03-15T21:50:20.055Z",
  "networkType": "ethereum",
  "devdoc": {
    "methods": {}
  },
  "userdoc": {
    "methods": {}
  }
}