{
  "contractName": "TodoList",
  "abi": [
    {
      "constant": true,
      "inputs": [
        {
          "name": "",
          "type": "uint256"
        }
      ],
      "name": "dataFromSensorArray",
      "outputs": [
        {
          "name": "id",
          "type": "uint256"
        }
      ],
      "payable": false,
      "stateMutability": "view",
      "type": "function",
      "signature": "0x607d4c3b"
    },
    {
      "constant": true,
      "inputs": [],
      "name": "taskCount",
      "outputs": [
        {
          "name": "",
          "type": "uint256"
        }
      ],
      "payable": false,
      "stateMutability": "view",
      "type": "function",
      "signature": "0xb6cb58a5"
    },
    {
      "inputs": [],
      "payable": false,
      "stateMutability": "nonpayable",
      "type": "constructor",
      "signature": "constructor"
    },
    {
      "anonymous": false,
      "inputs": [
        {
          "indexed": false,
          "name": "id",
          "type": "uint256"
        }
      ],
      "name": "dataFromSensorCreated",
      "type": "event",
      "signature": "0x97806779c4b10fad3b4735eed188da0a1d6406ff0a6fb1f9b62e73df611ed9e5"
    },
    {
      "constant": false,
      "inputs": [],
      "name": "createDataSensor",
      "outputs": [],
      "payable": false,
      "stateMutability": "nonpayable",
      "type": "function",
      "signature": "0x283f857c"
    },
    {
      "constant": false,
      "inputs": [],
      "name": "getTaskCount",
      "outputs": [
        {
          "name": "",
          "type": "uint256"
        }
      ],
      "payable": false,
      "stateMutability": "nonpayable",
      "type": "function",
      "signature": "0xc17a340e"
    }
  ],
  "bytecode": "0x60806040526000805534801561001457600080fd5b5061002664010000000061002b810204565b610089565b600080546001908101808355604080516020818101835283825292855292825280842092519092559154815190815290517f97806779c4b10fad3b4735eed188da0a1d6406ff0a6fb1f9b62e73df611ed9e5929181900390910190a1565b61021a806100986000396000f3fe6080604052600436106100615763ffffffff7c0100000000000000000000000000000000000000000000000000000000600035041663283f857c8114610066578063607d4c3b1461007d578063b6cb58a5146100b9578063c17a340e146100ce575b600080fd5b34801561007257600080fd5b5061007b6100e3565b005b34801561008957600080fd5b506100a7600480360360208110156100a057600080fd5b5035610141565b60408051918252519081900360200190f35b3480156100c557600080fd5b506100a7610153565b3480156100da57600080fd5b506100a7610159565b600080546001908101808355604080516020818101835283825292855292825280842092519092559154815190815290517f97806779c4b10fad3b4735eed188da0a1d6406ff0a6fb1f9b62e73df611ed9e5929181900390910190a1565b60016020526000908152604090205481565b60005481565b60003073ffffffffffffffffffffffffffffffffffffffff1663b6cb58a56040518163ffffffff167c010000000000000000000000000000000000000000000000000000000002815260040160206040518083038186803b1580156101bd57600080fd5b505afa1580156101d1573d6000803e3d6000fd5b505050506040513d60208110156101e757600080fd5b505190509056fea165627a7a72305820bc8be422618dd4324f025bf39da0b9825ef9e4a9676ae27d891e51c2376f46fe0029",
  "source": "pragma solidity ^0.5.0;\n\ncontract TodoList {\n    uint public taskCount = 0;\n\n    struct dataFromSensor {\n        uint id;\n    }\n\n    mapping (uint => dataFromSensor) public dataFromSensorArray; //associative array/hash, where key is a unsigned int and the array's content is a instance of Task\n\n    event dataFromSensorCreated(\n        uint id\n    );\n\n    //populate tasks when the contract is contructed\n    constructor() public {\n        createDataSensor();\n    }\n\n    function createDataSensor () public {\n        //task's id\n        taskCount ++;\n\n        //add a instance of task to task's array\n        dataFromSensorArray[taskCount] = dataFromSensor(taskCount);\n\n        emit dataFromSensorCreated(taskCount);\n    }\n\n    function getTaskCount() public returns (uint) {\n        return this.taskCount();\n    }\n\n}",
  "sourcePath": "/Users/marcosequeira/ttn-to-blockchain/ttnNodeApplication/contracts/TodoList.sol",
  "compiler": {
    "name": "solc",
    "version": "0.5.0+commit.1d4f565a.Emscripten.clang"
  },
  "schemaVersion": "3.0.1",
  "updatedAt": "2019-08-31T14:20:54.156Z",
  "devdoc": {
    "methods": {}
  },
  "userdoc": {
    "methods": {}
  }
}