{
  "contractName": "UrlRequests",
  "abi": [
    {
      "constant": true,
      "inputs": [],
      "name": "dieselPriceUSD",
      "outputs": [
        {
          "name": "",
          "type": "uint256"
        }
      ],
      "payable": false,
      "stateMutability": "view",
      "type": "function",
      "signature": "0x3e0ae588"
    },
    {
      "constant": true,
      "inputs": [
        {
          "name": "",
          "type": "bytes32"
        }
      ],
      "name": "pendingQueries",
      "outputs": [
        {
          "name": "",
          "type": "bool"
        }
      ],
      "payable": false,
      "stateMutability": "view",
      "type": "function",
      "signature": "0x89a2cdcb"
    },
    {
      "inputs": [],
      "payable": false,
      "stateMutability": "nonpayable",
      "type": "constructor",
      "signature": "constructor"
    },
    {
      "anonymous": false,
      "inputs": [
        {
          "indexed": false,
          "name": "price",
          "type": "string"
        }
      ],
      "name": "LogNewDieselPrice",
      "type": "event",
      "signature": "0xd6895258709992fce160291769b3d3b2abe843f1e1529bed11f0dbd1f8159bb0"
    },
    {
      "anonymous": false,
      "inputs": [
        {
          "indexed": false,
          "name": "description",
          "type": "string"
        }
      ],
      "name": "LogNewProvableQuery",
      "type": "event",
      "signature": "0xc4dc360d0a9c0677a3379ae0a3d81e887f761e65fdf3d7e00859d1bcd3c47389"
    },
    {
      "constant": false,
      "inputs": [
        {
          "name": "_myid",
          "type": "bytes32"
        },
        {
          "name": "result",
          "type": "string"
        }
      ],
      "name": "__callback",
      "outputs": [],
      "payable": false,
      "stateMutability": "nonpayable",
      "type": "function",
      "signature": "0x27dc297e"
    },
    {
      "constant": false,
      "inputs": [
        {
          "name": "_myid",
          "type": "bytes32"
        },
        {
          "name": "_result",
          "type": "string"
        },
        {
          "name": "_proof",
          "type": "bytes"
        }
      ],
      "name": "__callback",
      "outputs": [],
      "payable": false,
      "stateMutability": "nonpayable",
      "type": "function",
      "signature": "0x38bbfa50"
    },
    {
      "constant": false,
      "inputs": [],
      "name": "update",
      "outputs": [],
      "payable": true,
      "stateMutability": "payable",
      "type": "function",
      "signature": "0xa2e62045"
    }
  ],
  "bytecode": "0x608060405234801561001057600080fd5b50611479806100206000396000f3fe6080604052600436106100535763ffffffff60e060020a60003504166327dc297e811461005857806338bbfa50146101145780633e0ae5881461025557806389a2cdcb1461027c578063a2e62045146102ba575b600080fd5b34801561006457600080fd5b506101126004803603604081101561007b57600080fd5b8135919081019060408101602082013564010000000081111561009d57600080fd5b8201836020820111156100af57600080fd5b803590602001918460018302840111640100000000831117156100d157600080fd5b91908080601f0160208091040260200160405190810160405280939291908181526020018383808284376000920191909152509295506102c2945050505050565b005b34801561012057600080fd5b506101126004803603606081101561013757600080fd5b8135919081019060408101602082013564010000000081111561015957600080fd5b82018360208201111561016b57600080fd5b8035906020019184600183028401116401000000008311171561018d57600080fd5b91908080601f01602080910402602001604051908101604052809392919081815260200183838082843760009201919091525092959493602081019350359150506401000000008111156101e057600080fd5b8201836020820111156101f257600080fd5b8035906020019184600183028401116401000000008311171561021457600080fd5b91908080601f0160208091040260200160405190810160405280939291908181526020018383808284376000920191909152509295506103be945050505050565b34801561026157600080fd5b5061026a6103ef565b60408051918252519081900360200190f35b34801561028857600080fd5b506102a66004803603602081101561029f57600080fd5b50356103f5565b604080519115158252519081900360200190f35b61011261040a565b6102ca610667565b600160a060020a031633146102de57600080fd5b60008281526006602052604090205460ff1615156001146102fe57600080fd5b7fd6895258709992fce160291769b3d3b2abe843f1e1529bed11f0dbd1f8159bb0816040518080602001828103825283818151815260200191508051906020019080838360005b8381101561035d578181015183820152602001610345565b50505050905090810190601f16801561038a5780820380516001836020036101000a031916815260200191505b509250505060405180910390a16103a281600261085a565b600555506000908152600660205260409020805460ff19169055565b5050600080805260036020527f3617319a054d772f909f7c479a2cebe5066e836a939412e32403c99029b92eff5550565b60055481565b60066020526000908152604090205460ff1681565b346104496040805190810160405280600381526020017f55524c000000000000000000000000000000000000000000000000000000000081525061098a565b111561050257604080517f08c379a000000000000000000000000000000000000000000000000000000000815260206004820152604c60248201527f50726f7661626c6520717565727920776173204e4f542073656e742c20706c6560448201527f6173652061646420736f6d652045544820746f20636f76657220666f7220746860648201527f6520717565727920666565210000000000000000000000000000000000000000608482015290519081900360a40190fd5b6040805160208082526036908201527f50726f7661626c65207175657279207761732073656e742c207374616e64696e818301527f6720627920666f722074686520616e737765722e2e2e00000000000000000000606082015290517fc4dc360d0a9c0677a3379ae0a3d81e887f761e65fdf3d7e00859d1bcd3c473899181900360800190a1600061064b6040805190810160405280600381526020017f55524c0000000000000000000000000000000000000000000000000000000000815250608060405190810160405280604581526020017f786d6c2868747470733a2f2f7777772e6675656c65636f6e6f6d792e676f762f81526020017f77732f726573742f6675656c707269636573292e6675656c5072696365732e6481526020017f696573656c000000000000000000000000000000000000000000000000000000815250610bf5565b6000908152600660205260409020805460ff1916600117905550565b600154600090600160a060020a03161580610694575060015461069290600160a060020a0316610feb565b155b156106a5576106a36000610fef565b505b600160009054906101000a9004600160a060020a0316600160a060020a03166338cc48316040518163ffffffff1660e060020a028152600401602060405180830381600087803b1580156106f857600080fd5b505af115801561070c573d6000803e3d6000fd5b505050506040513d602081101561072257600080fd5b5051600054600160a060020a039081169116146107d857600160009054906101000a9004600160a060020a0316600160a060020a03166338cc48316040518163ffffffff1660e060020a028152600401602060405180830381600087803b15801561078c57600080fd5b505af11580156107a0573d6000803e3d6000fd5b505050506040513d60208110156107b657600080fd5b505160008054600160a060020a031916600160a060020a039092169190911790555b6000809054906101000a9004600160a060020a0316600160a060020a031663c281d19e6040518163ffffffff1660e060020a02815260040160206040518083038186803b15801561082857600080fd5b505afa15801561083c573d6000803e3d6000fd5b505050506040513d602081101561085257600080fd5b505190505b90565b6000828180805b835181101561096c576030848281518110151561087a57fe5b90602001015160f860020a900460f860020a0260f860020a900460ff16101580156108d05750603984828151811015156108b057fe5b90602001015160f860020a900460f860020a0260f860020a900460ff1611155b1561092c5781156108ef578515156108e75761096c565b600019909501945b600a830292506030848281518110151561090557fe5b90602001015160f860020a900460f860020a0260f860020a900460ff160383019250610964565b838181518110151561093a57fe5b90602001015160f860020a900460f860020a0260f860020a900460ff16602e141561096457600191505b600101610861565b50600085111561097f5784600a0a820291505b509150505b92915050565b600154600090600160a060020a031615806109b757506001546109b590600160a060020a0316610feb565b155b156109c8576109c66000610fef565b505b600160009054906101000a9004600160a060020a0316600160a060020a03166338cc48316040518163ffffffff1660e060020a028152600401602060405180830381600087803b158015610a1b57600080fd5b505af1158015610a2f573d6000803e3d6000fd5b505050506040513d6020811015610a4557600080fd5b5051600054600160a060020a03908116911614610afb57600160009054906101000a9004600160a060020a0316600160a060020a03166338cc48316040518163ffffffff1660e060020a028152600401602060405180830381600087803b158015610aaf57600080fd5b505af1158015610ac3573d6000803e3d6000fd5b505050506040513d6020811015610ad957600080fd5b505160008054600160a060020a031916600160a060020a039092169190911790555b600080546040517f524f3889000000000000000000000000000000000000000000000000000000008152602060048201818152865160248401528651600160a060020a039094169463524f3889948894929384936044019290860191908190849084905b83811015610b77578181015183820152602001610b5f565b50505050905090810190601f168015610ba45780820380516001836020036101000a031916815260200191505b5092505050602060405180830381600087803b158015610bc357600080fd5b505af1158015610bd7573d6000803e3d6000fd5b505050506040513d6020811015610bed57600080fd5b505192915050565b600154600090600160a060020a03161580610c225750600154610c2090600160a060020a0316610feb565b155b15610c3357610c316000610fef565b505b600160009054906101000a9004600160a060020a0316600160a060020a03166338cc48316040518163ffffffff1660e060020a028152600401602060405180830381600087803b158015610c8657600080fd5b505af1158015610c9a573d6000803e3d6000fd5b505050506040513d6020811015610cb057600080fd5b5051600054600160a060020a03908116911614610d6657600160009054906101000a9004600160a060020a0316600160a060020a03166338cc48316040518163ffffffff1660e060020a028152600401602060405180830381600087803b158015610d1a57600080fd5b505af1158015610d2e573d6000803e3d6000fd5b505050506040513d6020811015610d4457600080fd5b505160008054600160a060020a031916600160a060020a039092169190911790555b600080546040517f524f3889000000000000000000000000000000000000000000000000000000008152602060048201818152875160248401528751600160a060020a039094169363524f38899389938392604490920191908501908083838b5b83811015610ddf578181015183820152602001610dc7565b50505050905090810190601f168015610e0c5780820380516001836020036101000a031916815260200191505b5092505050602060405180830381600087803b158015610e2b57600080fd5b505af1158015610e3f573d6000803e3d6000fd5b505050506040513d6020811015610e5557600080fd5b50519050670de0b6b3a764000062030d403a0201811115610e7a575060009050610984565b600080546040517fadf59f9900000000000000000000000000000000000000000000000000000000815260048101838152606060248301908152885160648401528851600160a060020a039094169463adf59f9994879491938b938b9391929091604481019160849091019060208701908083838b5b83811015610f08578181015183820152602001610ef0565b50505050905090810190601f168015610f355780820380516001836020036101000a031916815260200191505b50838103825284518152845160209182019186019080838360005b83811015610f68578181015183820152602001610f50565b50505050905090810190601f168015610f955780820380516001836020036101000a031916815260200191505b50955050505050506020604051808303818588803b158015610fb657600080fd5b505af1158015610fca573d6000803e3d6000fd5b50505050506040513d6020811015610fe157600080fd5b5051949350505050565b3b90565b6000610984600080611014731d3b2638a7cc9f2cb3d298a3da7a90b67e5506ed610feb565b11156110855760018054600160a060020a031916731d3b2638a7cc9f2cb3d298a3da7a90b67e5506ed17905560408051808201909152600b81527f6574685f6d61696e6e6574000000000000000000000000000000000000000000602082015261107d9061139e565b506001610857565b60006110a473c03a2615d5efaf5f49f60b7bb6583eaec212fdf1610feb565b111561110d5760018054600160a060020a03191673c03a2615d5efaf5f49f60b7bb6583eaec212fdf117905560408051808201909152600c81527f6574685f726f707374656e330000000000000000000000000000000000000000602082015261107d9061139e565b600061112c73b7a07bcf2ba2f2703b24c0691b5278999c59ac7e610feb565b11156111955760018054600160a060020a03191673b7a07bcf2ba2f2703b24c0691b5278999c59ac7e17905560408051808201909152600981527f6574685f6b6f76616e0000000000000000000000000000000000000000000000602082015261107d9061139e565b60006111b473146500cfd35b22e4a392fe0adc06de1a1368ed48610feb565b111561121d5760018054600160a060020a03191673146500cfd35b22e4a392fe0adc06de1a1368ed4817905560408051808201909152600b81527f6574685f72696e6b656279000000000000000000000000000000000000000000602082015261107d9061139e565b600061123c73a2998efd205fb9d4b4963afb70778d6354ad3a41610feb565b11156112a55760018054600160a060020a03191673a2998efd205fb9d4b4963afb70778d6354ad3a4117905560408051808201909152600a81527f6574685f676f65726c6900000000000000000000000000000000000000000000602082015261107d9061139e565b60006112c4736f485c8bf6fc43ea212e93bbf8ce046c7f1cb475610feb565b11156112f6575060018054600160a060020a031916736f485c8bf6fc43ea212e93bbf8ce046c7f1cb475178155610857565b60006113157320e12a1f859b3feae5fb2a0a32c18f5a65555bbf610feb565b1115611347575060018054600160a060020a0319167320e12a1f859b3feae5fb2a0a32c18f5a65555bbf178155610857565b60006113667351efaf4c8b3c9afbd5ab9f4bbc82784ab6ef8faa610feb565b1115611398575060018054600160a060020a0319167351efaf4c8b3c9afbd5ab9f4bbc82784ab6ef8faa178155610857565b50600090565b80516113b19060029060208401906113b5565b5050565b828054600181600116156101000203166002900490600052602060002090601f016020900481019282601f106113f657805160ff1916838001178555611423565b82800160010185558215611423579182015b82811115611423578251825591602001919060010190611408565b5061142f929150611433565b5090565b61085791905b8082111561142f576000815560010161143956fea165627a7a72305820c45ad65208fb765dd9e14128d6a7635219814b397d12af6a81bb8f0bc89a02f90029",
  "source": "pragma solidity >= 0.5.0 < 0.6.0;\n\nimport \"./provableAPI.sol\";\n\ncontract UrlRequests is usingProvable {\n\n    uint public dieselPriceUSD;\n\n    event LogNewDieselPrice(string price);\n    event LogNewProvableQuery(string description);\n\n    mapping (bytes32 => bool) public pendingQueries;\n\n    constructor()\n    public\n    {\n        //OAR = OraclizeAddrResolverI(0x6dEa17F26aB56f5FbA2A17090B3BF0113ebEA0D8);        //update(); // First check at contract creation...\n    }\n\n    function __callback(\n        bytes32 _myid,\n        string memory result\n    )\n    public\n    {\n        require(msg.sender == provable_cbAddress());\n        require (pendingQueries[_myid] == true);\n\n        emit LogNewDieselPrice(result);\n        dieselPriceUSD = parseInt(result, 2); // Let's save it as cents...\n        // Now do something with the USD Diesel price...\n\n        delete pendingQueries[_myid]; // This effectively marks the query id as processed.\n\n    }\n\n    function update()\n    public\n    payable\n    {\n        if (provable_getPrice(\"URL\") > msg.value) {\n            revert(\"Provable query was NOT sent, please add some ETH to cover for the query fee!\");\n        } else {\n            emit LogNewProvableQuery(\"Provable query was sent, standing by for the answer...\");\n            bytes32 queryId = provable_query(\"URL\", \"xml(https://www.fueleconomy.gov/ws/rest/fuelprices).fuelPrices.diesel\");\n\n            pendingQueries[queryId] = true;\n        }\n    }\n}",
  "sourcePath": "/Users/marcosequeira/ttn-to-blockchain/ttnNodeApplication/contracts/UrlRequests.sol",
  "compiler": {
    "name": "solc",
    "version": "0.5.0+commit.1d4f565a.Emscripten.clang"
  },
  "schemaVersion": "3.0.1",
  "updatedAt": "2019-12-10T23:11:41.348Z",
  "devdoc": {
    "methods": {}
  },
  "userdoc": {
    "methods": {}
  }
}