{
  "contractName": "SensorData",
  "abi": [
    {
      "constant": true,
      "inputs": [
        {
          "name": "",
          "type": "uint256"
        }
      ],
      "name": "dataFromSensorArray",
      "outputs": [
        {
          "name": "id",
          "type": "uint256"
        },
        {
          "name": "temperature",
          "type": "uint256"
        },
        {
          "name": "humidity",
          "type": "uint256"
        },
        {
          "name": "date",
          "type": "string"
        }
      ],
      "payable": false,
      "stateMutability": "view",
      "type": "function",
      "signature": "0x607d4c3b"
    },
    {
      "constant": true,
      "inputs": [],
      "name": "dataId",
      "outputs": [
        {
          "name": "",
          "type": "uint256"
        }
      ],
      "payable": false,
      "stateMutability": "view",
      "type": "function",
      "signature": "0xc8a663ec"
    },
    {
      "inputs": [],
      "payable": false,
      "stateMutability": "nonpayable",
      "type": "constructor",
      "signature": "constructor"
    },
    {
      "anonymous": false,
      "inputs": [
        {
          "indexed": false,
          "name": "id",
          "type": "uint256"
        },
        {
          "indexed": false,
          "name": "temperature",
          "type": "uint256"
        },
        {
          "indexed": false,
          "name": "humidity",
          "type": "uint256"
        },
        {
          "indexed": false,
          "name": "date",
          "type": "string"
        }
      ],
      "name": "dataFromSensorCreated",
      "type": "event",
      "signature": "0x4f3f226eefdea67b8f989dcefc36c10088fea8cf828c1b68d477ab61e59f2bf1"
    },
    {
      "constant": false,
      "inputs": [
        {
          "name": "_temperature",
          "type": "uint256"
        },
        {
          "name": "_humidity",
          "type": "uint256"
        },
        {
          "name": "_date",
          "type": "string"
        }
      ],
      "name": "createDataSensor",
      "outputs": [],
      "payable": false,
      "stateMutability": "nonpayable",
      "type": "function",
      "signature": "0x14c518c9"
    },
    {
      "constant": false,
      "inputs": [],
      "name": "getTaskCount",
      "outputs": [
        {
          "name": "",
          "type": "uint256"
        }
      ],
      "payable": false,
      "stateMutability": "nonpayable",
      "type": "function",
      "signature": "0xc17a340e"
    }
  ],
  "bytecode": "0x60806040526000805534801561001457600080fd5b50610549806100246000396000f3fe6080604052600436106100615763ffffffff7c010000000000000000000000000000000000000000000000000000000060003504166314c518c98114610066578063607d4c3b14610127578063c17a340e146101de578063c8a663ec14610205575b600080fd5b34801561007257600080fd5b506101256004803603606081101561008957600080fd5b8135916020810135918101906060810160408201356401000000008111156100b057600080fd5b8201836020820111156100c257600080fd5b803590602001918460018302840111640100000000831117156100e457600080fd5b91908080601f01602080910402602001604051908101604052809392919081815260200183838082843760009201919091525092955061021a945050505050565b005b34801561013357600080fd5b506101516004803603602081101561014a57600080fd5b503561033b565b6040518085815260200184815260200183815260200180602001828103825283818151815260200191508051906020019080838360005b838110156101a0578181015183820152602001610188565b50505050905090810190601f1680156101cd5780820380516001836020036101000a031916815260200191505b509550505050505060405180910390f35b3480156101ea57600080fd5b506101f36103e9565b60408051918252519081900360200190f35b34801561021157600080fd5b506101f361047f565b600080546001908101808355604080516080810182528281526020808201898152828401898152606084018981529588528683529390962082518155955194860194909455905160028501559051805191939261027f92600385019290910190610485565b509050507f4f3f226eefdea67b8f989dcefc36c10088fea8cf828c1b68d477ab61e59f2bf16000548484846040518085815260200184815260200183815260200180602001828103825283818151815260200191508051906020019080838360005b838110156102f95781810151838201526020016102e1565b50505050905090810190601f1680156103265780820380516001836020036101000a031916815260200191505b509550505050505060405180910390a1505050565b60016020818152600092835260409283902080548184015460028084015460038501805489519881161561010002600019011692909204601f81018790048702880187019098528787529296919592949091908301828280156103df5780601f106103b4576101008083540402835291602001916103df565b820191906000526020600020905b8154815290600101906020018083116103c257829003601f168201915b5050505050905084565b60003073ffffffffffffffffffffffffffffffffffffffff1663c8a663ec6040518163ffffffff167c010000000000000000000000000000000000000000000000000000000002815260040160206040518083038186803b15801561044d57600080fd5b505afa158015610461573d6000803e3d6000fd5b505050506040513d602081101561047757600080fd5b505190505b90565b60005481565b828054600181600116156101000203166002900490600052602060002090601f016020900481019282601f106104c657805160ff19168380011785556104f3565b828001600101855582156104f3579182015b828111156104f35782518255916020019190600101906104d8565b506104ff929150610503565b5090565b61047c91905b808211156104ff576000815560010161050956fea165627a7a72305820f8908cf1a9e493d986180136448f5b9eb3733e2968c9d4f51b825566add7b59a0029",
  "source": "pragma solidity ^0.5.0;\n\ncontract SensorData {\n    uint public dataId = 0;\n\n    struct dataFromSensor {\n        uint id;\n        uint temperature;\n        uint humidity;\n        string date;\n    }\n\n    mapping (uint => dataFromSensor) public dataFromSensorArray; //associative array/hash, where key is a unsigned int and the array's content is a instance of Task\n\n    //EVENT WHEN DATA SENSOR IS CREATED\n    event dataFromSensorCreated(\n        uint id,\n        uint temperature,\n        uint humidity,\n        string date\n    );\n\n    constructor() public {\n        //createDataSensor();\n    }\n\n    function createDataSensor (uint _temperature, uint _humidity, string memory _date) public {\n        //DATA ID\n        dataId ++;\n\n        //add a instance of dataFromSensor to dataFromSensorArray\n        dataFromSensorArray[dataId] = dataFromSensor(dataId, _temperature, _humidity, _date);\n\n        emit dataFromSensorCreated(dataId, _temperature, _humidity, _date);\n    }\n\n    function getTaskCount() public returns (uint) {\n        return this.dataId();\n    }\n\n}",
  "sourcePath": "/Users/marcosequeira/ttn-to-blockchain/contracts/SensorData.sol",
  "compiler": {
    "name": "solc",
    "version": "0.5.0+commit.1d4f565a.Emscripten.clang"
  },
  "schemaVersion": "3.0.1",
  "updatedAt": "2019-08-24T15:13:55.110Z",
  "devdoc": {
    "methods": {}
  },
  "userdoc": {
    "methods": {}
  }
}